{
  "contractName": "BookingManager",
  "abi": [
    {
      "anonymous": false,
      "inputs": [
        {
          "indexed": false,
          "internalType": "address",
          "name": "sender",
          "type": "address"
        },
        {
          "indexed": false,
          "internalType": "uint64",
          "name": "_timeCursor",
          "type": "uint64"
        },
        {
          "indexed": false,
          "internalType": "string",
          "name": "something",
          "type": "string"
        }
      ],
      "name": "SomethingElse",
      "type": "event"
    },
    {
      "inputs": [],
      "name": "name",
      "outputs": [
        {
          "internalType": "string",
          "name": "",
          "type": "string"
        }
      ],
      "stateMutability": "view",
      "type": "function"
    },
    {
      "inputs": [],
      "name": "numOfBookings",
      "outputs": [
        {
          "internalType": "uint256",
          "name": "",
          "type": "uint256"
        }
      ],
      "stateMutability": "view",
      "type": "function"
    },
    {
      "inputs": [
        {
          "internalType": "uint256",
          "name": "_listingId",
          "type": "uint256"
        },
        {
          "internalType": "uint64",
          "name": "_startTime",
          "type": "uint64"
        },
        {
          "internalType": "uint64",
          "name": "_endTime",
          "type": "uint64"
        }
      ],
      "name": "createBooking",
      "outputs": [
        {
          "internalType": "uint256",
          "name": "",
          "type": "uint256"
        }
      ],
      "stateMutability": "nonpayable",
      "type": "function"
    },
    {
      "inputs": [
        {
          "internalType": "uint256",
          "name": "_listingId",
          "type": "uint256"
        },
        {
          "internalType": "uint256",
          "name": "_dateTime",
          "type": "uint256"
        }
      ],
      "name": "getBookingOnDate",
      "outputs": [
        {
          "internalType": "uint256",
          "name": "",
          "type": "uint256"
        }
      ],
      "stateMutability": "view",
      "type": "function"
    },
    {
      "inputs": [
        {
          "internalType": "uint256",
          "name": "_bookingId",
          "type": "uint256"
        }
      ],
      "name": "getBookingStart",
      "outputs": [
        {
          "internalType": "uint64",
          "name": "",
          "type": "uint64"
        }
      ],
      "stateMutability": "view",
      "type": "function"
    },
    {
      "inputs": [
        {
          "internalType": "uint256",
          "name": "_bookingId",
          "type": "uint256"
        }
      ],
      "name": "getBookingEnd",
      "outputs": [
        {
          "internalType": "uint64",
          "name": "",
          "type": "uint64"
        }
      ],
      "stateMutability": "view",
      "type": "function"
    },
    {
      "inputs": [
        {
          "internalType": "uint256",
          "name": "_bookingId",
          "type": "uint256"
        }
      ],
      "name": "getBookingOwner",
      "outputs": [
        {
          "internalType": "address",
          "name": "",
          "type": "address"
        }
      ],
      "stateMutability": "view",
      "type": "function"
    }
  ],
  "bytecode": "0x60806040526201518060005560006002556040518060400160405280600f81526020017f426f6f6b696e67204d616e6167657200000000000000000000000000000000008152506003908051906020019061005b92919061006e565b5034801561006857600080fd5b50610172565b82805461007a90610111565b90600052602060002090601f01602090048101928261009c57600085556100e3565b82601f106100b557805160ff19168380011785556100e3565b828001600101855582156100e3579182015b828111156100e25782518255916020019190600101906100c7565b5b5090506100f091906100f4565b5090565b5b8082111561010d5760008160009055506001016100f5565b5090565b6000600282049050600182168061012957607f821691505b6020821081141561013d5761013c610143565b5b50919050565b7f4e487b7100000000000000000000000000000000000000000000000000000000600052602260045260246000fd5b610a6a806101816000396000f3fe608060405234801561001057600080fd5b506004361061007d5760003560e01c80631f8a2a2d1161005b5780631f8a2a2d146100ee578063927117991461011e578063f065d2721461014e578063f0865d261461017e5761007d565b806306fdde03146100825780630ba4be3d146100a05780631a882e2b146100be575b600080fd5b61008a6101ae565b6040516100979190610778565b60405180910390f35b6100a861023c565b6040516100b5919061079a565b60405180910390f35b6100d860048036038101906100d39190610636565b610242565b6040516100e5919061079a565b60405180910390f35b610108600480360381019061010391906105c9565b6103e1565b60405161011591906107de565b60405180910390f35b610138600480360381019061013391906105f6565b610415565b604051610145919061079a565b60405180910390f35b610168600480360381019061016391906105c9565b610444565b60405161017591906107de565b60405180910390f35b610198600480360381019061019391906105c9565b610478565b6040516101a59190610721565b60405180910390f35b600380546101bb906108ee565b80601f01602080910402602001604051908101604052809291908181526020018280546101e7906108ee565b80156102345780601f1061020957610100808354040283529160200191610234565b820191906000526020600020905b81548152906001019060200180831161021757829003601f168201915b505050505081565b60025481565b60008267ffffffffffffffff168267ffffffffffffffff1673__DateTime______________________________6370ffa43183836040518363ffffffff1660e01b81526004016102939291906107b5565b60006040518083038186803b1580156102ab57600080fd5b505af41580156102bf573d6000803e3d6000fd5b505050507f829695232cdabe2930b8157af385dd4a281835c37bd39736b4d275c8aedec68433866040516102f492919061073c565b60405180910390a160006002600081548092919061031190610920565b9190505590506000600160008381526020019081526020016000209050868160000160006101000a81548167ffffffffffffffff021916908367ffffffffffffffff160217905550858160000160086101000a81548167ffffffffffffffff021916908367ffffffffffffffff160217905550338160010160006101000a81548173ffffffffffffffffffffffffffffffffffffffff021916908373ffffffffffffffffffffffffffffffffffffffff1602179055506103d3888888856104b8565b819450505050509392505050565b60006001600083815260200190815260200160002060000160089054906101000a900467ffffffffffffffff169050919050565b600060046000848152602001908152602001600020600083815260200190815260200160002054905092915050565b60006001600083815260200190815260200160002060000160009054906101000a900467ffffffffffffffff169050919050565b60006001600083815260200190815260200160002060010160009054906101000a900473ffffffffffffffffffffffffffffffffffffffff169050919050565b8267ffffffffffffffff168267ffffffffffffffff1673__DateTime______________________________6370ffa43183836040518363ffffffff1660e01b81526004016105079291906107b5565b60006040518083038186803b15801561051f57600080fd5b505af4158015610533573d6000803e3d6000fd5b5050505060008567ffffffffffffffff1690505b8467ffffffffffffffff1681116105965783600460008981526020019081526020016000206000838152602001908152602001600020819055506000548161058f9190610815565b9050610547565b50505050505050565b6000813590506105ae81610a06565b92915050565b6000813590506105c381610a1d565b92915050565b6000602082840312156105df576105de6109c7565b5b60006105ed8482850161059f565b91505092915050565b6000806040838503121561060d5761060c6109c7565b5b600061061b8582860161059f565b925050602061062c8582860161059f565b9150509250929050565b60008060006060848603121561064f5761064e6109c7565b5b600061065d8682870161059f565b935050602061066e868287016105b4565b925050604061067f868287016105b4565b9150509250925092565b6106928161086b565b82525050565b60006106a3826107f9565b6106ad8185610804565b93506106bd8185602086016108bb565b6106c6816109cc565b840191505092915050565b60006106de600483610804565b91506106e9826109dd565b602082019050919050565b6106fd8161089d565b82525050565b61070c8161089d565b82525050565b61071b816108a7565b82525050565b60006020820190506107366000830184610689565b92915050565b60006060820190506107516000830185610689565b61075e6020830184610712565b818103604083015261076f816106d1565b90509392505050565b600060208201905081810360008301526107928184610698565b905092915050565b60006020820190506107af60008301846106f4565b92915050565b60006040820190506107ca6000830185610703565b6107d76020830184610703565b9392505050565b60006020820190506107f36000830184610712565b92915050565b600081519050919050565b600082825260208201905092915050565b60006108208261089d565b915061082b8361089d565b9250827fffffffffffffffffffffffffffffffffffffffffffffffffffffffffffffffff038211156108605761085f610969565b5b828201905092915050565b60006108768261087d565b9050919050565b600073ffffffffffffffffffffffffffffffffffffffff82169050919050565b6000819050919050565b600067ffffffffffffffff82169050919050565b60005b838110156108d95780820151818401526020810190506108be565b838111156108e8576000848401525b50505050565b6000600282049050600182168061090657607f821691505b6020821081141561091a57610919610998565b5b50919050565b600061092b8261089d565b91507fffffffffffffffffffffffffffffffffffffffffffffffffffffffffffffffff82141561095e5761095d610969565b5b600182019050919050565b7f4e487b7100000000000000000000000000000000000000000000000000000000600052601160045260246000fd5b7f4e487b7100000000000000000000000000000000000000000000000000000000600052602260045260246000fd5b600080fd5b6000601f19601f8301169050919050565b7f626c616800000000000000000000000000000000000000000000000000000000600082015250565b610a0f8161089d565b8114610a1a57600080fd5b50565b610a26816108a7565b8114610a3157600080fd5b5056fea264697066735822122024330f35914b39b5b4dfcb74cbeb5b03d839de004fa21bffde6f08f0e2c7d32364736f6c63430008050033",
  "immutableReferences": {},
  "source": "// SPDX-License-Identifier: UNLICENSED\npragma solidity ^0.8.0;\n\nimport './structs/Booking.sol';\nimport \"./Manager.sol\";\n\ncontract BookingManager is Manager {\n    event SomethingElse(address sender, uint64 _timeCursor, string something);\n\n    mapping(uint => Booking) bookings;\n    uint public numOfBookings = 0;\n    string public name = \"Booking Manager\";\n\n    // maps a given listing ID (key) to a mapping ZZ.\n    // The keys of ZZ are epoch times (at midnight) which map to a booking ID (the value)\n    mapping(uint => mapping(uint => uint)) listingsToBookingDates;\n\n    function createBooking(uint _listingId, uint64 _startTime, uint64 _endTime) public isAtMidnight(_startTime, _endTime) returns (uint) {\n        emit SomethingElse(msg.sender, _startTime, 'blah');\n        uint bookingId = numOfBookings++;\n\n        Booking storage newBooking = bookings[bookingId];\n        newBooking.startEpochTime = _startTime;\n        newBooking.endEpochTime = _endTime;\n        newBooking.owner = msg.sender;\n\n        addBookingDatesToListing(_listingId, _startTime, _endTime, bookingId);\n\n        return bookingId;\n    }\n\n    function addBookingDatesToListing(uint _listingId, uint64 _startTime, uint64 _endTime, uint _bookingId) private isAtMidnight(_startTime, _endTime) {\n        uint timeCursor = _startTime;\n\n        while (timeCursor <= _endTime) {\n            listingsToBookingDates[_listingId][timeCursor] = _bookingId;\n            timeCursor += secsInDay;\n        }\n    }\n\n    function getBookingOnDate(uint _listingId, uint _dateTime) public view returns (uint) {\n        return listingsToBookingDates[_listingId][_dateTime];\n    }\n\n    function getBookingStart(uint _bookingId) public view returns (uint64) {\n        return bookings[_bookingId].startEpochTime;\n    }\n\n    function getBookingEnd(uint _bookingId) public view returns (uint64) {\n        return bookings[_bookingId].endEpochTime;\n    }\n\n    function getBookingOwner(uint _bookingId) public view returns (address) {\n        return bookings[_bookingId].owner;\n    }\n}\n",
  "sourcePath": "/Users/ian/Code/eth_contracts/yumebnb/yume_contracts/src/contracts/BookingManager.sol",
  "compiler": {
    "name": "solc",
    "version": "0.8.5+commit.a4f2e591.Emscripten.clang"
  },
  "schemaVersion": "3.4.1",
  "updatedAt": "2021-07-08T23:31:05.301Z",
  "devdoc": {
    "kind": "dev",
    "methods": {},
    "version": 1
  },
  "userdoc": {
    "kind": "user",
    "methods": {},
    "version": 1
  }
}