{
  "contractName": "BookingManager",
  "abi": [
    {
      "inputs": [
        {
          "internalType": "uint256",
          "name": "_listingId",
          "type": "uint256"
        }
      ],
      "name": "createBooking",
      "outputs": [],
      "stateMutability": "nonpayable",
      "type": "function"
    }
  ],
  "bytecode": "0x608060405234801561001057600080fd5b5060dc8061001f6000396000f3fe6080604052348015600f57600080fd5b506004361060285760003560e01c80630e50cf6f14602d575b600080fd5b60436004803603810190603f9190605b565b6045565b005b50565b6000813590506055816092565b92915050565b600060208284031215606e57606d608d565b5b6000607a848285016048565b91505092915050565b6000819050919050565b600080fd5b6099816083565b811460a357600080fd5b5056fea264697066735822122019d74a9b143cab7717df1015e92ae339d735d28f361a82b0c86656fa2e5f0d0764736f6c63430008050033",
  "immutableReferences": {},
  "source": "// SPDX-License-Identifier: UNLICENSED\npragma solidity ^0.8.0;\n\nimport './structs/Booking.sol';\n\ncontract BookingManager {\n    mapping(uint => Booking) listings;\n\n    function createBooking(uint _listingId) public {\n\n    }\n}\n",
  "sourcePath": "/Users/ian/Code/eth_contracts/yumebnb/yume_contracts/src/contracts/BookingManager.sol",
  "compiler": {
    "name": "solc",
    "version": "0.8.5+commit.a4f2e591.Emscripten.clang"
  },
  "schemaVersion": "3.4.1",
  "updatedAt": "2021-07-08T21:29:21.806Z",
  "devdoc": {
    "kind": "dev",
    "methods": {},
    "version": 1
  },
  "userdoc": {
    "kind": "user",
    "methods": {},
    "version": 1
  }
}