{
  "contractName": "BookingManager",
  "abi": [
    {
      "inputs": [
        {
          "internalType": "contract ListingManager",
          "name": "_listingManager",
          "type": "address"
        }
      ],
      "stateMutability": "nonpayable",
      "type": "constructor"
    },
    {
      "inputs": [],
      "name": "bookingIndex",
      "outputs": [
        {
          "internalType": "uint256",
          "name": "",
          "type": "uint256"
        }
      ],
      "stateMutability": "view",
      "type": "function",
      "constant": true
    },
    {
      "inputs": [
        {
          "internalType": "address",
          "name": "",
          "type": "address"
        }
      ],
      "name": "guestEscrow",
      "outputs": [
        {
          "internalType": "uint256",
          "name": "",
          "type": "uint256"
        }
      ],
      "stateMutability": "view",
      "type": "function",
      "constant": true
    },
    {
      "inputs": [],
      "name": "name",
      "outputs": [
        {
          "internalType": "string",
          "name": "",
          "type": "string"
        }
      ],
      "stateMutability": "view",
      "type": "function",
      "constant": true
    },
    {
      "inputs": [],
      "name": "numOfBookings",
      "outputs": [
        {
          "internalType": "uint256",
          "name": "",
          "type": "uint256"
        }
      ],
      "stateMutability": "view",
      "type": "function",
      "constant": true
    },
    {
      "inputs": [
        {
          "internalType": "uint256",
          "name": "_listingId",
          "type": "uint256"
        },
        {
          "internalType": "uint64",
          "name": "_startTime",
          "type": "uint64"
        },
        {
          "internalType": "uint64",
          "name": "_endTime",
          "type": "uint64"
        }
      ],
      "name": "createBooking",
      "outputs": [
        {
          "internalType": "uint256",
          "name": "",
          "type": "uint256"
        }
      ],
      "stateMutability": "payable",
      "type": "function",
      "payable": true
    },
    {
      "inputs": [
        {
          "internalType": "uint256",
          "name": "_listingId",
          "type": "uint256"
        },
        {
          "internalType": "uint256",
          "name": "_dateTime",
          "type": "uint256"
        }
      ],
      "name": "getBookingOnDate",
      "outputs": [
        {
          "internalType": "uint256",
          "name": "",
          "type": "uint256"
        }
      ],
      "stateMutability": "view",
      "type": "function",
      "constant": true
    },
    {
      "inputs": [
        {
          "internalType": "uint256",
          "name": "_listingId",
          "type": "uint256"
        },
        {
          "internalType": "uint256",
          "name": "_startTime",
          "type": "uint256"
        },
        {
          "internalType": "uint256",
          "name": "_endTime",
          "type": "uint256"
        }
      ],
      "name": "getBookingsInRange",
      "outputs": [
        {
          "internalType": "uint256[]",
          "name": "",
          "type": "uint256[]"
        }
      ],
      "stateMutability": "view",
      "type": "function",
      "constant": true
    },
    {
      "inputs": [
        {
          "internalType": "uint256",
          "name": "_bookingId",
          "type": "uint256"
        }
      ],
      "name": "getBookingStart",
      "outputs": [
        {
          "internalType": "uint64",
          "name": "",
          "type": "uint64"
        }
      ],
      "stateMutability": "view",
      "type": "function",
      "constant": true
    },
    {
      "inputs": [
        {
          "internalType": "uint256",
          "name": "_bookingId",
          "type": "uint256"
        }
      ],
      "name": "getBookingEnd",
      "outputs": [
        {
          "internalType": "uint64",
          "name": "",
          "type": "uint64"
        }
      ],
      "stateMutability": "view",
      "type": "function",
      "constant": true
    },
    {
      "inputs": [
        {
          "internalType": "uint256",
          "name": "_bookingId",
          "type": "uint256"
        }
      ],
      "name": "getBookingOwner",
      "outputs": [
        {
          "internalType": "address",
          "name": "",
          "type": "address"
        }
      ],
      "stateMutability": "view",
      "type": "function",
      "constant": true
    }
  ],
  "bytecode": "0x608060405262015180600055600060015560016002556040518060400160405280600f81526020017f426f6f6b696e67204d616e6167657200000000000000000000000000000000008152506003908051906020019062000062929190620000de565b503480156200007057600080fd5b50604051620013b2380380620013b28339818101604052810190620000969190620001a5565b80600560006101000a81548173ffffffffffffffffffffffffffffffffffffffff021916908373ffffffffffffffffffffffffffffffffffffffff16021790555050620002a3565b828054620000ec906200021f565b90600052602060002090601f0160209004810192826200011057600085556200015c565b82601f106200012b57805160ff19168380011785556200015c565b828001600101855582156200015c579182015b828111156200015b5782518255916020019190600101906200013e565b5b5090506200016b91906200016f565b5090565b5b808211156200018a57600081600090555060010162000170565b5090565b6000815190506200019f8162000289565b92915050565b600060208284031215620001be57620001bd62000284565b5b6000620001ce848285016200018e565b91505092915050565b6000620001e482620001ff565b9050919050565b6000620001f882620001d7565b9050919050565b600073ffffffffffffffffffffffffffffffffffffffff82169050919050565b600060028204905060018216806200023857607f821691505b602082108114156200024f576200024e62000255565b5b50919050565b7f4e487b7100000000000000000000000000000000000000000000000000000000600052602260045260246000fd5b600080fd5b6200029481620001eb565b8114620002a057600080fd5b50565b6110ff80620002b36000396000f3fe6080604052600436106100915760003560e01c80633748fecc116100595780633748fecc1461018457806392711799146101c15780639a316bdd146101fe578063f065d2721461023b578063f0865d261461027857610091565b806306fdde03146100965780630ba4be3d146100c157806311cc82d8146100ec5780631a882e2b146101175780631f8a2a2d14610147575b600080fd5b3480156100a257600080fd5b506100ab6102b5565b6040516100b89190610ca2565b60405180910390f35b3480156100cd57600080fd5b506100d6610343565b6040516100e39190610cdf565b60405180910390f35b3480156100f857600080fd5b50610101610349565b60405161010e9190610cdf565b60405180910390f35b610131600480360381019061012c9190610b18565b61034f565b60405161013e9190610cdf565b60405180910390f35b34801561015357600080fd5b5061016e60048036038101906101699190610a2b565b6105e3565b60405161017b9190610d5a565b60405180910390f35b34801561019057600080fd5b506101ab60048036038101906101a691906109fe565b610617565b6040516101b89190610cdf565b60405180910390f35b3480156101cd57600080fd5b506101e860048036038101906101e39190610a85565b61062f565b6040516101f59190610cdf565b60405180910390f35b34801561020a57600080fd5b5061022560048036038101906102209190610ac5565b6106c7565b6040516102329190610c80565b60405180910390f35b34801561024757600080fd5b50610262600480360381019061025d9190610a2b565b610821565b60405161026f9190610d5a565b60405180910390f35b34801561028457600080fd5b5061029f600480360381019061029a9190610a2b565b610855565b6040516102ac9190610c65565b60405180910390f35b600380546102c290610f08565b80601f01602080910402602001604051908101604052809291908181526020018280546102ee90610f08565b801561033b5780601f106103105761010080835404028352916020019161033b565b820191906000526020600020905b81548152906001019060200180831161031e57829003601f168201915b505050505081565b60015481565b60025481565b60008267ffffffffffffffff168267ffffffffffffffff1673__DateTime______________________________6370ffa43183836040518363ffffffff1660e01b81526004016103a0929190610cfa565b60006040518083038186803b1580156103b857600080fd5b505af41580156103cc573d6000803e3d6000fd5b505050506000600260008154809291906103e590610f3a565b9190505590506000600560009054906101000a900473ffffffffffffffffffffffffffffffffffffffff1673ffffffffffffffffffffffffffffffffffffffff1663ebd915188989896040518463ffffffff1660e01b815260040161044c93929190610d23565b60206040518083038186803b15801561046457600080fd5b505afa158015610478573d6000803e3d6000fd5b505050506040513d601f19601f8201168201806040525081019061049c9190610a58565b90508034146104aa57600080fd5b80600660003373ffffffffffffffffffffffffffffffffffffffff1673ffffffffffffffffffffffffffffffffffffffff16815260200190815260200160002060008282546104f99190610dca565b925050819055506000600460008481526020019081526020016000209050878160000160006101000a81548167ffffffffffffffff021916908367ffffffffffffffff160217905550868160000160086101000a81548167ffffffffffffffff021916908367ffffffffffffffff160217905550338160010160006101000a81548173ffffffffffffffffffffffffffffffffffffffff021916908373ffffffffffffffffffffffffffffffffffffffff1602179055506105bc89898986610895565b600160008154809291906105cf90610f3a565b919050555082955050505050509392505050565b60006004600083815260200190815260200160002060000160089054906101000a900467ffffffffffffffff169050919050565b60066020528060005260406000206000915090505481565b60008173__DateTime______________________________63d7bcad9a826040518263ffffffff1660e01b81526004016106699190610cc4565b60006040518083038186803b15801561068157600080fd5b505af4158015610695573d6000803e3d6000fd5b505050506007600085815260200190815260200160002060008481526020019081526020016000205491505092915050565b6060828273__DateTime______________________________6370ffa43183836040518363ffffffff1660e01b8152600401610704929190610cfa565b60006040518083038186803b15801561071c57600080fd5b505af4158015610730573d6000803e3d6000fd5b505050506000600160005487876107479190610e51565b6107519190610e20565b61075b9190610dca565b905060008167ffffffffffffffff8111156107795761077861103f565b5b6040519080825280602002602001820160405280156107a75781602001602082028036833780820191505090505b50905060008790505b868111610812576000805489836107c79190610e51565b6107d19190610e20565b90506107dd8a8361062f565b8382815181106107f0576107ef611010565b5b6020026020010181815250506000548261080a9190610dca565b9150506107b0565b81955050505050509392505050565b60006004600083815260200190815260200160002060000160009054906101000a900467ffffffffffffffff169050919050565b60006004600083815260200190815260200160002060010160009054906101000a900473ffffffffffffffffffffffffffffffffffffffff169050919050565b8267ffffffffffffffff168267ffffffffffffffff1673__DateTime______________________________6370ffa43183836040518363ffffffff1660e01b81526004016108e4929190610cfa565b60006040518083038186803b1580156108fc57600080fd5b505af4158015610910573d6000803e3d6000fd5b5050505060008567ffffffffffffffff1690505b8467ffffffffffffffff1681116109a157600060076000898152602001908152602001600020600083815260200190815260200160002054141561098c5783600760008981526020019081526020016000206000838152602001908152602001600020819055505b6000548161099a9190610dca565b9050610924565b50505050505050565b6000813590506109b981611084565b92915050565b6000813590506109ce8161109b565b92915050565b6000815190506109e38161109b565b92915050565b6000813590506109f8816110b2565b92915050565b600060208284031215610a1457610a1361106e565b5b6000610a22848285016109aa565b91505092915050565b600060208284031215610a4157610a4061106e565b5b6000610a4f848285016109bf565b91505092915050565b600060208284031215610a6e57610a6d61106e565b5b6000610a7c848285016109d4565b91505092915050565b60008060408385031215610a9c57610a9b61106e565b5b6000610aaa858286016109bf565b9250506020610abb858286016109bf565b9150509250929050565b600080600060608486031215610ade57610add61106e565b5b6000610aec868287016109bf565b9350506020610afd868287016109bf565b9250506040610b0e868287016109bf565b9150509250925092565b600080600060608486031215610b3157610b3061106e565b5b6000610b3f868287016109bf565b9350506020610b50868287016109e9565b9250506040610b61868287016109e9565b9150509250925092565b6000610b778383610c29565b60208301905092915050565b610b8c81610e85565b82525050565b6000610b9d82610d85565b610ba78185610da8565b9350610bb283610d75565b8060005b83811015610be3578151610bca8882610b6b565b9750610bd583610d9b565b925050600181019050610bb6565b5085935050505092915050565b6000610bfb82610d90565b610c058185610db9565b9350610c15818560208601610ed5565b610c1e81611073565b840191505092915050565b610c3281610eb7565b82525050565b610c4181610eb7565b82525050565b610c5081610eb7565b82525050565b610c5f81610ec1565b82525050565b6000602082019050610c7a6000830184610b83565b92915050565b60006020820190508181036000830152610c9a8184610b92565b905092915050565b60006020820190508181036000830152610cbc8184610bf0565b905092915050565b6000602082019050610cd96000830184610c47565b92915050565b6000602082019050610cf46000830184610c38565b92915050565b6000604082019050610d0f6000830185610c47565b610d1c6020830184610c47565b9392505050565b6000606082019050610d386000830186610c38565b610d456020830185610c56565b610d526040830184610c56565b949350505050565b6000602082019050610d6f6000830184610c56565b92915050565b6000819050602082019050919050565b600081519050919050565b600081519050919050565b6000602082019050919050565b600082825260208201905092915050565b600082825260208201905092915050565b6000610dd582610eb7565b9150610de083610eb7565b9250827fffffffffffffffffffffffffffffffffffffffffffffffffffffffffffffffff03821115610e1557610e14610f83565b5b828201905092915050565b6000610e2b82610eb7565b9150610e3683610eb7565b925082610e4657610e45610fb2565b5b828204905092915050565b6000610e5c82610eb7565b9150610e6783610eb7565b925082821015610e7a57610e79610f83565b5b828203905092915050565b6000610e9082610e97565b9050919050565b600073ffffffffffffffffffffffffffffffffffffffff82169050919050565b6000819050919050565b600067ffffffffffffffff82169050919050565b60005b83811015610ef3578082015181840152602081019050610ed8565b83811115610f02576000848401525b50505050565b60006002820490506001821680610f2057607f821691505b60208210811415610f3457610f33610fe1565b5b50919050565b6000610f4582610eb7565b91507fffffffffffffffffffffffffffffffffffffffffffffffffffffffffffffffff821415610f7857610f77610f83565b5b600182019050919050565b7f4e487b7100000000000000000000000000000000000000000000000000000000600052601160045260246000fd5b7f4e487b7100000000000000000000000000000000000000000000000000000000600052601260045260246000fd5b7f4e487b7100000000000000000000000000000000000000000000000000000000600052602260045260246000fd5b7f4e487b7100000000000000000000000000000000000000000000000000000000600052603260045260246000fd5b7f4e487b7100000000000000000000000000000000000000000000000000000000600052604160045260246000fd5b600080fd5b6000601f19601f8301169050919050565b61108d81610e85565b811461109857600080fd5b50565b6110a481610eb7565b81146110af57600080fd5b50565b6110bb81610ec1565b81146110c657600080fd5b5056fea2646970667358221220811c2a2abbcc398e59aa313befa66185877234a3eb801a15a98a9a2ff4b9f1ab64736f6c63430008050033",
  "immutableReferences": {},
  "source": "// SPDX-License-Identifier: UNLICENSED\npragma solidity ^0.8.0;\n\nimport \"./structs/Booking.sol\";\nimport \"./Manager.sol\";\nimport \"./ListingManager.sol\";\n\ncontract BookingManager is Manager {\n    uint public numOfBookings = 0;\n    uint public bookingIndex = 1; // bookings start at index 1\n    string public name = \"Booking Manager\";\n\n    mapping(uint => Booking) bookings;\n    ListingManager listingManager;\n    mapping(address => uint) public guestEscrow;\n\n    // maps a given listing ID (key) to a mapping ZZ.\n    // The keys of ZZ are epoch times (at midnight) which map to a booking ID (the value)\n    mapping(uint => mapping(uint => uint)) listingsToBookingDates;\n\n    constructor(ListingManager _listingManager) {\n        listingManager = _listingManager;\n    }\n\n    function createBooking(uint _listingId, uint64 _startTime, uint64 _endTime) public isAtMidnight2(_startTime, _endTime) payable returns (uint) {\n        uint bookingId = bookingIndex++;\n\n        uint expectedPrice = listingManager.determinePrice(_listingId, _startTime, _endTime);\n\n        // check that the amount sent is equal to the expected price\n        require(msg.value == expectedPrice);\n\n        guestEscrow[msg.sender] += expectedPrice;\n\n        Booking storage newBooking = bookings[bookingId];\n        newBooking.startEpochTime = _startTime;\n        newBooking.endEpochTime = _endTime;\n        newBooking.owner = msg.sender;\n\n        addBookingDatesToListing(_listingId, _startTime, _endTime, bookingId);\n        numOfBookings++;\n\n        return bookingId;\n    }\n\n    function addBookingDatesToListing(uint _listingId, uint64 _startTime, uint64 _endTime, uint _bookingId) private isAtMidnight2(_startTime, _endTime) {\n        uint timeCursor = _startTime;\n\n        while (timeCursor <= _endTime) {\n            // If the listing has no booking for the given date\n            if (listingsToBookingDates[_listingId][timeCursor] == 0) {\n                listingsToBookingDates[_listingId][timeCursor] = _bookingId;\n            }\n            timeCursor += secsInDay;\n        }\n    }\n\n    function getBookingOnDate(uint _listingId, uint _dateTime) public view isAtMidnight(_dateTime) returns (uint) {\n        return listingsToBookingDates[_listingId][_dateTime];\n    }\n\n    function getBookingsInRange(uint _listingId, uint _startTime, uint _endTime) public view isAtMidnight2(_startTime, _endTime) returns (uint[] memory) {\n        uint numberOfPossibleBookings = ((_endTime - _startTime) / secsInDay) + 1;\n        uint[] memory bookingSubset = new uint[](numberOfPossibleBookings);\n\n        uint timeCursor = _startTime;\n\n        while (timeCursor <= _endTime) {\n            uint i = (timeCursor - _startTime) / secsInDay;\n            bookingSubset[i] = getBookingOnDate(_listingId, timeCursor);\n            timeCursor += secsInDay;\n        }\n\n        return bookingSubset;\n    }\n\n    function getBookingStart(uint _bookingId) public view returns (uint64) {\n        return bookings[_bookingId].startEpochTime;\n    }\n\n    function getBookingEnd(uint _bookingId) public view returns (uint64) {\n        return bookings[_bookingId].endEpochTime;\n    }\n\n    function getBookingOwner(uint _bookingId) public view returns (address) {\n        return bookings[_bookingId].owner;\n    }\n}\n",
  "sourcePath": "/Users/ian/Code/eth_contracts/yumebnb/yume_contracts/src/contracts/BookingManager.sol",
  "compiler": {
    "name": "solc",
    "version": "0.8.5+commit.a4f2e591.Emscripten.clang"
  },
  "schemaVersion": "3.4.1",
  "updatedAt": "2021-07-20T05:05:04.137Z",
  "networkType": "ethereum",
  "devdoc": {
    "kind": "dev",
    "methods": {},
    "version": 1
  },
  "userdoc": {
    "kind": "user",
    "methods": {},
    "version": 1
  }
}