{
  "contractName": "BookingManager",
  "abi": [
    {
      "inputs": [],
      "name": "bookingIndex",
      "outputs": [
        {
          "internalType": "uint256",
          "name": "",
          "type": "uint256"
        }
      ],
      "stateMutability": "view",
      "type": "function"
    },
    {
      "inputs": [],
      "name": "name",
      "outputs": [
        {
          "internalType": "string",
          "name": "",
          "type": "string"
        }
      ],
      "stateMutability": "view",
      "type": "function"
    },
    {
      "inputs": [],
      "name": "numOfBookings",
      "outputs": [
        {
          "internalType": "uint256",
          "name": "",
          "type": "uint256"
        }
      ],
      "stateMutability": "view",
      "type": "function"
    },
    {
      "inputs": [
        {
          "internalType": "uint256",
          "name": "_listingId",
          "type": "uint256"
        },
        {
          "internalType": "uint64",
          "name": "_startTime",
          "type": "uint64"
        },
        {
          "internalType": "uint64",
          "name": "_endTime",
          "type": "uint64"
        }
      ],
      "name": "createBooking",
      "outputs": [
        {
          "internalType": "uint256",
          "name": "",
          "type": "uint256"
        }
      ],
      "stateMutability": "nonpayable",
      "type": "function"
    },
    {
      "inputs": [
        {
          "internalType": "uint256",
          "name": "_listingId",
          "type": "uint256"
        },
        {
          "internalType": "uint256",
          "name": "_dateTime",
          "type": "uint256"
        }
      ],
      "name": "getBookingOnDate",
      "outputs": [
        {
          "internalType": "uint256",
          "name": "",
          "type": "uint256"
        }
      ],
      "stateMutability": "view",
      "type": "function"
    },
    {
      "inputs": [
        {
          "internalType": "uint256",
          "name": "_listingId",
          "type": "uint256"
        },
        {
          "internalType": "uint256",
          "name": "_startTime",
          "type": "uint256"
        },
        {
          "internalType": "uint256",
          "name": "_endTime",
          "type": "uint256"
        }
      ],
      "name": "getBookingsInRange",
      "outputs": [
        {
          "internalType": "uint256[]",
          "name": "",
          "type": "uint256[]"
        }
      ],
      "stateMutability": "view",
      "type": "function"
    },
    {
      "inputs": [
        {
          "internalType": "uint256",
          "name": "_bookingId",
          "type": "uint256"
        }
      ],
      "name": "getBookingStart",
      "outputs": [
        {
          "internalType": "uint64",
          "name": "",
          "type": "uint64"
        }
      ],
      "stateMutability": "view",
      "type": "function"
    },
    {
      "inputs": [
        {
          "internalType": "uint256",
          "name": "_bookingId",
          "type": "uint256"
        }
      ],
      "name": "getBookingEnd",
      "outputs": [
        {
          "internalType": "uint64",
          "name": "",
          "type": "uint64"
        }
      ],
      "stateMutability": "view",
      "type": "function"
    },
    {
      "inputs": [
        {
          "internalType": "uint256",
          "name": "_bookingId",
          "type": "uint256"
        }
      ],
      "name": "getBookingOwner",
      "outputs": [
        {
          "internalType": "address",
          "name": "",
          "type": "address"
        }
      ],
      "stateMutability": "view",
      "type": "function"
    }
  ],
  "bytecode": "0x608060405262015180600055600060025560016003556040518060400160405280600f81526020017f426f6f6b696e67204d616e616765720000000000000000000000000000000000815250600490805190602001906200006292919062000077565b503480156200007057600080fd5b506200018c565b828054620000859062000127565b90600052602060002090601f016020900481019282620000a95760008555620000f5565b82601f10620000c457805160ff1916838001178555620000f5565b82800160010185558215620000f5579182015b82811115620000f4578251825591602001919060010190620000d7565b5b50905062000104919062000108565b5090565b5b808211156200012357600081600090555060010162000109565b5090565b600060028204905060018216806200014057607f821691505b602082108114156200015757620001566200015d565b5b50919050565b7f4e487b7100000000000000000000000000000000000000000000000000000000600052602260045260246000fd5b610e5c806200019c6000396000f3fe608060405234801561001057600080fd5b50600436106100935760003560e01c80631f8a2a2d116100665780631f8a2a2d1461012257806392711799146101525780639a316bdd14610182578063f065d272146101b2578063f0865d26146101e257610093565b806306fdde03146100985780630ba4be3d146100b657806311cc82d8146100d45780631a882e2b146100f2575b600080fd5b6100a0610212565b6040516100ad9190610a4d565b60405180910390f35b6100be6102a0565b6040516100cb9190610a8a565b60405180910390f35b6100dc6102a6565b6040516100e99190610a8a565b60405180910390f35b61010c600480360381019061010791906108c3565b6102ac565b6040516101199190610a8a565b60405180910390f35b61013c60048036038101906101379190610803565b61042a565b6040516101499190610ace565b60405180910390f35b61016c60048036038101906101679190610830565b61045e565b6040516101799190610a8a565b60405180910390f35b61019c60048036038101906101979190610870565b6104f6565b6040516101a99190610a2b565b60405180910390f35b6101cc60048036038101906101c79190610803565b610650565b6040516101d99190610ace565b60405180910390f35b6101fc60048036038101906101f79190610803565b610684565b6040516102099190610a10565b60405180910390f35b6004805461021f90610c7c565b80601f016020809104026020016040519081016040528092919081815260200182805461024b90610c7c565b80156102985780601f1061026d57610100808354040283529160200191610298565b820191906000526020600020905b81548152906001019060200180831161027b57829003601f168201915b505050505081565b60025481565b60035481565b60008267ffffffffffffffff168267ffffffffffffffff1673__DateTime______________________________6370ffa43183836040518363ffffffff1660e01b81526004016102fd929190610aa5565b60006040518083038186803b15801561031557600080fd5b505af4158015610329573d6000803e3d6000fd5b5050505060006003600081548092919061034290610cae565b9190505590506000600160008381526020019081526020016000209050868160000160006101000a81548167ffffffffffffffff021916908367ffffffffffffffff160217905550858160000160086101000a81548167ffffffffffffffff021916908367ffffffffffffffff160217905550338160010160006101000a81548173ffffffffffffffffffffffffffffffffffffffff021916908373ffffffffffffffffffffffffffffffffffffffff160217905550610404888888856106c4565b6002600081548092919061041790610cae565b9190505550819450505050509392505050565b60006001600083815260200190815260200160002060000160089054906101000a900467ffffffffffffffff169050919050565b60008173__DateTime______________________________63d7bcad9a826040518263ffffffff1660e01b81526004016104989190610a6f565b60006040518083038186803b1580156104b057600080fd5b505af41580156104c4573d6000803e3d6000fd5b505050506005600085815260200190815260200160002060008481526020019081526020016000205491505092915050565b6060828273__DateTime______________________________6370ffa43183836040518363ffffffff1660e01b8152600401610533929190610aa5565b60006040518083038186803b15801561054b57600080fd5b505af415801561055f573d6000803e3d6000fd5b505050506000600160005487876105769190610bc5565b6105809190610b94565b61058a9190610b3e565b905060008167ffffffffffffffff8111156105a8576105a7610db3565b5b6040519080825280602002602001820160405280156105d65781602001602082028036833780820191505090505b50905060008790505b868111610641576000805489836105f69190610bc5565b6106009190610b94565b905061060c8a8361045e565b83828151811061061f5761061e610d84565b5b602002602001018181525050600054826106399190610b3e565b9150506105df565b81955050505050509392505050565b60006001600083815260200190815260200160002060000160009054906101000a900467ffffffffffffffff169050919050565b60006001600083815260200190815260200160002060010160009054906101000a900473ffffffffffffffffffffffffffffffffffffffff169050919050565b8267ffffffffffffffff168267ffffffffffffffff1673__DateTime______________________________6370ffa43183836040518363ffffffff1660e01b8152600401610713929190610aa5565b60006040518083038186803b15801561072b57600080fd5b505af415801561073f573d6000803e3d6000fd5b5050505060008567ffffffffffffffff1690505b8467ffffffffffffffff1681116107d05760006005600089815260200190815260200160002060008381526020019081526020016000205414156107bb5783600560008981526020019081526020016000206000838152602001908152602001600020819055505b600054816107c99190610b3e565b9050610753565b50505050505050565b6000813590506107e881610df8565b92915050565b6000813590506107fd81610e0f565b92915050565b60006020828403121561081957610818610de2565b5b6000610827848285016107d9565b91505092915050565b6000806040838503121561084757610846610de2565b5b6000610855858286016107d9565b9250506020610866858286016107d9565b9150509250929050565b60008060006060848603121561088957610888610de2565b5b6000610897868287016107d9565b93505060206108a8868287016107d9565b92505060406108b9868287016107d9565b9150509250925092565b6000806000606084860312156108dc576108db610de2565b5b60006108ea868287016107d9565b93505060206108fb868287016107ee565b925050604061090c868287016107ee565b9150509250925092565b600061092283836109d4565b60208301905092915050565b61093781610bf9565b82525050565b600061094882610af9565b6109528185610b1c565b935061095d83610ae9565b8060005b8381101561098e5781516109758882610916565b975061098083610b0f565b925050600181019050610961565b5085935050505092915050565b60006109a682610b04565b6109b08185610b2d565b93506109c0818560208601610c49565b6109c981610de7565b840191505092915050565b6109dd81610c2b565b82525050565b6109ec81610c2b565b82525050565b6109fb81610c2b565b82525050565b610a0a81610c35565b82525050565b6000602082019050610a25600083018461092e565b92915050565b60006020820190508181036000830152610a45818461093d565b905092915050565b60006020820190508181036000830152610a67818461099b565b905092915050565b6000602082019050610a8460008301846109f2565b92915050565b6000602082019050610a9f60008301846109e3565b92915050565b6000604082019050610aba60008301856109f2565b610ac760208301846109f2565b9392505050565b6000602082019050610ae36000830184610a01565b92915050565b6000819050602082019050919050565b600081519050919050565b600081519050919050565b6000602082019050919050565b600082825260208201905092915050565b600082825260208201905092915050565b6000610b4982610c2b565b9150610b5483610c2b565b9250827fffffffffffffffffffffffffffffffffffffffffffffffffffffffffffffffff03821115610b8957610b88610cf7565b5b828201905092915050565b6000610b9f82610c2b565b9150610baa83610c2b565b925082610bba57610bb9610d26565b5b828204905092915050565b6000610bd082610c2b565b9150610bdb83610c2b565b925082821015610bee57610bed610cf7565b5b828203905092915050565b6000610c0482610c0b565b9050919050565b600073ffffffffffffffffffffffffffffffffffffffff82169050919050565b6000819050919050565b600067ffffffffffffffff82169050919050565b60005b83811015610c67578082015181840152602081019050610c4c565b83811115610c76576000848401525b50505050565b60006002820490506001821680610c9457607f821691505b60208210811415610ca857610ca7610d55565b5b50919050565b6000610cb982610c2b565b91507fffffffffffffffffffffffffffffffffffffffffffffffffffffffffffffffff821415610cec57610ceb610cf7565b5b600182019050919050565b7f4e487b7100000000000000000000000000000000000000000000000000000000600052601160045260246000fd5b7f4e487b7100000000000000000000000000000000000000000000000000000000600052601260045260246000fd5b7f4e487b7100000000000000000000000000000000000000000000000000000000600052602260045260246000fd5b7f4e487b7100000000000000000000000000000000000000000000000000000000600052603260045260246000fd5b7f4e487b7100000000000000000000000000000000000000000000000000000000600052604160045260246000fd5b600080fd5b6000601f19601f8301169050919050565b610e0181610c2b565b8114610e0c57600080fd5b50565b610e1881610c35565b8114610e2357600080fd5b5056fea26469706673582212200a122061486d9d7155140e5e40d475ae14c7120e104867756416a4d3f0acd41764736f6c63430008050033",
  "immutableReferences": {},
  "source": "// SPDX-License-Identifier: UNLICENSED\npragma solidity ^0.8.0;\n\nimport \"./structs/Booking.sol\";\nimport \"./Manager.sol\";\n\ncontract BookingManager is Manager {\n    mapping(uint => Booking) bookings;\n    uint public numOfBookings = 0;\n    uint public bookingIndex = 1; // bookings start at index 1\n    string public name = \"Booking Manager\";\n\n    // maps a given listing ID (key) to a mapping ZZ.\n    // The keys of ZZ are epoch times (at midnight) which map to a booking ID (the value)\n    mapping(uint => mapping(uint => uint)) listingsToBookingDates;\n\n    function createBooking(uint _listingId, uint64 _startTime, uint64 _endTime) public isAtMidnight2(_startTime, _endTime) returns (uint) {\n        uint bookingId = bookingIndex++;\n\n        Booking storage newBooking = bookings[bookingId];\n        newBooking.startEpochTime = _startTime;\n        newBooking.endEpochTime = _endTime;\n        newBooking.owner = msg.sender;\n\n        addBookingDatesToListing(_listingId, _startTime, _endTime, bookingId);\n        numOfBookings++;\n\n        return bookingId;\n    }\n\n    function addBookingDatesToListing(uint _listingId, uint64 _startTime, uint64 _endTime, uint _bookingId) private isAtMidnight2(_startTime, _endTime) {\n        uint timeCursor = _startTime;\n\n        while (timeCursor <= _endTime) {\n            // If the listing has no booking for the given date\n            if (listingsToBookingDates[_listingId][timeCursor] == 0) {\n                listingsToBookingDates[_listingId][timeCursor] = _bookingId;\n            }\n            timeCursor += secsInDay;\n        }\n    }\n\n    function getBookingOnDate(uint _listingId, uint _dateTime) public view isAtMidnight(_dateTime) returns (uint) {\n        return listingsToBookingDates[_listingId][_dateTime];\n    }\n\n    function getBookingsInRange(uint _listingId, uint _startTime, uint _endTime) public view isAtMidnight2(_startTime, _endTime) returns (uint[] memory) {\n        uint numberOfPossibleBookings = ((_endTime - _startTime) / secsInDay) + 1;\n        uint[] memory bookingSubset = new uint[](numberOfPossibleBookings);\n\n        uint timeCursor = _startTime;\n\n        while (timeCursor <= _endTime) {\n            uint i = (timeCursor - _startTime) / secsInDay;\n            bookingSubset[i] = getBookingOnDate(_listingId, timeCursor);\n            timeCursor += secsInDay;\n        }\n\n        return bookingSubset;\n    }\n\n    function getBookingStart(uint _bookingId) public view returns (uint64) {\n        return bookings[_bookingId].startEpochTime;\n    }\n\n    function getBookingEnd(uint _bookingId) public view returns (uint64) {\n        return bookings[_bookingId].endEpochTime;\n    }\n\n    function getBookingOwner(uint _bookingId) public view returns (address) {\n        return bookings[_bookingId].owner;\n    }\n}\n",
  "sourcePath": "/Users/ian/Code/eth_contracts/yumebnb/yume_contracts/src/contracts/BookingManager.sol",
  "compiler": {
    "name": "solc",
    "version": "0.8.5+commit.a4f2e591.Emscripten.clang"
  },
  "schemaVersion": "3.4.1",
  "updatedAt": "2021-07-18T23:20:13.240Z",
  "devdoc": {
    "kind": "dev",
    "methods": {},
    "version": 1
  },
  "userdoc": {
    "kind": "user",
    "methods": {},
    "version": 1
  }
}