{
  "contractName": "BookingManager",
  "abi": [
    {
      "inputs": [],
      "name": "numOfBookings",
      "outputs": [
        {
          "internalType": "uint256",
          "name": "",
          "type": "uint256"
        }
      ],
      "stateMutability": "view",
      "type": "function",
      "constant": true
    },
    {
      "inputs": [
        {
          "internalType": "uint256",
          "name": "_listingId",
          "type": "uint256"
        },
        {
          "internalType": "uint64",
          "name": "_startTime",
          "type": "uint64"
        },
        {
          "internalType": "uint64",
          "name": "_endTime",
          "type": "uint64"
        }
      ],
      "name": "createBooking",
      "outputs": [
        {
          "internalType": "uint256",
          "name": "",
          "type": "uint256"
        }
      ],
      "stateMutability": "nonpayable",
      "type": "function"
    }
  ],
  "bytecode": "0x608060405262015180600055600060025534801561001c57600080fd5b506105108061002c6000396000f3fe608060405234801561001057600080fd5b50600436106100365760003560e01c80630ba4be3d1461003b5780631a882e2b14610059575b600080fd5b610043610089565b6040516100509190610377565b60405180910390f35b610073600480360381019061006e9190610306565b61008f565b6040516100809190610377565b60405180910390f35b60025481565b60008267ffffffffffffffff168267ffffffffffffffff1673__DateTime______________________________6370ffa43183836040518363ffffffff1660e01b81526004016100e0929190610392565b60006040518083038186803b1580156100f857600080fd5b505af415801561010c573d6000803e3d6000fd5b505050506000600260008154809291906101259061042f565b9190505590506000600160008381526020019081526020016000209050868160000160006101000a81548167ffffffffffffffff021916908367ffffffffffffffff160217905550868160000160086101000a81548167ffffffffffffffff021916908367ffffffffffffffff160217905550338160010160006101000a81548173ffffffffffffffffffffffffffffffffffffffff021916908373ffffffffffffffffffffffffffffffffffffffff1602179055506101e7888888856101f5565b819450505050509392505050565b8267ffffffffffffffff168267ffffffffffffffff1673__DateTime______________________________6370ffa43183836040518363ffffffff1660e01b8152600401610244929190610392565b60006040518083038186803b15801561025c57600080fd5b505af4158015610270573d6000803e3d6000fd5b5050505060008567ffffffffffffffff1690505b8467ffffffffffffffff1681116102d3578360036000898152602001908152602001600020600083815260200190815260200160002081905550600054816102cc91906103bb565b9050610284565b50505050505050565b6000813590506102eb816104ac565b92915050565b600081359050610300816104c3565b92915050565b60008060006060848603121561031f5761031e6104a7565b5b600061032d868287016102dc565b935050602061033e868287016102f1565b925050604061034f868287016102f1565b9150509250925092565b61036281610411565b82525050565b61037181610411565b82525050565b600060208201905061038c6000830184610359565b92915050565b60006040820190506103a76000830185610368565b6103b46020830184610368565b9392505050565b60006103c682610411565b91506103d183610411565b9250827fffffffffffffffffffffffffffffffffffffffffffffffffffffffffffffffff0382111561040657610405610478565b5b828201905092915050565b6000819050919050565b600067ffffffffffffffff82169050919050565b600061043a82610411565b91507fffffffffffffffffffffffffffffffffffffffffffffffffffffffffffffffff82141561046d5761046c610478565b5b600182019050919050565b7f4e487b7100000000000000000000000000000000000000000000000000000000600052601160045260246000fd5b600080fd5b6104b581610411565b81146104c057600080fd5b50565b6104cc8161041b565b81146104d757600080fd5b5056fea2646970667358221220bce788734995780aba7b7b2bdf9d2fe0906fb9a983e37125a5822fb5db34124564736f6c63430008050033",
  "immutableReferences": {},
  "source": "// SPDX-License-Identifier: UNLICENSED\npragma solidity ^0.8.0;\n\nimport './structs/Booking.sol';\nimport \"./Manager.sol\";\n\ncontract BookingManager is Manager {\n    mapping(uint => Booking) bookings;\n    uint public numOfBookings = 0;\n\n    // maps a given listing ID (key) to a mapping ZZ.\n    // The keys of ZZ are epoch times (at midnight) which map to a booking ID (the value)\n    mapping(uint => mapping(uint => uint)) listingsToBookingDates;\n\n    function createBooking(uint _listingId, uint64 _startTime, uint64 _endTime) public isAtMidnight(_startTime, _endTime) returns (uint) {\n        uint bookingId = numOfBookings++;\n\n        Booking storage newBooking = bookings[bookingId];\n        newBooking.startEpochTime = _startTime;\n        newBooking.endEpochTime = _startTime;\n        newBooking.owner = msg.sender;\n\n        addBookingDatesToListing(_listingId, _startTime, _endTime, bookingId);\n\n        return bookingId;\n    }\n\n    function addBookingDatesToListing(uint _listingId, uint64 _startTime, uint64 _endTime, uint _bookingId) private isAtMidnight(_startTime, _endTime) {\n        uint timeCursor = _startTime;\n\n        while (timeCursor <= _endTime) {\n            listingsToBookingDates[_listingId][timeCursor] = _bookingId;\n            timeCursor += secsInDay;\n        }\n    }\n}\n",
  "sourcePath": "/Users/ian/Code/eth_contracts/yumebnb/yume_contracts/src/contracts/BookingManager.sol",
  "compiler": {
    "name": "solc",
    "version": "0.8.5+commit.a4f2e591.Emscripten.clang"
  },
  "schemaVersion": "3.4.1",
  "updatedAt": "2021-07-08T22:38:16.614Z",
  "networkType": "ethereum",
  "devdoc": {
    "kind": "dev",
    "methods": {},
    "version": 1
  },
  "userdoc": {
    "kind": "user",
    "methods": {},
    "version": 1
  }
}