{
  "contractName": "DateTime",
  "abi": [
    {
      "inputs": [
        {
          "internalType": "uint256",
          "name": "_time1",
          "type": "uint256"
        },
        {
          "internalType": "uint256",
          "name": "_time2",
          "type": "uint256"
        }
      ],
      "name": "verifyMidnight",
      "outputs": [],
      "stateMutability": "pure",
      "type": "function",
      "constant": true
    }
  ],
  "bytecode": "0x6101a4610053600b82828239805160001a607314610046577f4e487b7100000000000000000000000000000000000000000000000000000000600052600060045260246000fd5b30600052607381538281f3fe73000000000000000000000000000000000000000030146080604052600436106100355760003560e01c806370ffa4311461003a575b600080fd5b610054600480360381019061004f91906100a8565b610056565b005b60006201518090506000818461006c91906100f2565b1461007657600080fd5b6000818361008491906100f2565b1461008e57600080fd5b505050565b6000813590506100a281610157565b92915050565b600080604083850312156100bf576100be610152565b5b60006100cd85828601610093565b92505060206100de85828601610093565b9150509250929050565b6000819050919050565b60006100fd826100e8565b9150610108836100e8565b92508261011857610117610123565b5b828206905092915050565b7f4e487b7100000000000000000000000000000000000000000000000000000000600052601260045260246000fd5b600080fd5b610160816100e8565b811461016b57600080fd5b5056fea264697066735822122085556b8ad1886b30184df44020b0947429e26666bc2127fc2c77d128219c7bcb64736f6c63430008050033",
  "immutableReferences": {},
  "source": "// SPDX-License-Identifier: UNLICENSED\npragma solidity ^0.8.0;\n\nlibrary DateTime {\n    // Verifies that both times occur at midnight of any day\n    // _time1: epoch time\n    // _time2: epoch time\n    function verifyMidnight(uint _time1, uint _time2) public pure {\n        uint secsInDay = 86400;\n\n        require(_time1 % secsInDay == 0);\n        require(_time2 % secsInDay == 0);\n    }\n}\n",
  "sourcePath": "/Users/ian/Code/eth_contracts/yumebnb/yume_contracts/src/contracts/libraries/DateTime.sol",
  "compiler": {
    "name": "solc",
    "version": "0.8.5+commit.a4f2e591.Emscripten.clang"
  },
  "schemaVersion": "3.4.1",
  "updatedAt": "2021-07-08T22:38:16.617Z",
  "networkType": "ethereum",
  "devdoc": {
    "kind": "dev",
    "methods": {},
    "version": 1
  },
  "userdoc": {
    "kind": "user",
    "methods": {},
    "version": 1
  }
}