{
  "contractName": "DateTime",
  "abi": [
    {
      "inputs": [
        {
          "internalType": "uint256",
          "name": "_time1",
          "type": "uint256"
        },
        {
          "internalType": "uint256",
          "name": "_time2",
          "type": "uint256"
        }
      ],
      "name": "verifyMidnight",
      "outputs": [],
      "stateMutability": "pure",
      "type": "function"
    },
    {
      "inputs": [
        {
          "internalType": "uint256",
          "name": "_time1",
          "type": "uint256"
        }
      ],
      "name": "verifyMidnight",
      "outputs": [],
      "stateMutability": "pure",
      "type": "function"
    }
  ],
  "bytecode": "0x61021c610053600b82828239805160001a607314610046577f4e487b7100000000000000000000000000000000000000000000000000000000600052600060045260246000fd5b30600052607381538281f3fe73000000000000000000000000000000000000000030146080604052600436106100405760003560e01c806370ffa43114610045578063d7bcad9a14610061575b600080fd5b61005f600480360381019061005a9190610120565b61007d565b005b61007b600480360381019061007691906100f3565b6100ba565b005b600062015180905060008184610093919061016a565b1461009d57600080fd5b600081836100ab919061016a565b146100b557600080fd5b505050565b6000620151809050600081836100d0919061016a565b146100da57600080fd5b5050565b6000813590506100ed816101cf565b92915050565b600060208284031215610109576101086101ca565b5b6000610117848285016100de565b91505092915050565b60008060408385031215610137576101366101ca565b5b6000610145858286016100de565b9250506020610156858286016100de565b9150509250929050565b6000819050919050565b600061017582610160565b915061018083610160565b9250826101905761018f61019b565b5b828206905092915050565b7f4e487b7100000000000000000000000000000000000000000000000000000000600052601260045260246000fd5b600080fd5b6101d881610160565b81146101e357600080fd5b5056fea26469706673582212204562862317084191104f0c906460f8a0b6c005df2da358475a6ab1ded52cafaf64736f6c63430008050033",
  "immutableReferences": {},
  "source": "// SPDX-License-Identifier: UNLICENSED\npragma solidity ^0.8.0;\n\nlibrary DateTime {\n    // Verifies that both times occur at midnight of any day\n    // _time1: epoch time\n    // _time2: epoch time\n    function verifyMidnight(uint _time1, uint _time2) public pure {\n        uint secsInDay = 86400;\n\n        require(_time1 % secsInDay == 0);\n        require(_time2 % secsInDay == 0);\n    }\n\n    // Verifies that both times occur at midnight of any day\n    // _time1: epoch time\n    function verifyMidnight(uint _time1) public pure {\n        uint secsInDay = 86400;\n\n        require(_time1 % secsInDay == 0);\n    }\n}\n",
  "sourcePath": "/Users/ian/Code/eth_contracts/yumebnb/yume_contracts/src/contracts/libraries/DateTime.sol",
  "compiler": {
    "name": "solc",
    "version": "0.8.5+commit.a4f2e591.Emscripten.clang"
  },
  "schemaVersion": "3.4.1",
  "updatedAt": "2021-07-14T03:47:32.038Z",
  "devdoc": {
    "kind": "dev",
    "methods": {},
    "version": 1
  },
  "userdoc": {
    "kind": "user",
    "methods": {},
    "version": 1
  }
}