{
  "contractName": "DateTime",
  "abi": [
    {
      "inputs": [
        {
          "internalType": "uint256",
          "name": "_time1",
          "type": "uint256"
        },
        {
          "internalType": "uint256",
          "name": "_time2",
          "type": "uint256"
        }
      ],
      "name": "verifyMidnight",
      "outputs": [],
      "stateMutability": "pure",
      "type": "function",
      "constant": true
    },
    {
      "inputs": [
        {
          "internalType": "uint256",
          "name": "_time1",
          "type": "uint256"
        }
      ],
      "name": "verifyMidnight",
      "outputs": [],
      "stateMutability": "pure",
      "type": "function",
      "constant": true
    }
  ],
  "bytecode": "0x61033b610053600b82828239805160001a607314610046577f4e487b7100000000000000000000000000000000000000000000000000000000600052600060045260246000fd5b30600052607381538281f3fe73000000000000000000000000000000000000000030146080604052600436106100405760003560e01c806370ffa43114610045578063d7bcad9a14610061575b600080fd5b61005f600480360381019061005a91906101c2565b61007d565b005b61007b60048036038101906100769190610195565b610126565b005b6000620151809050600081846100939190610260565b146100d3576040517f08c379a00000000000000000000000000000000000000000000000000000000081526004016100ca90610225565b60405180910390fd5b600081836100e19190610260565b14610121576040517f08c379a000000000000000000000000000000000000000000000000000000000815260040161011890610225565b60405180910390fd5b505050565b60006201518090506000818361013c9190610260565b1461017c576040517f08c379a000000000000000000000000000000000000000000000000000000000815260040161017390610225565b60405180910390fd5b5050565b60008135905061018f816102ee565b92915050565b6000602082840312156101ab576101aa6102c0565b5b60006101b984828501610180565b91505092915050565b600080604083850312156101d9576101d86102c0565b5b60006101e785828601610180565b92505060206101f885828601610180565b9150509250929050565b600061020f601883610245565b915061021a826102c5565b602082019050919050565b6000602082019050818103600083015261023e81610202565b9050919050565b600082825260208201905092915050565b6000819050919050565b600061026b82610256565b915061027683610256565b92508261028657610285610291565b5b828206905092915050565b7f4e487b7100000000000000000000000000000000000000000000000000000000600052601260045260246000fd5b600080fd5b7f74696d6520617267206e6f74206174206d69646e696768740000000000000000600082015250565b6102f781610256565b811461030257600080fd5b5056fea2646970667358221220a997e1bd1e67538b54bc21f33de8523abdde5a3fc87f2db31c00a51dc716168664736f6c63430008050033",
  "immutableReferences": {},
  "source": "// SPDX-License-Identifier: UNLICENSED\npragma solidity ^0.8.0;\n\nlibrary DateTime {\n    // Verifies that both times occur at midnight of any day\n    // _time1: epoch time\n    // _time2: epoch time\n    function verifyMidnight(uint _time1, uint _time2) public pure {\n        uint secsInDay = 86400;\n\n        require(_time1 % secsInDay == 0, \"time arg not at midnight\");\n        require(_time2 % secsInDay == 0, \"time arg not at midnight\");\n    }\n\n    // Verifies that both times occur at midnight of any day\n    // _time1: epoch time\n    function verifyMidnight(uint _time1) public pure {\n        uint secsInDay = 86400;\n\n        require(_time1 % secsInDay == 0, \"time arg not at midnight\");\n    }\n}\n",
  "sourcePath": "/Users/ian/Code/eth_contracts/yumebnb/yume_contracts/src/contracts/libraries/DateTime.sol",
  "compiler": {
    "name": "solc",
    "version": "0.8.5+commit.a4f2e591.Emscripten.clang"
  },
  "schemaVersion": "3.4.1",
  "updatedAt": "2021-07-20T05:05:04.148Z",
  "networkType": "ethereum",
  "devdoc": {
    "kind": "dev",
    "methods": {},
    "version": 1
  },
  "userdoc": {
    "kind": "user",
    "methods": {},
    "version": 1
  }
}