{
  "contractName": "ListingManager",
  "abi": [
    {
      "inputs": [],
      "stateMutability": "nonpayable",
      "type": "constructor"
    },
    {
      "inputs": [],
      "name": "listingIndex",
      "outputs": [
        {
          "internalType": "uint256",
          "name": "",
          "type": "uint256"
        }
      ],
      "stateMutability": "view",
      "type": "function",
      "constant": true
    },
    {
      "inputs": [],
      "name": "name",
      "outputs": [
        {
          "internalType": "string",
          "name": "",
          "type": "string"
        }
      ],
      "stateMutability": "view",
      "type": "function",
      "constant": true
    },
    {
      "inputs": [],
      "name": "numOfListings",
      "outputs": [
        {
          "internalType": "uint256",
          "name": "",
          "type": "uint256"
        }
      ],
      "stateMutability": "view",
      "type": "function",
      "constant": true
    },
    {
      "inputs": [],
      "name": "owner",
      "outputs": [
        {
          "internalType": "address",
          "name": "",
          "type": "address"
        }
      ],
      "stateMutability": "view",
      "type": "function",
      "constant": true
    },
    {
      "inputs": [
        {
          "internalType": "uint256",
          "name": "_propertyId",
          "type": "uint256"
        },
        {
          "internalType": "string",
          "name": "_rules",
          "type": "string"
        },
        {
          "internalType": "string",
          "name": "_guestInfo",
          "type": "string"
        }
      ],
      "name": "createListing",
      "outputs": [
        {
          "internalType": "uint256",
          "name": "",
          "type": "uint256"
        }
      ],
      "stateMutability": "nonpayable",
      "type": "function"
    },
    {
      "inputs": [
        {
          "internalType": "uint256",
          "name": "_listingId",
          "type": "uint256"
        },
        {
          "internalType": "string",
          "name": "_rules",
          "type": "string"
        },
        {
          "internalType": "string",
          "name": "_guestInfo",
          "type": "string"
        }
      ],
      "name": "editListing",
      "outputs": [
        {
          "internalType": "uint256",
          "name": "",
          "type": "uint256"
        }
      ],
      "stateMutability": "nonpayable",
      "type": "function"
    },
    {
      "inputs": [
        {
          "internalType": "uint256",
          "name": "_listingId",
          "type": "uint256"
        },
        {
          "internalType": "uint64",
          "name": "_amountInCents",
          "type": "uint64"
        },
        {
          "internalType": "bytes3",
          "name": "_currency",
          "type": "bytes3"
        },
        {
          "internalType": "uint256",
          "name": "_amountInWei",
          "type": "uint256"
        },
        {
          "internalType": "uint64",
          "name": "_startEpochTime",
          "type": "uint64"
        },
        {
          "internalType": "uint64",
          "name": "_endEpochTime",
          "type": "uint64"
        }
      ],
      "name": "appendPrice",
      "outputs": [
        {
          "internalType": "uint256",
          "name": "",
          "type": "uint256"
        }
      ],
      "stateMutability": "nonpayable",
      "type": "function"
    },
    {
      "inputs": [
        {
          "internalType": "uint256",
          "name": "_listingId",
          "type": "uint256"
        },
        {
          "internalType": "uint64",
          "name": "_startTime",
          "type": "uint64"
        },
        {
          "internalType": "uint64",
          "name": "_endTime",
          "type": "uint64"
        }
      ],
      "name": "determinePrice",
      "outputs": [
        {
          "internalType": "uint256",
          "name": "",
          "type": "uint256"
        }
      ],
      "stateMutability": "view",
      "type": "function",
      "constant": true
    },
    {
      "inputs": [
        {
          "internalType": "uint256",
          "name": "_listingId",
          "type": "uint256"
        }
      ],
      "name": "getListingOwner",
      "outputs": [
        {
          "internalType": "address",
          "name": "",
          "type": "address"
        }
      ],
      "stateMutability": "view",
      "type": "function",
      "constant": true
    },
    {
      "inputs": [
        {
          "internalType": "uint256",
          "name": "_listingId",
          "type": "uint256"
        }
      ],
      "name": "getListingRules",
      "outputs": [
        {
          "internalType": "string",
          "name": "",
          "type": "string"
        }
      ],
      "stateMutability": "view",
      "type": "function",
      "constant": true
    },
    {
      "inputs": [
        {
          "internalType": "uint256",
          "name": "_listingId",
          "type": "uint256"
        }
      ],
      "name": "getListingGuestInfo",
      "outputs": [
        {
          "internalType": "string",
          "name": "",
          "type": "string"
        }
      ],
      "stateMutability": "view",
      "type": "function",
      "constant": true
    },
    {
      "inputs": [
        {
          "internalType": "uint256",
          "name": "_listingId",
          "type": "uint256"
        }
      ],
      "name": "getListingPropertyId",
      "outputs": [
        {
          "internalType": "uint256",
          "name": "",
          "type": "uint256"
        }
      ],
      "stateMutability": "view",
      "type": "function",
      "constant": true
    },
    {
      "inputs": [
        {
          "internalType": "uint256",
          "name": "_listingId",
          "type": "uint256"
        }
      ],
      "name": "getListingNumPrices",
      "outputs": [
        {
          "internalType": "uint256",
          "name": "",
          "type": "uint256"
        }
      ],
      "stateMutability": "view",
      "type": "function",
      "constant": true
    },
    {
      "inputs": [
        {
          "internalType": "uint256",
          "name": "_listingId",
          "type": "uint256"
        },
        {
          "internalType": "uint256",
          "name": "_priceId",
          "type": "uint256"
        }
      ],
      "name": "getListingPriceAmount",
      "outputs": [
        {
          "internalType": "uint64",
          "name": "",
          "type": "uint64"
        }
      ],
      "stateMutability": "view",
      "type": "function",
      "constant": true
    },
    {
      "inputs": [
        {
          "internalType": "uint256",
          "name": "_listingId",
          "type": "uint256"
        },
        {
          "internalType": "uint256",
          "name": "_priceId",
          "type": "uint256"
        }
      ],
      "name": "getListingPriceCurrency",
      "outputs": [
        {
          "internalType": "bytes3",
          "name": "",
          "type": "bytes3"
        }
      ],
      "stateMutability": "view",
      "type": "function",
      "constant": true
    },
    {
      "inputs": [
        {
          "internalType": "uint256",
          "name": "_listingId",
          "type": "uint256"
        },
        {
          "internalType": "uint256",
          "name": "_priceId",
          "type": "uint256"
        }
      ],
      "name": "getListingPriceStartTime",
      "outputs": [
        {
          "internalType": "uint64",
          "name": "",
          "type": "uint64"
        }
      ],
      "stateMutability": "view",
      "type": "function",
      "constant": true
    },
    {
      "inputs": [
        {
          "internalType": "uint256",
          "name": "_listingId",
          "type": "uint256"
        },
        {
          "internalType": "uint256",
          "name": "_priceId",
          "type": "uint256"
        }
      ],
      "name": "getListingPriceEndTime",
      "outputs": [
        {
          "internalType": "uint64",
          "name": "",
          "type": "uint64"
        }
      ],
      "stateMutability": "view",
      "type": "function",
      "constant": true
    }
  ],
  "bytecode": "0x608060405262015180600055600060035560016004556040518060400160405280600f81526020017f4c697374696e67204d616e6167657200000000000000000000000000000000008152506006908051906020019062000062929190620000b8565b503480156200007057600080fd5b5033600560006101000a81548173ffffffffffffffffffffffffffffffffffffffff021916908373ffffffffffffffffffffffffffffffffffffffff160217905550620001cd565b828054620000c69062000168565b90600052602060002090601f016020900481019282620000ea576000855562000136565b82601f106200010557805160ff191683800117855562000136565b8280016001018555821562000136579182015b828111156200013557825182559160200191906001019062000118565b5b50905062000145919062000149565b5090565b5b80821115620001645760008160009055506001016200014a565b5090565b600060028204905060018216806200018157607f821691505b602082108114156200019857620001976200019e565b5b50919050565b7f4e487b7100000000000000000000000000000000000000000000000000000000600052602260045260246000fd5b61172080620001dd6000396000f3fe608060405234801561001057600080fd5b506004361061010b5760003560e01c80638c421589116100a2578063a570a12011610071578063a570a12014610308578063b5a9a25c14610338578063be21a62d14610368578063df5a776714610398578063ebd91518146103c85761010b565b80638c4215891461025a5780638da5cb5b1461028a578063905546e3146102a8578063a17f0725146102d85761010b565b80633ae35156116100de5780633ae35156146101be5780634140efb6146101dc5780636d25aaaf1461020c5780637b2d54731461022a5761010b565b806306fdde03146101105780630f05fad31461012e578063235bdc8b1461015e578063345feef11461018e575b600080fd5b6101186103f8565b60405161012591906112a2565b60405180910390f35b61014860048036038101906101439190610fed565b610486565b60405161015591906112a2565b60405180910390f35b610178600480360381019061017391906110a5565b61052e565b6040516101859190611328565b60405180910390f35b6101a860048036038101906101a39190610fed565b6105cd565b6040516101b591906112e4565b60405180910390f35b6101c66105ed565b6040516101d391906112e4565b60405180910390f35b6101f660048036038101906101f19190610fed565b6105f3565b60405161020391906112a2565b60405180910390f35b61021461069b565b60405161022191906112e4565b60405180910390f35b610244600480360381019061023f9190610fed565b6106a1565b604051610251919061126c565b60405180910390f35b610274600480360381019061026f91906110a5565b6106e1565b6040516102819190611287565b60405180910390f35b610292610779565b60405161029f919061126c565b60405180910390f35b6102c260048036038101906102bd9190610fed565b61079f565b6040516102cf91906112e4565b60405180910390f35b6102f260048036038101906102ed91906110e5565b6107bf565b6040516102ff91906112e4565b60405180910390f35b610322600480360381019061031d919061101a565b610a03565b60405161032f91906112e4565b60405180910390f35b610352600480360381019061034d919061101a565b610ad4565b60405161035f91906112e4565b60405180910390f35b610382600480360381019061037d91906110a5565b610b85565b60405161038f9190611328565b60405180910390f35b6103b260048036038101906103ad91906110a5565b610c24565b6040516103bf9190611328565b60405180910390f35b6103e260048036038101906103dd9190611172565b610cc3565b6040516103ef91906112e4565b60405180910390f35b60068054610405906114c9565b80601f0160208091040260200160405190810160405280929190818152602001828054610431906114c9565b801561047e5780601f106104535761010080835404028352916020019161047e565b820191906000526020600020905b81548152906001019060200180831161046157829003601f168201915b505050505081565b60606001600083815260200190815260200160002060010180546104a9906114c9565b80601f01602080910402602001604051908101604052809291908181526020018280546104d5906114c9565b80156105225780601f106104f757610100808354040283529160200191610522565b820191906000526020600020905b81548152906001019060200180831161050557829003601f168201915b50505050509050919050565b60008161053a846105cd565b1161057a576040517f08c379a0000000000000000000000000000000000000000000000000000000008152600401610571906112c4565b60405180910390fd5b60026000848152602001908152602001600020828154811061059f5761059e6115d3565b5b9060005260206000209060020201600001600b9054906101000a900467ffffffffffffffff16905092915050565b600060016000838152602001908152602001600020600301549050919050565b60045481565b6060600160008381526020019081526020016000206000018054610616906114c9565b80601f0160208091040260200160405190810160405280929190818152602001828054610642906114c9565b801561068f5780601f106106645761010080835404028352916020019161068f565b820191906000526020600020905b81548152906001019060200180831161067257829003601f168201915b50505050509050919050565b60035481565b60006001600083815260200190815260200160002060040160009054906101000a900473ffffffffffffffffffffffffffffffffffffffff169050919050565b6000816106ed846105cd565b1161072d576040517f08c379a0000000000000000000000000000000000000000000000000000000008152600401610724906112c4565b60405180910390fd5b600260008481526020019081526020016000208281548110610752576107516115d3565b5b906000526020600020906002020160000160009054906101000a900460e81b905092915050565b600560009054906101000a900473ffffffffffffffffffffffffffffffffffffffff1681565b600060016000838152602001908152602001600020600201549050919050565b60008267ffffffffffffffff168267ffffffffffffffff1673__DateTime______________________________6370ffa43183836040518363ffffffff1660e01b81526004016108109291906112ff565b60006040518083038186803b15801561082857600080fd5b505af415801561083c573d6000803e3d6000fd5b505050506000600160008b815260200190815260200160002090506000808767ffffffffffffffff16141561087357429050610877565b8690505b60006040518060a001604052808b7cffffffffffffffffffffffffffffffffffffffffffffffffffffffffff191681526020018c67ffffffffffffffff1681526020018367ffffffffffffffff1681526020018867ffffffffffffffff1681526020018a8152509050600260008d815260200190815260200160002081908060018154018082558091505060019003906000526020600020906002020160009091909190915060008201518160000160006101000a81548162ffffff021916908360e81c021790555060208201518160000160036101000a81548167ffffffffffffffff021916908367ffffffffffffffff160217905550604082015181600001600b6101000a81548167ffffffffffffffff021916908367ffffffffffffffff16021790555060608201518160000160136101000a81548167ffffffffffffffff021916908367ffffffffffffffff1602179055506080820151816001015550508260030160008154809291906109ee9061152c565b91905055955050505050509695505050505050565b600080600160006004548152602001908152602001600020905083816000019080519060200190610a35929190610e9b565b5082816001019080519060200190610a4e929190610e9b565b50848160020181905550338160040160006101000a81548173ffffffffffffffffffffffffffffffffffffffff021916908373ffffffffffffffffffffffffffffffffffffffff16021790555060036000815480929190610aae9061152c565b919050555060046000815480929190610ac69061152c565b919050559150509392505050565b6000806001600086815260200190815260200160002090503373ffffffffffffffffffffffffffffffffffffffff168160040160009054906101000a900473ffffffffffffffffffffffffffffffffffffffff1673ffffffffffffffffffffffffffffffffffffffff1614610b4857600080fd5b83816000019080519060200190610b60929190610e9b565b5082816001019080519060200190610b79929190610e9b565b50849150509392505050565b600081610b91846105cd565b11610bd1576040517f08c379a0000000000000000000000000000000000000000000000000000000008152600401610bc8906112c4565b60405180910390fd5b600260008481526020019081526020016000208281548110610bf657610bf56115d3565b5b906000526020600020906002020160000160139054906101000a900467ffffffffffffffff16905092915050565b600081610c30846105cd565b11610c70576040517f08c379a0000000000000000000000000000000000000000000000000000000008152600401610c67906112c4565b60405180910390fd5b600260008481526020019081526020016000208281548110610c9557610c946115d3565b5b906000526020600020906002020160000160039054906101000a900467ffffffffffffffff16905092915050565b60008267ffffffffffffffff168267ffffffffffffffff1673__DateTime______________________________6370ffa43183836040518363ffffffff1660e01b8152600401610d149291906112ff565b60006040518083038186803b158015610d2c57600080fd5b505af4158015610d40573d6000803e3d6000fd5b50505050600060016000888152602001908152602001600020905060008160030154905060008060008967ffffffffffffffff1690505b8867ffffffffffffffff168111158015610d9057508382105b15610e8a576000600260008d81526020019081526020016000208381548110610dbc57610dbb6115d3565b5b9060005260206000209060020201905080600001600b9054906101000a900467ffffffffffffffff1667ffffffffffffffff168210610e765760008160000160139054906101000a900467ffffffffffffffff1667ffffffffffffffff161480610e4857508060000160139054906101000a900467ffffffffffffffff1667ffffffffffffffff168211155b15610e7557806001015484610e5d91906113b5565b935060005482610e6d91906113b5565b915050610d77565b5b8280610e819061152c565b93505050610d77565b829750505050505050509392505050565b828054610ea7906114c9565b90600052602060002090601f016020900481019282610ec95760008555610f10565b82601f10610ee257805160ff1916838001178555610f10565b82800160010185558215610f10579182015b82811115610f0f578251825591602001919060010190610ef4565b5b509050610f1d9190610f21565b5090565b5b80821115610f3a576000816000905550600101610f22565b5090565b6000610f51610f4c84611368565b611343565b905082815260208101848484011115610f6d57610f6c611636565b5b610f78848285611487565b509392505050565b600081359050610f8f816116a5565b92915050565b600082601f830112610faa57610fa9611631565b5b8135610fba848260208601610f3e565b91505092915050565b600081359050610fd2816116bc565b92915050565b600081359050610fe7816116d3565b92915050565b60006020828403121561100357611002611640565b5b600061101184828501610fc3565b91505092915050565b60008060006060848603121561103357611032611640565b5b600061104186828701610fc3565b935050602084013567ffffffffffffffff8111156110625761106161163b565b5b61106e86828701610f95565b925050604084013567ffffffffffffffff81111561108f5761108e61163b565b5b61109b86828701610f95565b9150509250925092565b600080604083850312156110bc576110bb611640565b5b60006110ca85828601610fc3565b92505060206110db85828601610fc3565b9150509250929050565b60008060008060008060c0878903121561110257611101611640565b5b600061111089828a01610fc3565b965050602061112189828a01610fd8565b955050604061113289828a01610f80565b945050606061114389828a01610fc3565b935050608061115489828a01610fd8565b92505060a061116589828a01610fd8565b9150509295509295509295565b60008060006060848603121561118b5761118a611640565b5b600061119986828701610fc3565b93505060206111aa86828701610fd8565b92505060406111bb86828701610fd8565b9150509250925092565b6111ce8161140b565b82525050565b6111dd8161141d565b82525050565b60006111ee82611399565b6111f881856113a4565b9350611208818560208601611496565b61121181611645565b840191505092915050565b60006112296029836113a4565b915061123482611656565b604082019050919050565b61124881611469565b82525050565b61125781611469565b82525050565b61126681611473565b82525050565b600060208201905061128160008301846111c5565b92915050565b600060208201905061129c60008301846111d4565b92915050565b600060208201905081810360008301526112bc81846111e3565b905092915050565b600060208201905081810360008301526112dd8161121c565b9050919050565b60006020820190506112f9600083018461123f565b92915050565b6000604082019050611314600083018561124e565b611321602083018461124e565b9392505050565b600060208201905061133d600083018461125d565b92915050565b600061134d61135e565b905061135982826114fb565b919050565b6000604051905090565b600067ffffffffffffffff82111561138357611382611602565b5b61138c82611645565b9050602081019050919050565b600081519050919050565b600082825260208201905092915050565b60006113c082611469565b91506113cb83611469565b9250827fffffffffffffffffffffffffffffffffffffffffffffffffffffffffffffffff03821115611400576113ff611575565b5b828201905092915050565b600061141682611449565b9050919050565b60007fffffff000000000000000000000000000000000000000000000000000000000082169050919050565b600073ffffffffffffffffffffffffffffffffffffffff82169050919050565b6000819050919050565b600067ffffffffffffffff82169050919050565b82818337600083830152505050565b60005b838110156114b4578082015181840152602081019050611499565b838111156114c3576000848401525b50505050565b600060028204905060018216806114e157607f821691505b602082108114156114f5576114f46115a4565b5b50919050565b61150482611645565b810181811067ffffffffffffffff8211171561152357611522611602565b5b80604052505050565b600061153782611469565b91507fffffffffffffffffffffffffffffffffffffffffffffffffffffffffffffffff82141561156a57611569611575565b5b600182019050919050565b7f4e487b7100000000000000000000000000000000000000000000000000000000600052601160045260246000fd5b7f4e487b7100000000000000000000000000000000000000000000000000000000600052602260045260246000fd5b7f4e487b7100000000000000000000000000000000000000000000000000000000600052603260045260246000fd5b7f4e487b7100000000000000000000000000000000000000000000000000000000600052604160045260246000fd5b600080fd5b600080fd5b600080fd5b600080fd5b6000601f19601f8301169050919050565b7f63616e206e6f742070617373205072696365204944206772656174657220746860008201527f656e206c656e6774680000000000000000000000000000000000000000000000602082015250565b6116ae8161141d565b81146116b957600080fd5b50565b6116c581611469565b81146116d057600080fd5b50565b6116dc81611473565b81146116e757600080fd5b5056fea26469706673582212203c2d5e6ac47af6204da72cb0e88af93cba8c381e67bd31585bd620130130354464736f6c63430008050033",
  "immutableReferences": {},
  "source": "// SPDX-License-Identifier: UNLICENSED\npragma solidity ^0.8.0;\n\nimport './structs/PriceRule.sol';\nimport './structs/Listing.sol';\nimport \"./Manager.sol\";\n\ncontract ListingManager is Manager {\n\tmapping(uint => Listing) listings;\n\tmapping(uint => PriceRule[]) priceRules;\n\n\tuint public numOfListings = 0;\n\tuint public listingIndex = 1;\n\taddress public owner;\n\tstring public name = \"Listing Manager\";\n\n\tconstructor() {\n\t\towner = msg.sender;\n\t}\n\n\tfunction createListing(uint _propertyId, string memory _rules, string memory _guestInfo) public returns (uint) {\n\t\tListing storage newListing = listings[listingIndex];\n\t\tnewListing.rules = _rules;\n\t\tnewListing.guestInfo = _guestInfo;\n\t\tnewListing.propertyId = _propertyId;\n\t\tnewListing.owner = msg.sender;\n\n\t\tnumOfListings++;\n\n\t\treturn listingIndex++;\n\t}\n\n\tfunction editListing(uint _listingId, string memory _rules, string memory _guestInfo) public returns (uint) {\n\t\tListing storage requestedListing = listings[_listingId];\n\n\t\trequire(requestedListing.owner == msg.sender);\n\n\t\trequestedListing.rules = _rules;\n\t\trequestedListing.guestInfo = _guestInfo;\n\n\t\treturn _listingId;\n\t}\n\n\tfunction appendPrice(uint _listingId, uint64 _amountInCents, bytes3 _currency, uint _amountInWei, uint64 _startEpochTime, uint64 _endEpochTime) public isAtMidnight2(_startEpochTime, _endEpochTime) returns (uint) {\n\t\tListing storage listing = listings[_listingId];\n\t\tuint64 startTime;\n\n\t\tif (_startEpochTime == 0) {\n\t\t\tstartTime = uint64(block.timestamp);\n\t\t} else {\n\t\t\tstartTime = _startEpochTime;\n\t\t}\n\n\t\tPriceRule memory price = PriceRule(_currency, _amountInCents, startTime, _endEpochTime, _amountInWei);\n\t\tpriceRules[_listingId].push(price);\n\n\t\treturn listing.numOfPrices++;\n\t}\n\n\tfunction determinePrice(uint _listingId, uint64 _startTime, uint64 _endTime) public view isAtMidnight2(_startTime, _endTime) returns (uint) {\n\t\tListing storage listing = listings[_listingId];\n\n\t\tuint numOfPrices = listing.numOfPrices;\n\t\tuint totalPrice = 0;\n\t\tuint currentPriceIndex = 0;\n\t\tuint timeCursor = _startTime;\n\n\t\twhile (timeCursor <= _endTime && currentPriceIndex < numOfPrices) {\n\t\t\tPriceRule storage p = priceRules[_listingId][currentPriceIndex];\n\n\t\t\tif (timeCursor >= p.startEpochTime) {\n\t\t\t\tif (p.endEpochTime == 0 || timeCursor <= p.endEpochTime) { // if there is no end datetime OR cursor is before/equal to end time\n\t\t\t\t\ttotalPrice += p.amountInWei;\n\t\t\t\t\ttimeCursor += secsInDay;\n\t\t\t\t\tcontinue;\n\t\t\t\t}\n\t\t\t}\n\n\t\t\tcurrentPriceIndex++;\n\t\t}\n\n\t\treturn totalPrice;\n\t}\n\n\tfunction getListingOwner(uint _listingId) public view returns (address) {\n\t\treturn listings[_listingId].owner;\n\t}\n\n\tfunction getListingRules(uint _listingId) public view returns (string memory) {\n\t\treturn listings[_listingId].rules;\n\t}\n\n\tfunction getListingGuestInfo(uint _listingId) public view returns (string memory) {\n\t\treturn listings[_listingId].guestInfo;\n\t}\n\n\tfunction getListingPropertyId(uint _listingId) public view returns (uint) {\n\t\treturn listings[_listingId].propertyId;\n\t}\n\n\tfunction getListingNumPrices(uint _listingId) public view returns (uint) {\n\t\treturn listings[_listingId].numOfPrices;\n\t}\n\n\tfunction getListingPriceAmount(uint _listingId, uint _priceId) public view returns (uint64) {\n\t\trequire(getListingNumPrices(_listingId) > _priceId, \"can not pass Price ID greater then length\");\n\n\t\treturn priceRules[_listingId][_priceId].amountInCents;\n\t}\n\n\tfunction getListingPriceCurrency(uint _listingId, uint _priceId) public view returns (bytes3) {\n\t\trequire(getListingNumPrices(_listingId) > _priceId, \"can not pass Price ID greater then length\");\n\n\t\treturn priceRules[_listingId][_priceId].currency;\n\t}\n\n\tfunction getListingPriceStartTime(uint _listingId, uint _priceId) public view returns (uint64) {\n\t\trequire(getListingNumPrices(_listingId) > _priceId, \"can not pass Price ID greater then length\");\n\n\t\treturn priceRules[_listingId][_priceId].startEpochTime;\n\t}\n\n\tfunction getListingPriceEndTime(uint _listingId, uint _priceId) public view returns (uint64) {\n\t\trequire(getListingNumPrices(_listingId) > _priceId, \"can not pass Price ID greater then length\");\n\n\t\treturn priceRules[_listingId][_priceId].endEpochTime;\n\t}\n}\n",
  "sourcePath": "/Users/ian/Code/eth_contracts/yumebnb/yume_contracts/src/contracts/ListingManager.sol",
  "compiler": {
    "name": "solc",
    "version": "0.8.5+commit.a4f2e591.Emscripten.clang"
  },
  "schemaVersion": "3.4.1",
  "updatedAt": "2021-07-20T05:05:04.143Z",
  "networkType": "ethereum",
  "devdoc": {
    "kind": "dev",
    "methods": {},
    "version": 1
  },
  "userdoc": {
    "kind": "user",
    "methods": {},
    "version": 1
  }
}