{
  "contractName": "ListingManager",
  "abi": [
    {
      "inputs": [],
      "stateMutability": "nonpayable",
      "type": "constructor"
    },
    {
      "inputs": [],
      "name": "name",
      "outputs": [
        {
          "internalType": "string",
          "name": "",
          "type": "string"
        }
      ],
      "stateMutability": "view",
      "type": "function",
      "constant": true
    },
    {
      "inputs": [],
      "name": "numOfListings",
      "outputs": [
        {
          "internalType": "uint256",
          "name": "",
          "type": "uint256"
        }
      ],
      "stateMutability": "view",
      "type": "function",
      "constant": true
    },
    {
      "inputs": [],
      "name": "owner",
      "outputs": [
        {
          "internalType": "address",
          "name": "",
          "type": "address"
        }
      ],
      "stateMutability": "view",
      "type": "function",
      "constant": true
    },
    {
      "inputs": [
        {
          "internalType": "uint256",
          "name": "_propertyId",
          "type": "uint256"
        },
        {
          "internalType": "string",
          "name": "_rules",
          "type": "string"
        },
        {
          "internalType": "string",
          "name": "_guestInfo",
          "type": "string"
        }
      ],
      "name": "createListing",
      "outputs": [
        {
          "internalType": "uint256",
          "name": "",
          "type": "uint256"
        }
      ],
      "stateMutability": "nonpayable",
      "type": "function"
    },
    {
      "inputs": [
        {
          "internalType": "uint256",
          "name": "_listingId",
          "type": "uint256"
        },
        {
          "internalType": "string",
          "name": "_rules",
          "type": "string"
        },
        {
          "internalType": "string",
          "name": "_guestInfo",
          "type": "string"
        }
      ],
      "name": "editListing",
      "outputs": [
        {
          "internalType": "uint256",
          "name": "",
          "type": "uint256"
        }
      ],
      "stateMutability": "nonpayable",
      "type": "function"
    },
    {
      "inputs": [
        {
          "internalType": "uint256",
          "name": "_listingId",
          "type": "uint256"
        },
        {
          "internalType": "uint64",
          "name": "_amountInCents",
          "type": "uint64"
        },
        {
          "internalType": "bytes3",
          "name": "_currency",
          "type": "bytes3"
        },
        {
          "internalType": "uint64",
          "name": "_startEpochTime",
          "type": "uint64"
        },
        {
          "internalType": "uint64",
          "name": "_endEpochTime",
          "type": "uint64"
        }
      ],
      "name": "appendPrice",
      "outputs": [
        {
          "internalType": "uint256",
          "name": "",
          "type": "uint256"
        }
      ],
      "stateMutability": "nonpayable",
      "type": "function"
    },
    {
      "inputs": [
        {
          "internalType": "uint256",
          "name": "_listingId",
          "type": "uint256"
        },
        {
          "internalType": "uint64",
          "name": "_startTime",
          "type": "uint64"
        },
        {
          "internalType": "uint64",
          "name": "_endTime",
          "type": "uint64"
        }
      ],
      "name": "determinePrice",
      "outputs": [
        {
          "internalType": "uint256",
          "name": "",
          "type": "uint256"
        }
      ],
      "stateMutability": "view",
      "type": "function",
      "constant": true
    },
    {
      "inputs": [
        {
          "internalType": "uint256",
          "name": "_listingId",
          "type": "uint256"
        }
      ],
      "name": "getListingOwner",
      "outputs": [
        {
          "internalType": "address",
          "name": "",
          "type": "address"
        }
      ],
      "stateMutability": "view",
      "type": "function",
      "constant": true
    },
    {
      "inputs": [
        {
          "internalType": "uint256",
          "name": "_listingId",
          "type": "uint256"
        }
      ],
      "name": "getListingRules",
      "outputs": [
        {
          "internalType": "string",
          "name": "",
          "type": "string"
        }
      ],
      "stateMutability": "view",
      "type": "function",
      "constant": true
    },
    {
      "inputs": [
        {
          "internalType": "uint256",
          "name": "_listingId",
          "type": "uint256"
        }
      ],
      "name": "getListingGuestInfo",
      "outputs": [
        {
          "internalType": "string",
          "name": "",
          "type": "string"
        }
      ],
      "stateMutability": "view",
      "type": "function",
      "constant": true
    },
    {
      "inputs": [
        {
          "internalType": "uint256",
          "name": "_listingId",
          "type": "uint256"
        }
      ],
      "name": "getListingPropertyId",
      "outputs": [
        {
          "internalType": "uint256",
          "name": "",
          "type": "uint256"
        }
      ],
      "stateMutability": "view",
      "type": "function",
      "constant": true
    },
    {
      "inputs": [
        {
          "internalType": "uint256",
          "name": "_listingId",
          "type": "uint256"
        }
      ],
      "name": "getListingNumPrices",
      "outputs": [
        {
          "internalType": "uint256",
          "name": "",
          "type": "uint256"
        }
      ],
      "stateMutability": "view",
      "type": "function",
      "constant": true
    },
    {
      "inputs": [
        {
          "internalType": "uint256",
          "name": "_listingId",
          "type": "uint256"
        },
        {
          "internalType": "uint256",
          "name": "_priceId",
          "type": "uint256"
        }
      ],
      "name": "getListingPriceAmount",
      "outputs": [
        {
          "internalType": "uint64",
          "name": "",
          "type": "uint64"
        }
      ],
      "stateMutability": "view",
      "type": "function",
      "constant": true
    },
    {
      "inputs": [
        {
          "internalType": "uint256",
          "name": "_listingId",
          "type": "uint256"
        },
        {
          "internalType": "uint256",
          "name": "_priceId",
          "type": "uint256"
        }
      ],
      "name": "getListingPriceCurrency",
      "outputs": [
        {
          "internalType": "bytes3",
          "name": "",
          "type": "bytes3"
        }
      ],
      "stateMutability": "view",
      "type": "function",
      "constant": true
    },
    {
      "inputs": [
        {
          "internalType": "uint256",
          "name": "_listingId",
          "type": "uint256"
        },
        {
          "internalType": "uint256",
          "name": "_priceId",
          "type": "uint256"
        }
      ],
      "name": "getListingPriceStartTime",
      "outputs": [
        {
          "internalType": "uint64",
          "name": "",
          "type": "uint64"
        }
      ],
      "stateMutability": "view",
      "type": "function",
      "constant": true
    },
    {
      "inputs": [
        {
          "internalType": "uint256",
          "name": "_listingId",
          "type": "uint256"
        },
        {
          "internalType": "uint256",
          "name": "_priceId",
          "type": "uint256"
        }
      ],
      "name": "getListingPriceEndTime",
      "outputs": [
        {
          "internalType": "uint64",
          "name": "",
          "type": "uint64"
        }
      ],
      "stateMutability": "view",
      "type": "function",
      "constant": true
    }
  ],
  "bytecode": "0x608060405260006002556040518060400160405280600f81526020017f4c697374696e67204d616e6167657200000000000000000000000000000000008152506004908051906020019062000056929190620000ac565b503480156200006457600080fd5b5033600360006101000a81548173ffffffffffffffffffffffffffffffffffffffff021916908373ffffffffffffffffffffffffffffffffffffffff160217905550620001c1565b828054620000ba906200015c565b90600052602060002090601f016020900481019282620000de57600085556200012a565b82601f10620000f957805160ff19168380011785556200012a565b828001600101855582156200012a579182015b82811115620001295782518255916020019190600101906200010c565b5b5090506200013991906200013d565b5090565b5b80821115620001585760008160009055506001016200013e565b5090565b600060028204905060018216806200017557607f821691505b602082108114156200018c576200018b62000192565b5b50919050565b7f4e487b7100000000000000000000000000000000000000000000000000000000600052602260045260246000fd5b61153880620001d16000396000f3fe608060405234801561001057600080fd5b50600436106101005760003560e01c80638da5cb5b11610097578063be21a62d11610066578063be21a62d1461030f578063cd560b951461033f578063df5a77671461036f578063ebd915181461039f57610100565b80638da5cb5b14610261578063905546e31461027f578063a570a120146102af578063b5a9a25c146102df57610100565b80634140efb6116100d35780634140efb6146101b35780636d25aaaf146101e35780637b2d5473146102015780638c4215891461023157610100565b806306fdde03146101055780630f05fad314610123578063235bdc8b14610153578063345feef114610183575b600080fd5b61010d6103cf565b60405161011a91906110f5565b60405180910390f35b61013d60048036038101906101389190610e75565b61045d565b60405161014a91906110f5565b60405180910390f35b61016d60048036038101906101689190610f2d565b610504565b60405161017a919061115b565b60405180910390f35b61019d60048036038101906101989190610e75565b610555565b6040516101aa9190611117565b60405180910390f35b6101cd60048036038101906101c89190610e75565b610574565b6040516101da91906110f5565b60405180910390f35b6101eb61061b565b6040516101f89190611117565b60405180910390f35b61021b60048036038101906102169190610e75565b610621565b60405161022891906110bf565b60405180910390f35b61024b60048036038101906102469190610f2d565b610660565b60405161025891906110da565b60405180910390f35b6102696106aa565b60405161027691906110bf565b60405180910390f35b61029960048036038101906102949190610e75565b6106d0565b6040516102a69190611117565b60405180910390f35b6102c960048036038101906102c49190610ea2565b6106ef565b6040516102d69190611117565b60405180910390f35b6102f960048036038101906102f49190610ea2565b6107b3565b6040516103069190611117565b60405180910390f35b61032960048036038101906103249190610f2d565b610863565b604051610336919061115b565b60405180910390f35b61035960048036038101906103549190610f6d565b6108b4565b6040516103669190611117565b60405180910390f35b61038960048036038101906103849190610f2d565b610ada565b604051610396919061115b565b60405180910390f35b6103b960048036038101906103b49190610fe8565b610b2b565b6040516103c69190611117565b60405180910390f35b600480546103dc90611330565b80601f016020809104026020016040519081016040528092919081815260200182805461040890611330565b80156104555780601f1061042a57610100808354040283529160200191610455565b820191906000526020600020905b81548152906001019060200180831161043857829003601f168201915b505050505081565b6060600080838152602001908152602001600020600101805461047f90611330565b80601f01602080910402602001604051908101604052809291908181526020018280546104ab90611330565b80156104f85780601f106104cd576101008083540402835291602001916104f8565b820191906000526020600020905b8154815290600101906020018083116104db57829003601f168201915b50505050509050919050565b600060016000848152602001908152602001600020828154811061052b5761052a61143a565b5b90600052602060002001600001600b9054906101000a900467ffffffffffffffff16905092915050565b6000806000838152602001908152602001600020600301549050919050565b6060600080838152602001908152602001600020600001805461059690611330565b80601f01602080910402602001604051908101604052809291908181526020018280546105c290611330565b801561060f5780601f106105e45761010080835404028352916020019161060f565b820191906000526020600020905b8154815290600101906020018083116105f257829003601f168201915b50505050509050919050565b60025481565b600080600083815260200190815260200160002060040160009054906101000a900473ffffffffffffffffffffffffffffffffffffffff169050919050565b60006001600084815260200190815260200160002082815481106106875761068661143a565b5b9060005260206000200160000160089054906101000a900460e81b905092915050565b600360009054906101000a900473ffffffffffffffffffffffffffffffffffffffff1681565b6000806000838152602001908152602001600020600201549050919050565b6000806000806002600081548092919061070890611393565b919050558152602001908152602001600020905083816000019080519060200190610734929190610d23565b508281600101908051906020019061074d929190610d23565b50848160020181905550338160040160006101000a81548173ffffffffffffffffffffffffffffffffffffffff021916908373ffffffffffffffffffffffffffffffffffffffff16021790555060016002546107a9919061123e565b9150509392505050565b60008060008086815260200190815260200160002090503373ffffffffffffffffffffffffffffffffffffffff168160040160009054906101000a900473ffffffffffffffffffffffffffffffffffffffff1673ffffffffffffffffffffffffffffffffffffffff161461082657600080fd5b8381600001908051906020019061083e929190610d23565b5082816001019080519060200190610857929190610d23565b50849150509392505050565b600060016000848152602001908152602001600020828154811061088a5761088961143a565b5b9060005260206000200160000160139054906101000a900467ffffffffffffffff16905092915050565b60008267ffffffffffffffff168267ffffffffffffffff1673__DateTime______________________________6370ffa43183836040518363ffffffff1660e01b8152600401610905929190611132565b60006040518083038186803b15801561091d57600080fd5b505af4158015610931573d6000803e3d6000fd5b5050505060008060008a815260200190815260200160002090506000808767ffffffffffffffff1614156109675742905061096b565b8690505b600060405180608001604052808b67ffffffffffffffff1681526020018a7cffffffffffffffffffffffffffffffffffffffffffffffffffffffffff191681526020018367ffffffffffffffff1681526020018867ffffffffffffffff168152509050600160008c8152602001908152602001600020819080600181540180825580915050600190039060005260206000200160009091909190915060008201518160000160006101000a81548167ffffffffffffffff021916908367ffffffffffffffff16021790555060208201518160000160086101000a81548162ffffff021916908360e81c0217905550604082015181600001600b6101000a81548167ffffffffffffffff021916908367ffffffffffffffff16021790555060608201518160000160136101000a81548167ffffffffffffffff021916908367ffffffffffffffff160217905550505060018360030154610aca919061123e565b9550505050505095945050505050565b6000600160008481526020019081526020016000208281548110610b0157610b0061143a565b5b9060005260206000200160000160009054906101000a900467ffffffffffffffff16905092915050565b60008267ffffffffffffffff168267ffffffffffffffff1673__DateTime______________________________6370ffa43183836040518363ffffffff1660e01b8152600401610b7c929190611132565b60006040518083038186803b158015610b9457600080fd5b505af4158015610ba8573d6000803e3d6000fd5b5050505060008060008881526020019081526020016000209050600062015180905060008260030154905060008060008a67ffffffffffffffff1690505b8967ffffffffffffffff168111158015610bff57508382105b15610d11576000600160008e81526020019081526020016000208381548110610c2b57610c2a61143a565b5b90600052602060002001905080600001600b9054906101000a900467ffffffffffffffff1667ffffffffffffffff168210610cfd5760008160000160139054906101000a900467ffffffffffffffff1667ffffffffffffffff161480610cb357508060000160139054906101000a900467ffffffffffffffff1667ffffffffffffffff168211155b15610cfc578060000160009054906101000a900467ffffffffffffffff1667ffffffffffffffff1684610ce691906111e8565b93508582610cf491906111e8565b915050610be6565b5b8280610d0890611393565b93505050610be6565b82985050505050505050509392505050565b828054610d2f90611330565b90600052602060002090601f016020900481019282610d515760008555610d98565b82601f10610d6a57805160ff1916838001178555610d98565b82800160010185558215610d98579182015b82811115610d97578251825591602001919060010190610d7c565b5b509050610da59190610da9565b5090565b5b80821115610dc2576000816000905550600101610daa565b5090565b6000610dd9610dd48461119b565b611176565b905082815260208101848484011115610df557610df461149d565b5b610e008482856112ee565b509392505050565b600081359050610e17816114bd565b92915050565b600082601f830112610e3257610e31611498565b5b8135610e42848260208601610dc6565b91505092915050565b600081359050610e5a816114d4565b92915050565b600081359050610e6f816114eb565b92915050565b600060208284031215610e8b57610e8a6114a7565b5b6000610e9984828501610e4b565b91505092915050565b600080600060608486031215610ebb57610eba6114a7565b5b6000610ec986828701610e4b565b935050602084013567ffffffffffffffff811115610eea57610ee96114a2565b5b610ef686828701610e1d565b925050604084013567ffffffffffffffff811115610f1757610f166114a2565b5b610f2386828701610e1d565b9150509250925092565b60008060408385031215610f4457610f436114a7565b5b6000610f5285828601610e4b565b9250506020610f6385828601610e4b565b9150509250929050565b600080600080600060a08688031215610f8957610f886114a7565b5b6000610f9788828901610e4b565b9550506020610fa888828901610e60565b9450506040610fb988828901610e08565b9350506060610fca88828901610e60565b9250506080610fdb88828901610e60565b9150509295509295909350565b600080600060608486031215611001576110006114a7565b5b600061100f86828701610e4b565b935050602061102086828701610e60565b925050604061103186828701610e60565b9150509250925092565b61104481611272565b82525050565b61105381611284565b82525050565b6000611064826111cc565b61106e81856111d7565b935061107e8185602086016112fd565b611087816114ac565b840191505092915050565b61109b816112d0565b82525050565b6110aa816112d0565b82525050565b6110b9816112da565b82525050565b60006020820190506110d4600083018461103b565b92915050565b60006020820190506110ef600083018461104a565b92915050565b6000602082019050818103600083015261110f8184611059565b905092915050565b600060208201905061112c6000830184611092565b92915050565b600060408201905061114760008301856110a1565b61115460208301846110a1565b9392505050565b600060208201905061117060008301846110b0565b92915050565b6000611180611191565b905061118c8282611362565b919050565b6000604051905090565b600067ffffffffffffffff8211156111b6576111b5611469565b5b6111bf826114ac565b9050602081019050919050565b600081519050919050565b600082825260208201905092915050565b60006111f3826112d0565b91506111fe836112d0565b9250827fffffffffffffffffffffffffffffffffffffffffffffffffffffffffffffffff03821115611233576112326113dc565b5b828201905092915050565b6000611249826112d0565b9150611254836112d0565b925082821015611267576112666113dc565b5b828203905092915050565b600061127d826112b0565b9050919050565b60007fffffff000000000000000000000000000000000000000000000000000000000082169050919050565b600073ffffffffffffffffffffffffffffffffffffffff82169050919050565b6000819050919050565b600067ffffffffffffffff82169050919050565b82818337600083830152505050565b60005b8381101561131b578082015181840152602081019050611300565b8381111561132a576000848401525b50505050565b6000600282049050600182168061134857607f821691505b6020821081141561135c5761135b61140b565b5b50919050565b61136b826114ac565b810181811067ffffffffffffffff8211171561138a57611389611469565b5b80604052505050565b600061139e826112d0565b91507fffffffffffffffffffffffffffffffffffffffffffffffffffffffffffffffff8214156113d1576113d06113dc565b5b600182019050919050565b7f4e487b7100000000000000000000000000000000000000000000000000000000600052601160045260246000fd5b7f4e487b7100000000000000000000000000000000000000000000000000000000600052602260045260246000fd5b7f4e487b7100000000000000000000000000000000000000000000000000000000600052603260045260246000fd5b7f4e487b7100000000000000000000000000000000000000000000000000000000600052604160045260246000fd5b600080fd5b600080fd5b600080fd5b600080fd5b6000601f19601f8301169050919050565b6114c681611284565b81146114d157600080fd5b50565b6114dd816112d0565b81146114e857600080fd5b50565b6114f4816112da565b81146114ff57600080fd5b5056fea264697066735822122068a07dd10f0b1f74101dc20e8229f860fe12880e00ff409fc7f45f909c99573964736f6c63430008050033",
  "immutableReferences": {},
  "source": "// SPDX-License-Identifier: UNLICENSED\npragma solidity ^0.8.0;\n\nimport './structs/Price.sol';\nimport './structs/Listing.sol';\nimport \"./Manager.sol\";\n\ncontract ListingManager is Manager {\n\tmapping(uint => Listing) listings;\n\tmapping(uint => Price[]) prices;\n\n\tuint public numOfListings = 0;\n\taddress public owner;\n\tstring public name = \"Listing Manager\";\n\n\tconstructor() {\n\t\towner = msg.sender;\n\t}\n\n\tfunction createListing(uint _propertyId, string memory _rules, string memory _guestInfo) public returns (uint) {\n\t\tListing storage newListing = listings[numOfListings++];\n\t\tnewListing.rules = _rules;\n\t\tnewListing.guestInfo = _guestInfo;\n\t\tnewListing.propertyId = _propertyId;\n\t\tnewListing.owner = msg.sender;\n\n\t\treturn numOfListings - 1;\n\t}\n\n\tfunction editListing(uint _listingId, string memory _rules, string memory _guestInfo) public returns (uint) {\n\t\tListing storage requestedListing = listings[_listingId];\n\n\t\trequire(requestedListing.owner == msg.sender);\n\n\t\trequestedListing.rules = _rules;\n\t\trequestedListing.guestInfo = _guestInfo;\n\n\t\treturn _listingId;\n\t}\n\n\tfunction appendPrice(uint _listingId, uint64 _amountInCents, bytes3 _currency, uint64 _startEpochTime, uint64 _endEpochTime) public isAtMidnight(_startEpochTime, _endEpochTime) returns (uint) {\n\t\tListing storage listing = listings[_listingId];\n\t\tuint64 startTime;\n\n\t\tif (_startEpochTime == 0) {\n\t\t\tstartTime = uint64(block.timestamp);\n\t\t} else {\n\t\t\tstartTime = _startEpochTime;\n\t\t}\n\n\t\tPrice memory price = Price(_amountInCents, _currency, startTime, _endEpochTime);\n//\t\tlisting.prices[listing.numOfPrices++] = price;\n\t\tprices[_listingId].push(price);\n\n\t\treturn listing.numOfPrices - 1;\n\t}\n\n\tfunction determinePrice(uint _listingId, uint64 _startTime, uint64 _endTime) public view isAtMidnight(_startTime, _endTime) returns (uint) {\n\t\tListing storage listing = listings[_listingId];\n\n\t\tuint secsInDay = 86400;\n\t\tuint numOfPrices = listing.numOfPrices;\n\t\tuint totalPrice = 0;\n\t\tuint currentPriceIndex = 0;\n\t\tuint timeCursor = _startTime;\n\n\t\twhile (timeCursor <= _endTime && currentPriceIndex < numOfPrices) {\n\t\t\tPrice storage p = prices[_listingId][currentPriceIndex];\n\n\t\t\tif (timeCursor >= p.startEpochTime) {\n\t\t\t\tif (p.endEpochTime == 0 || timeCursor <= p.endEpochTime) { // if there is no end datetime OR cursor is before/equal to end time\n\t\t\t\t\ttotalPrice += p.amountInCents;\n\t\t\t\t\ttimeCursor += secsInDay;\n\t\t\t\t\tcontinue;\n\t\t\t\t}\n\t\t\t}\n\n\t\t\tcurrentPriceIndex++;\n\t\t}\n\n\t\treturn totalPrice;\n\t}\n\n\tfunction getListingOwner(uint _listingId) public view returns (address) {\n\t\treturn listings[_listingId].owner;\n\t}\n\n\tfunction getListingRules(uint _listingId) public view returns (string memory) {\n\t\treturn listings[_listingId].rules;\n\t}\n\n\tfunction getListingGuestInfo(uint _listingId) public view returns (string memory) {\n\t\treturn listings[_listingId].guestInfo;\n\t}\n\n\tfunction getListingPropertyId(uint _listingId) public view returns (uint) {\n\t\treturn listings[_listingId].propertyId;\n\t}\n\n\tfunction getListingNumPrices(uint _listingId) public view returns (uint) {\n\t\treturn listings[_listingId].numOfPrices;\n\t}\n\n\tfunction getListingPriceAmount(uint _listingId, uint _priceId) public view returns (uint64) {\n//\t\treturn listings[_listingId].prices[_priceId].amountInCents;\n\t\treturn prices[_listingId][_priceId].amountInCents;\n\t}\n\n\tfunction getListingPriceCurrency(uint _listingId, uint _priceId) public view returns (bytes3) {\n//\t\treturn listings[_listingId].prices[_priceId].currency;\n\t\treturn prices[_listingId][_priceId].currency;\n\t}\n\n\tfunction getListingPriceStartTime(uint _listingId, uint _priceId) public view returns (uint64) {\n//\t\treturn listings[_listingId].prices[_priceId].startEpochTime;\n\t\treturn prices[_listingId][_priceId].startEpochTime;\n\t}\n\n\tfunction getListingPriceEndTime(uint _listingId, uint _priceId) public view returns (uint64) {\n//\t\treturn listings[_listingId].prices[_priceId].endEpochTime;\n\t\treturn prices[_listingId][_priceId].endEpochTime;\n\t}\n}\n",
  "sourcePath": "/Users/ian/Code/eth_contracts/yumebnb/yume_contracts/src/contracts/ListingManager.sol",
  "compiler": {
    "name": "solc",
    "version": "0.8.5+commit.a4f2e591.Emscripten.clang"
  },
  "schemaVersion": "3.4.1",
  "updatedAt": "2021-07-08T21:29:23.297Z",
  "networkType": "ethereum",
  "devdoc": {
    "kind": "dev",
    "methods": {},
    "version": 1
  },
  "userdoc": {
    "kind": "user",
    "methods": {},
    "version": 1
  }
}