{
  "contractName": "ListingManager",
  "abi": [
    {
      "inputs": [],
      "stateMutability": "nonpayable",
      "type": "constructor"
    },
    {
      "inputs": [],
      "name": "name",
      "outputs": [
        {
          "internalType": "string",
          "name": "",
          "type": "string"
        }
      ],
      "stateMutability": "view",
      "type": "function"
    },
    {
      "inputs": [],
      "name": "numOfListings",
      "outputs": [
        {
          "internalType": "uint256",
          "name": "",
          "type": "uint256"
        }
      ],
      "stateMutability": "view",
      "type": "function"
    },
    {
      "inputs": [],
      "name": "owner",
      "outputs": [
        {
          "internalType": "address",
          "name": "",
          "type": "address"
        }
      ],
      "stateMutability": "view",
      "type": "function"
    },
    {
      "inputs": [
        {
          "internalType": "uint256",
          "name": "_propertyId",
          "type": "uint256"
        },
        {
          "internalType": "string",
          "name": "_rules",
          "type": "string"
        },
        {
          "internalType": "string",
          "name": "_guestInfo",
          "type": "string"
        }
      ],
      "name": "createListing",
      "outputs": [
        {
          "internalType": "uint256",
          "name": "",
          "type": "uint256"
        }
      ],
      "stateMutability": "nonpayable",
      "type": "function"
    },
    {
      "inputs": [
        {
          "internalType": "uint256",
          "name": "_listingId",
          "type": "uint256"
        },
        {
          "internalType": "string",
          "name": "_rules",
          "type": "string"
        },
        {
          "internalType": "string",
          "name": "_guestInfo",
          "type": "string"
        }
      ],
      "name": "editListing",
      "outputs": [
        {
          "internalType": "uint256",
          "name": "",
          "type": "uint256"
        }
      ],
      "stateMutability": "nonpayable",
      "type": "function"
    },
    {
      "inputs": [
        {
          "internalType": "uint256",
          "name": "_listingId",
          "type": "uint256"
        }
      ],
      "name": "getListingOwner",
      "outputs": [
        {
          "internalType": "address",
          "name": "",
          "type": "address"
        }
      ],
      "stateMutability": "view",
      "type": "function"
    },
    {
      "inputs": [
        {
          "internalType": "uint256",
          "name": "_listingId",
          "type": "uint256"
        }
      ],
      "name": "getListingRules",
      "outputs": [
        {
          "internalType": "string",
          "name": "",
          "type": "string"
        }
      ],
      "stateMutability": "view",
      "type": "function"
    },
    {
      "inputs": [
        {
          "internalType": "uint256",
          "name": "_listingId",
          "type": "uint256"
        }
      ],
      "name": "getListingGuestInfo",
      "outputs": [
        {
          "internalType": "string",
          "name": "",
          "type": "string"
        }
      ],
      "stateMutability": "view",
      "type": "function"
    },
    {
      "inputs": [
        {
          "internalType": "uint256",
          "name": "_listingId",
          "type": "uint256"
        }
      ],
      "name": "getListingPropertyId",
      "outputs": [
        {
          "internalType": "uint256",
          "name": "",
          "type": "uint256"
        }
      ],
      "stateMutability": "view",
      "type": "function"
    },
    {
      "inputs": [
        {
          "internalType": "uint256",
          "name": "_listingId",
          "type": "uint256"
        }
      ],
      "name": "getListingNumPrices",
      "outputs": [
        {
          "internalType": "uint256",
          "name": "",
          "type": "uint256"
        }
      ],
      "stateMutability": "view",
      "type": "function"
    },
    {
      "inputs": [
        {
          "internalType": "uint256",
          "name": "_listingId",
          "type": "uint256"
        },
        {
          "internalType": "uint256",
          "name": "_priceId",
          "type": "uint256"
        }
      ],
      "name": "getListingPriceAmount",
      "outputs": [
        {
          "internalType": "uint64",
          "name": "",
          "type": "uint64"
        }
      ],
      "stateMutability": "view",
      "type": "function"
    },
    {
      "inputs": [
        {
          "internalType": "uint256",
          "name": "_listingId",
          "type": "uint256"
        },
        {
          "internalType": "uint256",
          "name": "_priceId",
          "type": "uint256"
        }
      ],
      "name": "getListingPriceCurrency",
      "outputs": [
        {
          "internalType": "bytes3",
          "name": "",
          "type": "bytes3"
        }
      ],
      "stateMutability": "view",
      "type": "function"
    },
    {
      "inputs": [
        {
          "internalType": "uint256",
          "name": "_listingId",
          "type": "uint256"
        },
        {
          "internalType": "uint256",
          "name": "_priceId",
          "type": "uint256"
        }
      ],
      "name": "getListingPriceStartTime",
      "outputs": [
        {
          "internalType": "uint64",
          "name": "",
          "type": "uint64"
        }
      ],
      "stateMutability": "view",
      "type": "function"
    },
    {
      "inputs": [
        {
          "internalType": "uint256",
          "name": "_listingId",
          "type": "uint256"
        },
        {
          "internalType": "uint256",
          "name": "_priceId",
          "type": "uint256"
        }
      ],
      "name": "getListingPriceEndTime",
      "outputs": [
        {
          "internalType": "uint64",
          "name": "",
          "type": "uint64"
        }
      ],
      "stateMutability": "view",
      "type": "function"
    },
    {
      "inputs": [
        {
          "internalType": "uint256",
          "name": "_listingId",
          "type": "uint256"
        },
        {
          "internalType": "uint64",
          "name": "_amountInCents",
          "type": "uint64"
        },
        {
          "internalType": "bytes3",
          "name": "_currency",
          "type": "bytes3"
        },
        {
          "internalType": "uint64",
          "name": "_startEpochTime",
          "type": "uint64"
        },
        {
          "internalType": "uint64",
          "name": "_endEpochTime",
          "type": "uint64"
        }
      ],
      "name": "appendPrice",
      "outputs": [
        {
          "internalType": "uint256",
          "name": "",
          "type": "uint256"
        }
      ],
      "stateMutability": "nonpayable",
      "type": "function"
    },
    {
      "inputs": [
        {
          "internalType": "uint256",
          "name": "_listingId",
          "type": "uint256"
        },
        {
          "internalType": "uint64",
          "name": "_dateTime",
          "type": "uint64"
        }
      ],
      "name": "determinePrice",
      "outputs": [
        {
          "internalType": "int256",
          "name": "",
          "type": "int256"
        }
      ],
      "stateMutability": "view",
      "type": "function"
    }
  ],
  "bytecode": "0x608060405260006001556040518060400160405280600f81526020017f4c697374696e67204d616e6167657200000000000000000000000000000000008152506003908051906020019062000056929190620000ac565b503480156200006457600080fd5b5033600260006101000a81548173ffffffffffffffffffffffffffffffffffffffff021916908373ffffffffffffffffffffffffffffffffffffffff160217905550620001c1565b828054620000ba906200015c565b90600052602060002090601f016020900481019282620000de57600085556200012a565b82601f10620000f957805160ff19168380011785556200012a565b828001600101855582156200012a579182015b82811115620001295782518255916020019190600101906200010c565b5b5090506200013991906200013d565b5090565b5b80821115620001585760008160009055506001016200013e565b5090565b600060028204905060018216806200017557607f821691505b602082108114156200018c576200018b62000192565b5b50919050565b7f4e487b7100000000000000000000000000000000000000000000000000000000600052602260045260246000fd5b61131a80620001d16000396000f3fe608060405234801561001057600080fd5b50600436106101005760003560e01c80638c42158911610097578063b5a9a25c11610066578063b5a9a25c1461030f578063be21a62d1461033f578063cd560b951461036f578063df5a77671461039f57610100565b80638c421589146102615780638da5cb5b14610291578063905546e3146102af578063a570a120146102df57610100565b806334d86f56116100d357806334d86f56146101b35780634140efb6146101e35780636d25aaaf146102135780637b2d54731461023157610100565b806306fdde03146101055780630f05fad314610123578063235bdc8b14610153578063345feef114610183575b600080fd5b61010d6103cf565b60405161011a9190610f7b565b60405180910390f35b61013d60048036038101906101389190610cf3565b61045d565b60405161014a9190610f7b565b60405180910390f35b61016d60048036038101906101689190610dab565b610504565b60405161017a9190610fb8565b60405180910390f35b61019d60048036038101906101989190610cf3565b61054c565b6040516101aa9190610f9d565b60405180910390f35b6101cd60048036038101906101c89190610deb565b61056b565b6040516101da9190610f60565b60405180910390f35b6101fd60048036038101906101f89190610cf3565b610692565b60405161020a9190610f7b565b60405180910390f35b61021b610739565b6040516102289190610f9d565b60405180910390f35b61024b60048036038101906102469190610cf3565b61073f565b6040516102589190610f2a565b60405180910390f35b61027b60048036038101906102769190610dab565b61077e565b6040516102889190610f45565b60405180910390f35b6102996107bf565b6040516102a69190610f2a565b60405180910390f35b6102c960048036038101906102c49190610cf3565b6107e5565b6040516102d69190610f9d565b60405180910390f35b6102f960048036038101906102f49190610d20565b610804565b6040516103069190610f9d565b60405180910390f35b61032960048036038101906103249190610d20565b6108c7565b6040516103369190610f9d565b60405180910390f35b61035960048036038101906103549190610dab565b610977565b6040516103669190610fb8565b60405180910390f35b61038960048036038101906103849190610e2b565b6109bf565b6040516103969190610f9d565b60405180910390f35b6103b960048036038101906103b49190610dab565b610b59565b6040516103c69190610fb8565b60405180910390f35b600380546103dc90611141565b80601f016020809104026020016040519081016040528092919081815260200182805461040890611141565b80156104555780601f1061042a57610100808354040283529160200191610455565b820191906000526020600020905b81548152906001019060200180831161043857829003601f168201915b505050505081565b6060600080838152602001908152602001600020600101805461047f90611141565b80601f01602080910402602001604051908101604052809291908181526020018280546104ab90611141565b80156104f85780601f106104cd576101008083540402835291602001916104f8565b820191906000526020600020905b8154815290600101906020018083116104db57829003601f168201915b50505050509050919050565b60008060008481526020019081526020016000206003016000838152602001908152602001600020600001600b9054906101000a900467ffffffffffffffff16905092915050565b6000806000838152602001908152602001600020600401549050919050565b600080600080858152602001908152602001600020905060008160040154905060005b81811015610665576000836003016000838152602001908152602001600020905080600001600b9054906101000a900467ffffffffffffffff1667ffffffffffffffff168667ffffffffffffffff1611156106515760008160000160139054906101000a900467ffffffffffffffff1667ffffffffffffffff16148061063f57508060000160139054906101000a900467ffffffffffffffff1667ffffffffffffffff168667ffffffffffffffff16105b15610650578194505050505061068c565b5b50808061065d906111a4565b91505061058e565b507fffffffffffffffffffffffffffffffffffffffffffffffffffffffffffffffff925050505b92915050565b606060008083815260200190815260200160002060000180546106b490611141565b80601f01602080910402602001604051908101604052809291908181526020018280546106e090611141565b801561072d5780601f106107025761010080835404028352916020019161072d565b820191906000526020600020905b81548152906001019060200180831161071057829003601f168201915b50505050509050919050565b60015481565b600080600083815260200190815260200160002060050160009054906101000a900473ffffffffffffffffffffffffffffffffffffffff169050919050565b6000806000848152602001908152602001600020600301600083815260200190815260200160002060000160089054906101000a900460e81b905092915050565b600260009054906101000a900473ffffffffffffffffffffffffffffffffffffffff1681565b6000806000838152602001908152602001600020600201549050919050565b6000806000806001600081548092919061081d906111a4565b919050558152602001908152602001600020905083816000019080519060200190610849929190610ba1565b5082816001019080519060200190610862929190610ba1565b50848160020181905550338160050160006101000a81548173ffffffffffffffffffffffffffffffffffffffff021916908373ffffffffffffffffffffffffffffffffffffffff160217905550600180546108bd9190611045565b9150509392505050565b60008060008086815260200190815260200160002090503373ffffffffffffffffffffffffffffffffffffffff168160050160009054906101000a900473ffffffffffffffffffffffffffffffffffffffff1673ffffffffffffffffffffffffffffffffffffffff161461093a57600080fd5b83816000019080519060200190610952929190610ba1565b508281600101908051906020019061096b929190610ba1565b50849150509392505050565b6000806000848152602001908152602001600020600301600083815260200190815260200160002060000160139054906101000a900467ffffffffffffffff16905092915050565b60008060008088815260200190815260200160002090506000808567ffffffffffffffff1614156109f2574290506109f6565b8490505b600060405180608001604052808967ffffffffffffffff168152602001887cffffffffffffffffffffffffffffffffffffffffffffffffffffffffff191681526020018367ffffffffffffffff1681526020018667ffffffffffffffff16815250905080836003016000856004016000815480929190610a75906111a4565b91905055815260200190815260200160002060008201518160000160006101000a81548167ffffffffffffffff021916908367ffffffffffffffff16021790555060208201518160000160086101000a81548162ffffff021916908360e81c0217905550604082015181600001600b6101000a81548167ffffffffffffffff021916908367ffffffffffffffff16021790555060608201518160000160136101000a81548167ffffffffffffffff021916908367ffffffffffffffff16021790555090505060018360040154610b4b9190611045565b935050505095945050505050565b6000806000848152602001908152602001600020600301600083815260200190815260200160002060000160009054906101000a900467ffffffffffffffff16905092915050565b828054610bad90611141565b90600052602060002090601f016020900481019282610bcf5760008555610c16565b82601f10610be857805160ff1916838001178555610c16565b82800160010185558215610c16579182015b82811115610c15578251825591602001919060010190610bfa565b5b509050610c239190610c27565b5090565b5b80821115610c40576000816000905550600101610c28565b5090565b6000610c57610c5284610ff8565b610fd3565b905082815260208101848484011115610c7357610c7261127f565b5b610c7e8482856110ff565b509392505050565b600081359050610c958161129f565b92915050565b600082601f830112610cb057610caf61127a565b5b8135610cc0848260208601610c44565b91505092915050565b600081359050610cd8816112b6565b92915050565b600081359050610ced816112cd565b92915050565b600060208284031215610d0957610d08611289565b5b6000610d1784828501610cc9565b91505092915050565b600080600060608486031215610d3957610d38611289565b5b6000610d4786828701610cc9565b935050602084013567ffffffffffffffff811115610d6857610d67611284565b5b610d7486828701610c9b565b925050604084013567ffffffffffffffff811115610d9557610d94611284565b5b610da186828701610c9b565b9150509250925092565b60008060408385031215610dc257610dc1611289565b5b6000610dd085828601610cc9565b9250506020610de185828601610cc9565b9150509250929050565b60008060408385031215610e0257610e01611289565b5b6000610e1085828601610cc9565b9250506020610e2185828601610cde565b9150509250929050565b600080600080600060a08688031215610e4757610e46611289565b5b6000610e5588828901610cc9565b9550506020610e6688828901610cde565b9450506040610e7788828901610c86565b9350506060610e8888828901610cde565b9250506080610e9988828901610cde565b9150509295509295909350565b610eaf81611079565b82525050565b610ebe8161108b565b82525050565b610ecd816110b7565b82525050565b6000610ede82611029565b610ee88185611034565b9350610ef881856020860161110e565b610f018161128e565b840191505092915050565b610f15816110e1565b82525050565b610f24816110eb565b82525050565b6000602082019050610f3f6000830184610ea6565b92915050565b6000602082019050610f5a6000830184610eb5565b92915050565b6000602082019050610f756000830184610ec4565b92915050565b60006020820190508181036000830152610f958184610ed3565b905092915050565b6000602082019050610fb26000830184610f0c565b92915050565b6000602082019050610fcd6000830184610f1b565b92915050565b6000610fdd610fee565b9050610fe98282611173565b919050565b6000604051905090565b600067ffffffffffffffff8211156110135761101261124b565b5b61101c8261128e565b9050602081019050919050565b600081519050919050565b600082825260208201905092915050565b6000611050826110e1565b915061105b836110e1565b92508282101561106e5761106d6111ed565b5b828203905092915050565b6000611084826110c1565b9050919050565b60007fffffff000000000000000000000000000000000000000000000000000000000082169050919050565b6000819050919050565b600073ffffffffffffffffffffffffffffffffffffffff82169050919050565b6000819050919050565b600067ffffffffffffffff82169050919050565b82818337600083830152505050565b60005b8381101561112c578082015181840152602081019050611111565b8381111561113b576000848401525b50505050565b6000600282049050600182168061115957607f821691505b6020821081141561116d5761116c61121c565b5b50919050565b61117c8261128e565b810181811067ffffffffffffffff8211171561119b5761119a61124b565b5b80604052505050565b60006111af826110e1565b91507fffffffffffffffffffffffffffffffffffffffffffffffffffffffffffffffff8214156111e2576111e16111ed565b5b600182019050919050565b7f4e487b7100000000000000000000000000000000000000000000000000000000600052601160045260246000fd5b7f4e487b7100000000000000000000000000000000000000000000000000000000600052602260045260246000fd5b7f4e487b7100000000000000000000000000000000000000000000000000000000600052604160045260246000fd5b600080fd5b600080fd5b600080fd5b600080fd5b6000601f19601f8301169050919050565b6112a88161108b565b81146112b357600080fd5b50565b6112bf816110e1565b81146112ca57600080fd5b50565b6112d6816110eb565b81146112e157600080fd5b5056fea2646970667358221220eb55f5ad7619000cc16fb60a1d871345c7ecd164ffb1070756dc0383c206094b64736f6c63430008050033",
  "immutableReferences": {},
  "source": "// SPDX-License-Identifier: UNLICENSED\npragma solidity ^0.8.0;\n\nimport './Structs/Price.sol';\nimport './Structs/Listing.sol';\n\ncontract ListingManager {\n\tmapping(uint => Listing) listings;\n\n\tuint public numOfListings = 0;\n\taddress public owner;\n\tstring public name = \"Listing Manager\";\n\n\tconstructor() {\n\t\towner = msg.sender;\n\t}\n\n\tfunction createListing(uint _propertyId, string memory _rules, string memory _guestInfo) public returns (uint) {\n\t\t// Price memory price = Price(_amountInCents, 'USD', uint64(block.timestamp), 0);\n\t\t\n\t\tListing storage newListing = listings[numOfListings++];\n\t\tnewListing.rules = _rules;\n\t\tnewListing.guestInfo = _guestInfo;\n\t\tnewListing.propertyId = _propertyId;\n\t\tnewListing.owner = msg.sender;\n\t\t// newListing.prices[newListing.numOfPrices++] = price;\n\n\t\treturn numOfListings - 1;\n\t}\n\n\tfunction editListing(uint _listingId, string memory _rules, string memory _guestInfo) public returns (uint) {\n\t\tListing storage requestedListing = listings[_listingId];\n\n\t\trequire(requestedListing.owner == msg.sender);\n\n\t\trequestedListing.rules = _rules;\n\t\trequestedListing.guestInfo = _guestInfo;\n\n\t\treturn _listingId;\n\t}\n\n\tfunction getListingOwner(uint _listingId) public view returns (address) {\n\t\treturn listings[_listingId].owner;\n\t}\n\n\tfunction getListingRules(uint _listingId) public view returns (string memory) {\n\t\treturn listings[_listingId].rules;\n\t}\n\n\tfunction getListingGuestInfo(uint _listingId) public view returns (string memory) {\n\t\treturn listings[_listingId].guestInfo;\n\t}\n\n\tfunction getListingPropertyId(uint _listingId) public view returns (uint) {\n\t\treturn listings[_listingId].propertyId;\n\t}\n\n\tfunction getListingNumPrices(uint _listingId) public view returns (uint) {\n\t\treturn listings[_listingId].numOfPrices;\n\t}\n\n\tfunction getListingPriceAmount(uint _listingId, uint _priceId) public view returns (uint64) {\n\t\treturn listings[_listingId].prices[_priceId].amountInCents;\n\t}\n\n\tfunction getListingPriceCurrency(uint _listingId, uint _priceId) public view returns (bytes3) {\n\t\treturn listings[_listingId].prices[_priceId].currency;\n\t}\n\n\tfunction getListingPriceStartTime(uint _listingId, uint _priceId) public view returns (uint64) {\n\t\treturn listings[_listingId].prices[_priceId].startEpochTime;\n\t}\n\n\tfunction getListingPriceEndTime(uint _listingId, uint _priceId) public view returns (uint64) {\n\t\treturn listings[_listingId].prices[_priceId].endEpochTime;\n\t}\n\n\tfunction appendPrice(uint _listingId, uint64 _amountInCents, bytes3 _currency, uint64 _startEpochTime, uint64 _endEpochTime) public returns (uint) {\n\t\tListing storage listing = listings[_listingId];\n\t\tuint64 startTime;\n\n\t\tif (_startEpochTime == 0) {\n\t\t\tstartTime = uint64(block.timestamp);\n\t\t} else {\n\t\t\tstartTime = _startEpochTime;\n\t\t}\n\n\t\tPrice memory price = Price(_amountInCents, _currency, startTime, _endEpochTime);\n\t\tlisting.prices[listing.numOfPrices++] = price;\n\n\t\treturn listing.numOfPrices - 1;\n\t}\n\n\tfunction determinePrice(uint _listingId, uint64 _dateTime) public view returns (int) {\n\t\tListing storage listing = listings[_listingId];\n\n\t\tuint numOfPrices = listing.numOfPrices;\n\n\t\tfor (uint i = 0; i < numOfPrices; i++) {\n\t\t\tPrice storage p = listing.prices[i];\n\t\t\t\n\t\t\tif (_dateTime > p.startEpochTime) {\n\t\t\t\tif (p.endEpochTime == 0 || _dateTime < p.endEpochTime) {// if there is no end datetime to price\n\t\t\t\t\treturn int(i);\n\t\t\t\t}\n\t\t\t}\n\t\t}\n\n\t\treturn -1;\n\t}\n}",
  "sourcePath": "/Users/ian/Code/eth_contracts/yumebnb/yume_contracts/src/contracts/ListingManager.sol",
  "compiler": {
    "name": "solc",
    "version": "0.8.5+commit.a4f2e591.Emscripten.clang"
  },
  "schemaVersion": "3.4.1",
  "updatedAt": "2021-06-21T04:24:14.010Z",
  "devdoc": {
    "kind": "dev",
    "methods": {},
    "version": 1
  },
  "userdoc": {
    "kind": "user",
    "methods": {},
    "version": 1
  }
}