{
  "contractName": "ListingManager",
  "abi": [
    {
      "inputs": [],
      "stateMutability": "nonpayable",
      "type": "constructor"
    },
    {
      "inputs": [],
      "name": "name",
      "outputs": [
        {
          "internalType": "string",
          "name": "",
          "type": "string"
        }
      ],
      "stateMutability": "view",
      "type": "function"
    },
    {
      "inputs": [],
      "name": "numOfListings",
      "outputs": [
        {
          "internalType": "uint256",
          "name": "",
          "type": "uint256"
        }
      ],
      "stateMutability": "view",
      "type": "function"
    },
    {
      "inputs": [],
      "name": "owner",
      "outputs": [
        {
          "internalType": "address",
          "name": "",
          "type": "address"
        }
      ],
      "stateMutability": "view",
      "type": "function"
    },
    {
      "inputs": [
        {
          "internalType": "uint256",
          "name": "_propertyId",
          "type": "uint256"
        },
        {
          "internalType": "string",
          "name": "_rules",
          "type": "string"
        },
        {
          "internalType": "string",
          "name": "_guestInfo",
          "type": "string"
        }
      ],
      "name": "createListing",
      "outputs": [
        {
          "internalType": "uint256",
          "name": "",
          "type": "uint256"
        }
      ],
      "stateMutability": "nonpayable",
      "type": "function"
    },
    {
      "inputs": [
        {
          "internalType": "uint256",
          "name": "_listingId",
          "type": "uint256"
        },
        {
          "internalType": "string",
          "name": "_rules",
          "type": "string"
        },
        {
          "internalType": "string",
          "name": "_guestInfo",
          "type": "string"
        }
      ],
      "name": "editListing",
      "outputs": [
        {
          "internalType": "uint256",
          "name": "",
          "type": "uint256"
        }
      ],
      "stateMutability": "nonpayable",
      "type": "function"
    },
    {
      "inputs": [
        {
          "internalType": "uint256",
          "name": "_listingId",
          "type": "uint256"
        },
        {
          "internalType": "uint64",
          "name": "_amountInCents",
          "type": "uint64"
        },
        {
          "internalType": "bytes3",
          "name": "_currency",
          "type": "bytes3"
        },
        {
          "internalType": "uint64",
          "name": "_startEpochTime",
          "type": "uint64"
        },
        {
          "internalType": "uint64",
          "name": "_endEpochTime",
          "type": "uint64"
        }
      ],
      "name": "appendPrice",
      "outputs": [
        {
          "internalType": "uint256",
          "name": "",
          "type": "uint256"
        }
      ],
      "stateMutability": "nonpayable",
      "type": "function"
    },
    {
      "inputs": [
        {
          "internalType": "uint256",
          "name": "_listingId",
          "type": "uint256"
        },
        {
          "internalType": "uint64",
          "name": "_startTime",
          "type": "uint64"
        },
        {
          "internalType": "uint64",
          "name": "_endTime",
          "type": "uint64"
        }
      ],
      "name": "determinePrice",
      "outputs": [
        {
          "internalType": "uint256",
          "name": "",
          "type": "uint256"
        }
      ],
      "stateMutability": "view",
      "type": "function"
    },
    {
      "inputs": [
        {
          "internalType": "uint256",
          "name": "_listingId",
          "type": "uint256"
        }
      ],
      "name": "getListingOwner",
      "outputs": [
        {
          "internalType": "address",
          "name": "",
          "type": "address"
        }
      ],
      "stateMutability": "view",
      "type": "function"
    },
    {
      "inputs": [
        {
          "internalType": "uint256",
          "name": "_listingId",
          "type": "uint256"
        }
      ],
      "name": "getListingRules",
      "outputs": [
        {
          "internalType": "string",
          "name": "",
          "type": "string"
        }
      ],
      "stateMutability": "view",
      "type": "function"
    },
    {
      "inputs": [
        {
          "internalType": "uint256",
          "name": "_listingId",
          "type": "uint256"
        }
      ],
      "name": "getListingGuestInfo",
      "outputs": [
        {
          "internalType": "string",
          "name": "",
          "type": "string"
        }
      ],
      "stateMutability": "view",
      "type": "function"
    },
    {
      "inputs": [
        {
          "internalType": "uint256",
          "name": "_listingId",
          "type": "uint256"
        }
      ],
      "name": "getListingPropertyId",
      "outputs": [
        {
          "internalType": "uint256",
          "name": "",
          "type": "uint256"
        }
      ],
      "stateMutability": "view",
      "type": "function"
    },
    {
      "inputs": [
        {
          "internalType": "uint256",
          "name": "_listingId",
          "type": "uint256"
        }
      ],
      "name": "getListingNumPrices",
      "outputs": [
        {
          "internalType": "uint256",
          "name": "",
          "type": "uint256"
        }
      ],
      "stateMutability": "view",
      "type": "function"
    },
    {
      "inputs": [
        {
          "internalType": "uint256",
          "name": "_listingId",
          "type": "uint256"
        },
        {
          "internalType": "uint256",
          "name": "_priceId",
          "type": "uint256"
        }
      ],
      "name": "getListingPriceAmount",
      "outputs": [
        {
          "internalType": "uint64",
          "name": "",
          "type": "uint64"
        }
      ],
      "stateMutability": "view",
      "type": "function"
    },
    {
      "inputs": [
        {
          "internalType": "uint256",
          "name": "_listingId",
          "type": "uint256"
        },
        {
          "internalType": "uint256",
          "name": "_priceId",
          "type": "uint256"
        }
      ],
      "name": "getListingPriceCurrency",
      "outputs": [
        {
          "internalType": "bytes3",
          "name": "",
          "type": "bytes3"
        }
      ],
      "stateMutability": "view",
      "type": "function"
    },
    {
      "inputs": [
        {
          "internalType": "uint256",
          "name": "_listingId",
          "type": "uint256"
        },
        {
          "internalType": "uint256",
          "name": "_priceId",
          "type": "uint256"
        }
      ],
      "name": "getListingPriceStartTime",
      "outputs": [
        {
          "internalType": "uint64",
          "name": "",
          "type": "uint64"
        }
      ],
      "stateMutability": "view",
      "type": "function"
    },
    {
      "inputs": [
        {
          "internalType": "uint256",
          "name": "_listingId",
          "type": "uint256"
        },
        {
          "internalType": "uint256",
          "name": "_priceId",
          "type": "uint256"
        }
      ],
      "name": "getListingPriceEndTime",
      "outputs": [
        {
          "internalType": "uint64",
          "name": "",
          "type": "uint64"
        }
      ],
      "stateMutability": "view",
      "type": "function"
    }
  ],
  "bytecode": "0x60806040526201518060005560006003556040518060400160405280600f81526020017f4c697374696e67204d616e616765720000000000000000000000000000000000815250600590805190602001906200005d929190620000b3565b503480156200006b57600080fd5b5033600460006101000a81548173ffffffffffffffffffffffffffffffffffffffff021916908373ffffffffffffffffffffffffffffffffffffffff160217905550620001c8565b828054620000c19062000163565b90600052602060002090601f016020900481019282620000e5576000855562000131565b82601f106200010057805160ff191683800117855562000131565b8280016001018555821562000131579182015b828111156200013057825182559160200191906001019062000113565b5b50905062000140919062000144565b5090565b5b808211156200015f57600081600090555060010162000145565b5090565b600060028204905060018216806200017c57607f821691505b6020821081141562000193576200019262000199565b5b50919050565b7f4e487b7100000000000000000000000000000000000000000000000000000000600052602260045260246000fd5b6116fc80620001d86000396000f3fe608060405234801561001057600080fd5b50600436106101005760003560e01c80638da5cb5b11610097578063be21a62d11610066578063be21a62d1461030f578063cd560b951461033f578063df5a77671461036f578063ebd915181461039f57610100565b80638da5cb5b14610261578063905546e31461027f578063a570a120146102af578063b5a9a25c146102df57610100565b80634140efb6116100d35780634140efb6146101b35780636d25aaaf146101e35780637b2d5473146102015780638c4215891461023157610100565b806306fdde03146101055780630f05fad314610123578063235bdc8b14610153578063345feef114610183575b600080fd5b61010d6103cf565b60405161011a919061124a565b60405180910390f35b61013d60048036038101906101389190610fa7565b61045d565b60405161014a919061124a565b60405180910390f35b61016d6004803603810190610168919061105f565b610505565b60405161017a91906112d0565b60405180910390f35b61019d60048036038101906101989190610fa7565b6105a0565b6040516101aa919061128c565b60405180910390f35b6101cd60048036038101906101c89190610fa7565b6105c0565b6040516101da919061124a565b60405180910390f35b6101eb610668565b6040516101f8919061128c565b60405180910390f35b61021b60048036038101906102169190610fa7565b61066e565b6040516102289190611214565b60405180910390f35b61024b6004803603810190610246919061105f565b6106ae565b604051610258919061122f565b60405180910390f35b610269610742565b6040516102769190611214565b60405180910390f35b61029960048036038101906102949190610fa7565b610768565b6040516102a6919061128c565b60405180910390f35b6102c960048036038101906102c49190610fd4565b610788565b6040516102d6919061128c565b60405180910390f35b6102f960048036038101906102f49190610fd4565b61084d565b604051610306919061128c565b60405180910390f35b6103296004803603810190610324919061105f565b6108fe565b60405161033691906112d0565b60405180910390f35b6103596004803603810190610354919061109f565b610999565b604051610366919061128c565b60405180910390f35b6103896004803603810190610384919061105f565b610bc8565b60405161039691906112d0565b60405180910390f35b6103b960048036038101906103b4919061111a565b610c63565b6040516103c6919061128c565b60405180910390f35b600580546103dc906114a5565b80601f0160208091040260200160405190810160405280929190818152602001828054610408906114a5565b80156104555780601f1061042a57610100808354040283529160200191610455565b820191906000526020600020905b81548152906001019060200180831161043857829003601f168201915b505050505081565b6060600160008381526020019081526020016000206001018054610480906114a5565b80601f01602080910402602001604051908101604052809291908181526020018280546104ac906114a5565b80156104f95780601f106104ce576101008083540402835291602001916104f9565b820191906000526020600020905b8154815290600101906020018083116104dc57829003601f168201915b50505050509050919050565b600081610511846105a0565b11610551576040517f08c379a00000000000000000000000000000000000000000000000000000000081526004016105489061126c565b60405180910390fd5b600260008481526020019081526020016000208281548110610576576105756115af565b5b90600052602060002001600001600b9054906101000a900467ffffffffffffffff16905092915050565b600060016000838152602001908152602001600020600301549050919050565b60606001600083815260200190815260200160002060000180546105e3906114a5565b80601f016020809104026020016040519081016040528092919081815260200182805461060f906114a5565b801561065c5780601f106106315761010080835404028352916020019161065c565b820191906000526020600020905b81548152906001019060200180831161063f57829003601f168201915b50505050509050919050565b60035481565b60006001600083815260200190815260200160002060040160009054906101000a900473ffffffffffffffffffffffffffffffffffffffff169050919050565b6000816106ba846105a0565b116106fa576040517f08c379a00000000000000000000000000000000000000000000000000000000081526004016106f19061126c565b60405180910390fd5b60026000848152602001908152602001600020828154811061071f5761071e6115af565b5b9060005260206000200160000160089054906101000a900460e81b905092915050565b600460009054906101000a900473ffffffffffffffffffffffffffffffffffffffff1681565b600060016000838152602001908152602001600020600201549050919050565b60008060016000600360008154809291906107a290611508565b9190505581526020019081526020016000209050838160000190805190602001906107ce929190610e55565b50828160010190805190602001906107e7929190610e55565b50848160020181905550338160040160006101000a81548173ffffffffffffffffffffffffffffffffffffffff021916908373ffffffffffffffffffffffffffffffffffffffff160217905550600160035461084391906113b3565b9150509392505050565b6000806001600086815260200190815260200160002090503373ffffffffffffffffffffffffffffffffffffffff168160040160009054906101000a900473ffffffffffffffffffffffffffffffffffffffff1673ffffffffffffffffffffffffffffffffffffffff16146108c157600080fd5b838160000190805190602001906108d9929190610e55565b50828160010190805190602001906108f2929190610e55565b50849150509392505050565b60008161090a846105a0565b1161094a576040517f08c379a00000000000000000000000000000000000000000000000000000000081526004016109419061126c565b60405180910390fd5b60026000848152602001908152602001600020828154811061096f5761096e6115af565b5b9060005260206000200160000160139054906101000a900467ffffffffffffffff16905092915050565b60008267ffffffffffffffff168267ffffffffffffffff1673__DateTime______________________________6370ffa43183836040518363ffffffff1660e01b81526004016109ea9291906112a7565b60006040518083038186803b158015610a0257600080fd5b505af4158015610a16573d6000803e3d6000fd5b505050506000600160008a815260200190815260200160002090506000808767ffffffffffffffff161415610a4d57429050610a51565b8690505b600060405180608001604052808b67ffffffffffffffff1681526020018a7cffffffffffffffffffffffffffffffffffffffffffffffffffffffffff191681526020018367ffffffffffffffff1681526020018867ffffffffffffffff168152509050600260008c8152602001908152602001600020819080600181540180825580915050600190039060005260206000200160009091909190915060008201518160000160006101000a81548167ffffffffffffffff021916908367ffffffffffffffff16021790555060208201518160000160086101000a81548162ffffff021916908360e81c0217905550604082015181600001600b6101000a81548167ffffffffffffffff021916908367ffffffffffffffff16021790555060608201518160000160136101000a81548167ffffffffffffffff021916908367ffffffffffffffff1602179055505050826003016000815480929190610bb490611508565b919050559550505050505095945050505050565b600081610bd4846105a0565b11610c14576040517f08c379a0000000000000000000000000000000000000000000000000000000008152600401610c0b9061126c565b60405180910390fd5b600260008481526020019081526020016000208281548110610c3957610c386115af565b5b9060005260206000200160000160009054906101000a900467ffffffffffffffff16905092915050565b60008267ffffffffffffffff168267ffffffffffffffff1673__DateTime______________________________6370ffa43183836040518363ffffffff1660e01b8152600401610cb49291906112a7565b60006040518083038186803b158015610ccc57600080fd5b505af4158015610ce0573d6000803e3d6000fd5b50505050600060016000888152602001908152602001600020905060008160030154905060008060008967ffffffffffffffff1690505b8867ffffffffffffffff168111158015610d3057508382105b15610e44576000600260008d81526020019081526020016000208381548110610d5c57610d5b6115af565b5b90600052602060002001905080600001600b9054906101000a900467ffffffffffffffff1667ffffffffffffffff168210610e305760008160000160139054906101000a900467ffffffffffffffff1667ffffffffffffffff161480610de457508060000160139054906101000a900467ffffffffffffffff1667ffffffffffffffff168211155b15610e2f578060000160009054906101000a900467ffffffffffffffff1667ffffffffffffffff1684610e17919061135d565b935060005482610e27919061135d565b915050610d17565b5b8280610e3b90611508565b93505050610d17565b829750505050505050509392505050565b828054610e61906114a5565b90600052602060002090601f016020900481019282610e835760008555610eca565b82601f10610e9c57805160ff1916838001178555610eca565b82800160010185558215610eca579182015b82811115610ec9578251825591602001919060010190610eae565b5b509050610ed79190610edb565b5090565b5b80821115610ef4576000816000905550600101610edc565b5090565b6000610f0b610f0684611310565b6112eb565b905082815260208101848484011115610f2757610f26611612565b5b610f32848285611463565b509392505050565b600081359050610f4981611681565b92915050565b600082601f830112610f6457610f6361160d565b5b8135610f74848260208601610ef8565b91505092915050565b600081359050610f8c81611698565b92915050565b600081359050610fa1816116af565b92915050565b600060208284031215610fbd57610fbc61161c565b5b6000610fcb84828501610f7d565b91505092915050565b600080600060608486031215610fed57610fec61161c565b5b6000610ffb86828701610f7d565b935050602084013567ffffffffffffffff81111561101c5761101b611617565b5b61102886828701610f4f565b925050604084013567ffffffffffffffff81111561104957611048611617565b5b61105586828701610f4f565b9150509250925092565b600080604083850312156110765761107561161c565b5b600061108485828601610f7d565b925050602061109585828601610f7d565b9150509250929050565b600080600080600060a086880312156110bb576110ba61161c565b5b60006110c988828901610f7d565b95505060206110da88828901610f92565b94505060406110eb88828901610f3a565b93505060606110fc88828901610f92565b925050608061110d88828901610f92565b9150509295509295909350565b6000806000606084860312156111335761113261161c565b5b600061114186828701610f7d565b935050602061115286828701610f92565b925050604061116386828701610f92565b9150509250925092565b611176816113e7565b82525050565b611185816113f9565b82525050565b600061119682611341565b6111a0818561134c565b93506111b0818560208601611472565b6111b981611621565b840191505092915050565b60006111d160298361134c565b91506111dc82611632565b604082019050919050565b6111f081611445565b82525050565b6111ff81611445565b82525050565b61120e8161144f565b82525050565b6000602082019050611229600083018461116d565b92915050565b6000602082019050611244600083018461117c565b92915050565b60006020820190508181036000830152611264818461118b565b905092915050565b60006020820190508181036000830152611285816111c4565b9050919050565b60006020820190506112a160008301846111e7565b92915050565b60006040820190506112bc60008301856111f6565b6112c960208301846111f6565b9392505050565b60006020820190506112e56000830184611205565b92915050565b60006112f5611306565b905061130182826114d7565b919050565b6000604051905090565b600067ffffffffffffffff82111561132b5761132a6115de565b5b61133482611621565b9050602081019050919050565b600081519050919050565b600082825260208201905092915050565b600061136882611445565b915061137383611445565b9250827fffffffffffffffffffffffffffffffffffffffffffffffffffffffffffffffff038211156113a8576113a7611551565b5b828201905092915050565b60006113be82611445565b91506113c983611445565b9250828210156113dc576113db611551565b5b828203905092915050565b60006113f282611425565b9050919050565b60007fffffff000000000000000000000000000000000000000000000000000000000082169050919050565b600073ffffffffffffffffffffffffffffffffffffffff82169050919050565b6000819050919050565b600067ffffffffffffffff82169050919050565b82818337600083830152505050565b60005b83811015611490578082015181840152602081019050611475565b8381111561149f576000848401525b50505050565b600060028204905060018216806114bd57607f821691505b602082108114156114d1576114d0611580565b5b50919050565b6114e082611621565b810181811067ffffffffffffffff821117156114ff576114fe6115de565b5b80604052505050565b600061151382611445565b91507fffffffffffffffffffffffffffffffffffffffffffffffffffffffffffffffff82141561154657611545611551565b5b600182019050919050565b7f4e487b7100000000000000000000000000000000000000000000000000000000600052601160045260246000fd5b7f4e487b7100000000000000000000000000000000000000000000000000000000600052602260045260246000fd5b7f4e487b7100000000000000000000000000000000000000000000000000000000600052603260045260246000fd5b7f4e487b7100000000000000000000000000000000000000000000000000000000600052604160045260246000fd5b600080fd5b600080fd5b600080fd5b600080fd5b6000601f19601f8301169050919050565b7f63616e206e6f742070617373205072696365204944206772656174657220746860008201527f656e206c656e6774680000000000000000000000000000000000000000000000602082015250565b61168a816113f9565b811461169557600080fd5b50565b6116a181611445565b81146116ac57600080fd5b50565b6116b88161144f565b81146116c357600080fd5b5056fea26469706673582212200e3b2c0eb17cd967030a6a7b923b91c14729075862487c5ade908eb1cc26ae3664736f6c63430008050033",
  "immutableReferences": {},
  "source": "// SPDX-License-Identifier: UNLICENSED\npragma solidity ^0.8.0;\n\nimport './structs/PriceRule.sol';\nimport './structs/Listing.sol';\nimport \"./Manager.sol\";\n\ncontract ListingManager is Manager {\n\tmapping(uint => Listing) listings;\n\tmapping(uint => PriceRule[]) priceRules;\n\n\tuint public numOfListings = 0;\n\taddress public owner;\n\tstring public name = \"Listing Manager\";\n\n\tconstructor() {\n\t\towner = msg.sender;\n\t}\n\n\tfunction createListing(uint _propertyId, string memory _rules, string memory _guestInfo) public returns (uint) {\n\t\tListing storage newListing = listings[numOfListings++];\n\t\tnewListing.rules = _rules;\n\t\tnewListing.guestInfo = _guestInfo;\n\t\tnewListing.propertyId = _propertyId;\n\t\tnewListing.owner = msg.sender;\n\n\t\treturn numOfListings - 1;\n\t}\n\n\tfunction editListing(uint _listingId, string memory _rules, string memory _guestInfo) public returns (uint) {\n\t\tListing storage requestedListing = listings[_listingId];\n\n\t\trequire(requestedListing.owner == msg.sender);\n\n\t\trequestedListing.rules = _rules;\n\t\trequestedListing.guestInfo = _guestInfo;\n\n\t\treturn _listingId;\n\t}\n\n\tfunction appendPrice(uint _listingId, uint64 _amountInCents, bytes3 _currency, uint64 _startEpochTime, uint64 _endEpochTime) public isAtMidnight2(_startEpochTime, _endEpochTime) returns (uint) {\n\t\tListing storage listing = listings[_listingId];\n\t\tuint64 startTime;\n\n\t\tif (_startEpochTime == 0) {\n\t\t\tstartTime = uint64(block.timestamp);\n\t\t} else {\n\t\t\tstartTime = _startEpochTime;\n\t\t}\n\n\t\tPriceRule memory price = PriceRule(_amountInCents, _currency, startTime, _endEpochTime);\n\t\tpriceRules[_listingId].push(price);\n\n\t\treturn listing.numOfPrices++;\n\t}\n\n\tfunction determinePrice(uint _listingId, uint64 _startTime, uint64 _endTime) public view isAtMidnight2(_startTime, _endTime) returns (uint) {\n\t\tListing storage listing = listings[_listingId];\n\n\t\tuint numOfPrices = listing.numOfPrices;\n\t\tuint totalPrice = 0;\n\t\tuint currentPriceIndex = 0;\n\t\tuint timeCursor = _startTime;\n\n\t\twhile (timeCursor <= _endTime && currentPriceIndex < numOfPrices) {\n\t\t\tPriceRule storage p = priceRules[_listingId][currentPriceIndex];\n\n\t\t\tif (timeCursor >= p.startEpochTime) {\n\t\t\t\tif (p.endEpochTime == 0 || timeCursor <= p.endEpochTime) { // if there is no end datetime OR cursor is before/equal to end time\n\t\t\t\t\ttotalPrice += p.amountInCents;\n\t\t\t\t\ttimeCursor += secsInDay;\n\t\t\t\t\tcontinue;\n\t\t\t\t}\n\t\t\t}\n\n\t\t\tcurrentPriceIndex++;\n\t\t}\n\n\t\treturn totalPrice;\n\t}\n\n\tfunction getListingOwner(uint _listingId) public view returns (address) {\n\t\treturn listings[_listingId].owner;\n\t}\n\n\tfunction getListingRules(uint _listingId) public view returns (string memory) {\n\t\treturn listings[_listingId].rules;\n\t}\n\n\tfunction getListingGuestInfo(uint _listingId) public view returns (string memory) {\n\t\treturn listings[_listingId].guestInfo;\n\t}\n\n\tfunction getListingPropertyId(uint _listingId) public view returns (uint) {\n\t\treturn listings[_listingId].propertyId;\n\t}\n\n\tfunction getListingNumPrices(uint _listingId) public view returns (uint) {\n\t\treturn listings[_listingId].numOfPrices;\n\t}\n\n\tfunction getListingPriceAmount(uint _listingId, uint _priceId) public view returns (uint64) {\n\t\trequire(getListingNumPrices(_listingId) > _priceId, \"can not pass Price ID greater then length\");\n\n\t\treturn priceRules[_listingId][_priceId].amountInCents;\n\t}\n\n\tfunction getListingPriceCurrency(uint _listingId, uint _priceId) public view returns (bytes3) {\n\t\trequire(getListingNumPrices(_listingId) > _priceId, \"can not pass Price ID greater then length\");\n\n\t\treturn priceRules[_listingId][_priceId].currency;\n\t}\n\n\tfunction getListingPriceStartTime(uint _listingId, uint _priceId) public view returns (uint64) {\n\t\trequire(getListingNumPrices(_listingId) > _priceId, \"can not pass Price ID greater then length\");\n\n\t\treturn priceRules[_listingId][_priceId].startEpochTime;\n\t}\n\n\tfunction getListingPriceEndTime(uint _listingId, uint _priceId) public view returns (uint64) {\n\t\trequire(getListingNumPrices(_listingId) > _priceId, \"can not pass Price ID greater then length\");\n\n\t\treturn priceRules[_listingId][_priceId].endEpochTime;\n\t}\n}\n",
  "sourcePath": "/Users/ian/Code/eth_contracts/yumebnb/yume_contracts/src/contracts/ListingManager.sol",
  "compiler": {
    "name": "solc",
    "version": "0.8.5+commit.a4f2e591.Emscripten.clang"
  },
  "schemaVersion": "3.4.1",
  "updatedAt": "2021-07-14T04:32:45.565Z",
  "devdoc": {
    "kind": "dev",
    "methods": {},
    "version": 1
  },
  "userdoc": {
    "kind": "user",
    "methods": {},
    "version": 1
  }
}