{
  "contractName": "ListingManager",
  "abi": [
    {
      "inputs": [],
      "stateMutability": "nonpayable",
      "type": "constructor"
    },
    {
      "inputs": [],
      "name": "name",
      "outputs": [
        {
          "internalType": "string",
          "name": "",
          "type": "string"
        }
      ],
      "stateMutability": "view",
      "type": "function"
    },
    {
      "inputs": [],
      "name": "numOfListings",
      "outputs": [
        {
          "internalType": "uint256",
          "name": "",
          "type": "uint256"
        }
      ],
      "stateMutability": "view",
      "type": "function"
    },
    {
      "inputs": [],
      "name": "owner",
      "outputs": [
        {
          "internalType": "address",
          "name": "",
          "type": "address"
        }
      ],
      "stateMutability": "view",
      "type": "function"
    },
    {
      "inputs": [
        {
          "internalType": "uint256",
          "name": "_propertyId",
          "type": "uint256"
        },
        {
          "internalType": "string",
          "name": "_rules",
          "type": "string"
        },
        {
          "internalType": "string",
          "name": "_guestInfo",
          "type": "string"
        }
      ],
      "name": "createListing",
      "outputs": [
        {
          "internalType": "uint256",
          "name": "",
          "type": "uint256"
        }
      ],
      "stateMutability": "nonpayable",
      "type": "function"
    },
    {
      "inputs": [
        {
          "internalType": "uint256",
          "name": "_listingId",
          "type": "uint256"
        },
        {
          "internalType": "string",
          "name": "_rules",
          "type": "string"
        },
        {
          "internalType": "string",
          "name": "_guestInfo",
          "type": "string"
        }
      ],
      "name": "editListing",
      "outputs": [
        {
          "internalType": "uint256",
          "name": "",
          "type": "uint256"
        }
      ],
      "stateMutability": "nonpayable",
      "type": "function"
    },
    {
      "inputs": [
        {
          "internalType": "uint256",
          "name": "_listingId",
          "type": "uint256"
        },
        {
          "internalType": "uint64",
          "name": "_amountInCents",
          "type": "uint64"
        },
        {
          "internalType": "bytes3",
          "name": "_currency",
          "type": "bytes3"
        },
        {
          "internalType": "uint64",
          "name": "_startEpochTime",
          "type": "uint64"
        },
        {
          "internalType": "uint64",
          "name": "_endEpochTime",
          "type": "uint64"
        }
      ],
      "name": "appendPrice",
      "outputs": [
        {
          "internalType": "uint256",
          "name": "",
          "type": "uint256"
        }
      ],
      "stateMutability": "nonpayable",
      "type": "function"
    },
    {
      "inputs": [
        {
          "internalType": "uint256",
          "name": "_listingId",
          "type": "uint256"
        },
        {
          "internalType": "uint64",
          "name": "_dateTime",
          "type": "uint64"
        }
      ],
      "name": "determinePrice",
      "outputs": [
        {
          "internalType": "int256",
          "name": "",
          "type": "int256"
        }
      ],
      "stateMutability": "view",
      "type": "function"
    },
    {
      "inputs": [
        {
          "internalType": "uint256",
          "name": "_listingId",
          "type": "uint256"
        }
      ],
      "name": "getListingOwner",
      "outputs": [
        {
          "internalType": "address",
          "name": "",
          "type": "address"
        }
      ],
      "stateMutability": "view",
      "type": "function"
    },
    {
      "inputs": [
        {
          "internalType": "uint256",
          "name": "_listingId",
          "type": "uint256"
        }
      ],
      "name": "getListingRules",
      "outputs": [
        {
          "internalType": "string",
          "name": "",
          "type": "string"
        }
      ],
      "stateMutability": "view",
      "type": "function"
    },
    {
      "inputs": [
        {
          "internalType": "uint256",
          "name": "_listingId",
          "type": "uint256"
        }
      ],
      "name": "getListingGuestInfo",
      "outputs": [
        {
          "internalType": "string",
          "name": "",
          "type": "string"
        }
      ],
      "stateMutability": "view",
      "type": "function"
    },
    {
      "inputs": [
        {
          "internalType": "uint256",
          "name": "_listingId",
          "type": "uint256"
        }
      ],
      "name": "getListingPropertyId",
      "outputs": [
        {
          "internalType": "uint256",
          "name": "",
          "type": "uint256"
        }
      ],
      "stateMutability": "view",
      "type": "function"
    },
    {
      "inputs": [
        {
          "internalType": "uint256",
          "name": "_listingId",
          "type": "uint256"
        }
      ],
      "name": "getListingNumPrices",
      "outputs": [
        {
          "internalType": "uint256",
          "name": "",
          "type": "uint256"
        }
      ],
      "stateMutability": "view",
      "type": "function"
    }
  ],
  "bytecode": "0x608060405260006001556040518060400160405280600f81526020017f4c697374696e67204d616e6167657200000000000000000000000000000000008152506003908051906020019062000056929190620000ac565b503480156200006457600080fd5b5033600260006101000a81548173ffffffffffffffffffffffffffffffffffffffff021916908373ffffffffffffffffffffffffffffffffffffffff160217905550620001c1565b828054620000ba906200015c565b90600052602060002090601f016020900481019282620000de57600085556200012a565b82601f10620000f957805160ff19168380011785556200012a565b828001600101855582156200012a579182015b82811115620001295782518255916020019190600101906200010c565b5b5090506200013991906200013d565b5090565b5b80821115620001585760008160009055506001016200013e565b5090565b600060028204905060018216806200017557607f821691505b602082108114156200018c576200018b62000192565b5b50919050565b7f4e487b7100000000000000000000000000000000000000000000000000000000600052602260045260246000fd5b610eb580620001d16000396000f3fe608060405234801561001057600080fd5b50600436106100b45760003560e01c80637b2d5473116100715780637b2d5473146101b55780638da5cb5b146101e5578063905546e314610203578063a570a12014610233578063b5a9a25c14610263578063cd560b9514610293576100b4565b806306fdde03146100b95780630f05fad3146100d7578063345feef11461010757806334d86f56146101375780634140efb6146101675780636d25aaaf14610197575b600080fd5b6100c16102c3565b6040516100ce9190610b4b565b60405180910390f35b6100f160048036038101906100ec919061093c565b610351565b6040516100fe9190610b4b565b60405180910390f35b610121600480360381019061011c919061093c565b610408565b60405161012e9190610b6d565b60405180910390f35b610151600480360381019061014c91906109f4565b610436565b60405161015e9190610b30565b60405180910390f35b610181600480360381019061017c919061093c565b61043e565b60405161018e9190610b4b565b60405180910390f35b61019f6104f5565b6040516101ac9190610b6d565b60405180910390f35b6101cf60048036038101906101ca919061093c565b6104fb565b6040516101dc9190610b15565b60405180910390f35b6101ed610549565b6040516101fa9190610b15565b60405180910390f35b61021d6004803603810190610218919061093c565b61056f565b60405161022a9190610b6d565b60405180910390f35b61024d60048036038101906102489190610969565b61059d565b60405161025a9190610b6d565b60405180910390f35b61027d60048036038101906102789190610969565b6106da565b60405161028a9190610b6d565b60405180910390f35b6102ad60048036038101906102a89190610a34565b61079a565b6040516102ba9190610b6d565b60405180910390f35b600380546102d090610cf6565b80601f01602080910402602001604051908101604052809291908181526020018280546102fc90610cf6565b80156103495780601f1061031e57610100808354040283529160200191610349565b820191906000526020600020905b81548152906001019060200180831161032c57829003601f168201915b505050505081565b60606000828154811061036757610366610db7565b5b9060005260206000209060050201600101805461038390610cf6565b80601f01602080910402602001604051908101604052809291908181526020018280546103af90610cf6565b80156103fc5780601f106103d1576101008083540402835291602001916103fc565b820191906000526020600020905b8154815290600101906020018083116103df57829003601f168201915b50505050509050919050565b600080828154811061041d5761041c610db7565b5b9060005260206000209060050201600301549050919050565b600092915050565b60606000828154811061045457610453610db7565b5b9060005260206000209060050201600001805461047090610cf6565b80601f016020809104026020016040519081016040528092919081815260200182805461049c90610cf6565b80156104e95780601f106104be576101008083540402835291602001916104e9565b820191906000526020600020905b8154815290600101906020018083116104cc57829003601f168201915b50505050509050919050565b60015481565b60008082815481106105105761050f610db7565b5b906000526020600020906005020160040160009054906101000a900473ffffffffffffffffffffffffffffffffffffffff169050919050565b600260009054906101000a900473ffffffffffffffffffffffffffffffffffffffff1681565b600080828154811061058457610583610db7565b5b9060005260206000209060050201600201549050919050565b60006105a76107a5565b8381600001819052508281602001819052508481604001818152505033816080019073ffffffffffffffffffffffffffffffffffffffff16908173ffffffffffffffffffffffffffffffffffffffff1681525050600081908060018154018082558091505060019003906000526020600020906005020160009091909190915060008201518160000190805190602001906106439291906107ea565b5060208201518160010190805190602001906106609291906107ea565b50604082015181600201556060820151816003015560808201518160040160006101000a81548173ffffffffffffffffffffffffffffffffffffffff021916908373ffffffffffffffffffffffffffffffffffffffff160217905550505060016000805490506106d09190610bfa565b9150509392505050565b600080600085815481106106f1576106f0610db7565b5b906000526020600020906005020190503373ffffffffffffffffffffffffffffffffffffffff168160040160009054906101000a900473ffffffffffffffffffffffffffffffffffffffff1673ffffffffffffffffffffffffffffffffffffffff161461075d57600080fd5b838160000190805190602001906107759291906107ea565b508281600101908051906020019061078e9291906107ea565b50849150509392505050565b600095945050505050565b6040518060a0016040528060608152602001606081526020016000815260200160008152602001600073ffffffffffffffffffffffffffffffffffffffff1681525090565b8280546107f690610cf6565b90600052602060002090601f016020900481019282610818576000855561085f565b82601f1061083157805160ff191683800117855561085f565b8280016001018555821561085f579182015b8281111561085e578251825591602001919060010190610843565b5b50905061086c9190610870565b5090565b5b80821115610889576000816000905550600101610871565b5090565b60006108a061089b84610bad565b610b88565b9050828152602081018484840111156108bc576108bb610e1a565b5b6108c7848285610cb4565b509392505050565b6000813590506108de81610e3a565b92915050565b600082601f8301126108f9576108f8610e15565b5b813561090984826020860161088d565b91505092915050565b60008135905061092181610e51565b92915050565b60008135905061093681610e68565b92915050565b60006020828403121561095257610951610e24565b5b600061096084828501610912565b91505092915050565b60008060006060848603121561098257610981610e24565b5b600061099086828701610912565b935050602084013567ffffffffffffffff8111156109b1576109b0610e1f565b5b6109bd868287016108e4565b925050604084013567ffffffffffffffff8111156109de576109dd610e1f565b5b6109ea868287016108e4565b9150509250925092565b60008060408385031215610a0b57610a0a610e24565b5b6000610a1985828601610912565b9250506020610a2a85828601610927565b9150509250929050565b600080600080600060a08688031215610a5057610a4f610e24565b5b6000610a5e88828901610912565b9550506020610a6f88828901610927565b9450506040610a80888289016108cf565b9350506060610a9188828901610927565b9250506080610aa288828901610927565b9150509295509295909350565b610ab881610c2e565b82525050565b610ac781610c6c565b82525050565b6000610ad882610bde565b610ae28185610be9565b9350610af2818560208601610cc3565b610afb81610e29565b840191505092915050565b610b0f81610c96565b82525050565b6000602082019050610b2a6000830184610aaf565b92915050565b6000602082019050610b456000830184610abe565b92915050565b60006020820190508181036000830152610b658184610acd565b905092915050565b6000602082019050610b826000830184610b06565b92915050565b6000610b92610ba3565b9050610b9e8282610d28565b919050565b6000604051905090565b600067ffffffffffffffff821115610bc857610bc7610de6565b5b610bd182610e29565b9050602081019050919050565b600081519050919050565b600082825260208201905092915050565b6000610c0582610c96565b9150610c1083610c96565b925082821015610c2357610c22610d59565b5b828203905092915050565b6000610c3982610c76565b9050919050565b60007fffffff000000000000000000000000000000000000000000000000000000000082169050919050565b6000819050919050565b600073ffffffffffffffffffffffffffffffffffffffff82169050919050565b6000819050919050565b600067ffffffffffffffff82169050919050565b82818337600083830152505050565b60005b83811015610ce1578082015181840152602081019050610cc6565b83811115610cf0576000848401525b50505050565b60006002820490506001821680610d0e57607f821691505b60208210811415610d2257610d21610d88565b5b50919050565b610d3182610e29565b810181811067ffffffffffffffff82111715610d5057610d4f610de6565b5b80604052505050565b7f4e487b7100000000000000000000000000000000000000000000000000000000600052601160045260246000fd5b7f4e487b7100000000000000000000000000000000000000000000000000000000600052602260045260246000fd5b7f4e487b7100000000000000000000000000000000000000000000000000000000600052603260045260246000fd5b7f4e487b7100000000000000000000000000000000000000000000000000000000600052604160045260246000fd5b600080fd5b600080fd5b600080fd5b600080fd5b6000601f19601f8301169050919050565b610e4381610c40565b8114610e4e57600080fd5b50565b610e5a81610c96565b8114610e6557600080fd5b50565b610e7181610ca0565b8114610e7c57600080fd5b5056fea26469706673582212207e729195b433c037bf983c8f7dc5972dfe5d57b0890e49096b69a1c71da27af164736f6c63430008050033",
  "immutableReferences": {},
  "source": "// SPDX-License-Identifier: UNLICENSED\npragma solidity ^0.8.0;\n\nimport './structs/Price.sol';\nimport './structs/Listing.sol';\n\ncontract ListingManager {\n\tListing[] listings;\n\n\tuint public numOfListings = 0;\n\taddress public owner;\n\tstring public name = \"Listing Manager\";\n\n\tconstructor() {\n\t\towner = msg.sender;\n\t}\n\n\tfunction createListing(uint _propertyId, string memory _rules, string memory _guestInfo) public returns (uint) {\n\t\tListing memory newListing;\n\t\tnewListing.rules = _rules;\n\t\tnewListing.guestInfo = _guestInfo;\n\t\tnewListing.propertyId = _propertyId;\n\t\tnewListing.owner = msg.sender;\n\n\t\tlistings.push(newListing);\n\n\t\treturn listings.length - 1;\n\t}\n\n\tfunction editListing(uint _listingId, string memory _rules, string memory _guestInfo) public returns (uint) {\n\t\tListing storage requestedListing = listings[_listingId];\n\n\t\trequire(requestedListing.owner == msg.sender);\n\n\t\trequestedListing.rules = _rules;\n\t\trequestedListing.guestInfo = _guestInfo;\n\n\t\treturn _listingId;\n\t}\n\n\tfunction appendPrice(uint _listingId, uint64 _amountInCents, bytes3 _currency, uint64 _startEpochTime, uint64 _endEpochTime) public returns (uint) {\n//\t\tListing storage listing = listings[_listingId];\n//\t\tuint64 startTime;\n//\n//\t\tif (_startEpochTime == 0) {\n//\t\t\tstartTime = uint64(block.timestamp);\n//\t\t} else {\n//\t\t\tstartTime = _startEpochTime;\n//\t\t}\n//\n//\t\tPrice memory price = Price(_amountInCents, _currency, startTime, _endEpochTime);\n//\t\tlisting.prices[listing.numOfPrices++] = price;\n\n//\t\treturn listing.numOfPrices - 1;\n\t}\n\n\tfunction determinePrice(uint _listingId, uint64 _dateTime) public view returns (int) {\n//\t\tListing storage listing = listings[_listingId];\n//\n//\t\tuint numOfPrices = listing.numOfPrices;\n//\n//\t\tfor (uint i = 0; i < numOfPrices; i++) {\n//\t\t\tPrice storage p = listing.prices[i];\n//\n//\t\t\tif (_dateTime > p.startEpochTime) {\n//\t\t\t\tif (p.endEpochTime == 0 || _dateTime < p.endEpochTime) {// if there is no end datetime to price\n//\t\t\t\t\treturn int(i);\n//\t\t\t\t}\n//\t\t\t}\n//\t\t}\n//\n//\t\treturn -1;\n\t}\n\n\tfunction getListingOwner(uint _listingId) public view returns (address) {\n\t\treturn listings[_listingId].owner;\n\t}\n\n\tfunction getListingRules(uint _listingId) public view returns (string memory) {\n\t\treturn listings[_listingId].rules;\n\t}\n\n\tfunction getListingGuestInfo(uint _listingId) public view returns (string memory) {\n\t\treturn listings[_listingId].guestInfo;\n\t}\n\n\tfunction getListingPropertyId(uint _listingId) public view returns (uint) {\n\t\treturn listings[_listingId].propertyId;\n\t}\n\n\tfunction getListingNumPrices(uint _listingId) public view returns (uint) {\n\t\treturn listings[_listingId].numOfPrices;\n\t}\n\n//\tfunction getListingPriceAmount(uint _listingId, uint _priceId) public view returns (uint64) {\n//\t\treturn listings[_listingId].prices[_priceId].amountInCents;\n//\t}\n//\n//\tfunction getListingPriceCurrency(uint _listingId, uint _priceId) public view returns (bytes3) {\n//\t\treturn listings[_listingId].prices[_priceId].currency;\n//\t}\n//\n//\tfunction getListingPriceStartTime(uint _listingId, uint _priceId) public view returns (uint64) {\n//\t\treturn listings[_listingId].prices[_priceId].startEpochTime;\n//\t}\n//\n//\tfunction getListingPriceEndTime(uint _listingId, uint _priceId) public view returns (uint64) {\n//\t\treturn listings[_listingId].prices[_priceId].endEpochTime;\n//\t}\n}\n",
  "sourcePath": "/Users/ian/Code/eth_contracts/yumebnb/yume_contracts/src/contracts/ListingManager.sol",
  "compiler": {
    "name": "solc",
    "version": "0.8.5+commit.a4f2e591.Emscripten.clang"
  },
  "schemaVersion": "3.4.1",
  "updatedAt": "2021-06-27T02:40:13.969Z",
  "devdoc": {
    "kind": "dev",
    "methods": {},
    "version": 1
  },
  "userdoc": {
    "kind": "user",
    "methods": {},
    "version": 1
  }
}