{
  "contractName": "ListingManager",
  "abi": [
    {
      "inputs": [],
      "stateMutability": "nonpayable",
      "type": "constructor"
    },
    {
      "inputs": [],
      "name": "listingIndex",
      "outputs": [
        {
          "internalType": "uint256",
          "name": "",
          "type": "uint256"
        }
      ],
      "stateMutability": "view",
      "type": "function"
    },
    {
      "inputs": [],
      "name": "name",
      "outputs": [
        {
          "internalType": "string",
          "name": "",
          "type": "string"
        }
      ],
      "stateMutability": "view",
      "type": "function"
    },
    {
      "inputs": [],
      "name": "numOfListings",
      "outputs": [
        {
          "internalType": "uint256",
          "name": "",
          "type": "uint256"
        }
      ],
      "stateMutability": "view",
      "type": "function"
    },
    {
      "inputs": [],
      "name": "owner",
      "outputs": [
        {
          "internalType": "address",
          "name": "",
          "type": "address"
        }
      ],
      "stateMutability": "view",
      "type": "function"
    },
    {
      "inputs": [
        {
          "internalType": "uint256",
          "name": "_propertyId",
          "type": "uint256"
        },
        {
          "internalType": "string",
          "name": "_rules",
          "type": "string"
        },
        {
          "internalType": "string",
          "name": "_guestInfo",
          "type": "string"
        }
      ],
      "name": "createListing",
      "outputs": [
        {
          "internalType": "uint256",
          "name": "",
          "type": "uint256"
        }
      ],
      "stateMutability": "nonpayable",
      "type": "function"
    },
    {
      "inputs": [
        {
          "internalType": "uint256",
          "name": "_listingId",
          "type": "uint256"
        },
        {
          "internalType": "string",
          "name": "_rules",
          "type": "string"
        },
        {
          "internalType": "string",
          "name": "_guestInfo",
          "type": "string"
        }
      ],
      "name": "editListing",
      "outputs": [
        {
          "internalType": "uint256",
          "name": "",
          "type": "uint256"
        }
      ],
      "stateMutability": "nonpayable",
      "type": "function"
    },
    {
      "inputs": [
        {
          "internalType": "uint256",
          "name": "_listingId",
          "type": "uint256"
        },
        {
          "internalType": "uint64",
          "name": "_amountInCents",
          "type": "uint64"
        },
        {
          "internalType": "bytes3",
          "name": "_currency",
          "type": "bytes3"
        },
        {
          "internalType": "uint64",
          "name": "_startEpochTime",
          "type": "uint64"
        },
        {
          "internalType": "uint64",
          "name": "_endEpochTime",
          "type": "uint64"
        }
      ],
      "name": "appendPrice",
      "outputs": [
        {
          "internalType": "uint256",
          "name": "",
          "type": "uint256"
        }
      ],
      "stateMutability": "nonpayable",
      "type": "function"
    },
    {
      "inputs": [
        {
          "internalType": "uint256",
          "name": "_listingId",
          "type": "uint256"
        },
        {
          "internalType": "uint64",
          "name": "_startTime",
          "type": "uint64"
        },
        {
          "internalType": "uint64",
          "name": "_endTime",
          "type": "uint64"
        }
      ],
      "name": "determinePrice",
      "outputs": [
        {
          "internalType": "uint256",
          "name": "",
          "type": "uint256"
        }
      ],
      "stateMutability": "view",
      "type": "function"
    },
    {
      "inputs": [
        {
          "internalType": "uint256",
          "name": "_listingId",
          "type": "uint256"
        }
      ],
      "name": "getListingOwner",
      "outputs": [
        {
          "internalType": "address",
          "name": "",
          "type": "address"
        }
      ],
      "stateMutability": "view",
      "type": "function"
    },
    {
      "inputs": [
        {
          "internalType": "uint256",
          "name": "_listingId",
          "type": "uint256"
        }
      ],
      "name": "getListingRules",
      "outputs": [
        {
          "internalType": "string",
          "name": "",
          "type": "string"
        }
      ],
      "stateMutability": "view",
      "type": "function"
    },
    {
      "inputs": [
        {
          "internalType": "uint256",
          "name": "_listingId",
          "type": "uint256"
        }
      ],
      "name": "getListingGuestInfo",
      "outputs": [
        {
          "internalType": "string",
          "name": "",
          "type": "string"
        }
      ],
      "stateMutability": "view",
      "type": "function"
    },
    {
      "inputs": [
        {
          "internalType": "uint256",
          "name": "_listingId",
          "type": "uint256"
        }
      ],
      "name": "getListingPropertyId",
      "outputs": [
        {
          "internalType": "uint256",
          "name": "",
          "type": "uint256"
        }
      ],
      "stateMutability": "view",
      "type": "function"
    },
    {
      "inputs": [
        {
          "internalType": "uint256",
          "name": "_listingId",
          "type": "uint256"
        }
      ],
      "name": "getListingNumPrices",
      "outputs": [
        {
          "internalType": "uint256",
          "name": "",
          "type": "uint256"
        }
      ],
      "stateMutability": "view",
      "type": "function"
    },
    {
      "inputs": [
        {
          "internalType": "uint256",
          "name": "_listingId",
          "type": "uint256"
        },
        {
          "internalType": "uint256",
          "name": "_priceId",
          "type": "uint256"
        }
      ],
      "name": "getListingPriceAmount",
      "outputs": [
        {
          "internalType": "uint64",
          "name": "",
          "type": "uint64"
        }
      ],
      "stateMutability": "view",
      "type": "function"
    },
    {
      "inputs": [
        {
          "internalType": "uint256",
          "name": "_listingId",
          "type": "uint256"
        },
        {
          "internalType": "uint256",
          "name": "_priceId",
          "type": "uint256"
        }
      ],
      "name": "getListingPriceCurrency",
      "outputs": [
        {
          "internalType": "bytes3",
          "name": "",
          "type": "bytes3"
        }
      ],
      "stateMutability": "view",
      "type": "function"
    },
    {
      "inputs": [
        {
          "internalType": "uint256",
          "name": "_listingId",
          "type": "uint256"
        },
        {
          "internalType": "uint256",
          "name": "_priceId",
          "type": "uint256"
        }
      ],
      "name": "getListingPriceStartTime",
      "outputs": [
        {
          "internalType": "uint64",
          "name": "",
          "type": "uint64"
        }
      ],
      "stateMutability": "view",
      "type": "function"
    },
    {
      "inputs": [
        {
          "internalType": "uint256",
          "name": "_listingId",
          "type": "uint256"
        },
        {
          "internalType": "uint256",
          "name": "_priceId",
          "type": "uint256"
        }
      ],
      "name": "getListingPriceEndTime",
      "outputs": [
        {
          "internalType": "uint64",
          "name": "",
          "type": "uint64"
        }
      ],
      "stateMutability": "view",
      "type": "function"
    }
  ],
  "bytecode": "0x608060405262015180600055600060035560016004556040518060400160405280600f81526020017f4c697374696e67204d616e6167657200000000000000000000000000000000008152506006908051906020019062000062929190620000b8565b503480156200007057600080fd5b5033600560006101000a81548173ffffffffffffffffffffffffffffffffffffffff021916908373ffffffffffffffffffffffffffffffffffffffff160217905550620001cd565b828054620000c69062000168565b90600052602060002090601f016020900481019282620000ea576000855562000136565b82601f106200010557805160ff191683800117855562000136565b8280016001018555821562000136579182015b828111156200013557825182559160200191906001019062000118565b5b50905062000145919062000149565b5090565b5b80821115620001645760008160009055506001016200014a565b5090565b600060028204905060018216806200018157607f821691505b602082108114156200019857620001976200019e565b5b50919050565b7f4e487b7100000000000000000000000000000000000000000000000000000000600052602260045260246000fd5b61170380620001dd6000396000f3fe608060405234801561001057600080fd5b506004361061010b5760003560e01c80638c421589116100a2578063b5a9a25c11610071578063b5a9a25c14610308578063be21a62d14610338578063cd560b9514610368578063df5a776714610398578063ebd91518146103c85761010b565b80638c4215891461025a5780638da5cb5b1461028a578063905546e3146102a8578063a570a120146102d85761010b565b80633ae35156116100de5780633ae35156146101be5780634140efb6146101dc5780636d25aaaf1461020c5780637b2d54731461022a5761010b565b806306fdde03146101105780630f05fad31461012e578063235bdc8b1461015e578063345feef11461018e575b600080fd5b6101186103f8565b6040516101259190611285565b60405180910390f35b61014860048036038101906101439190610fe2565b610486565b6040516101559190611285565b60405180910390f35b6101786004803603810190610173919061109a565b61052e565b604051610185919061130b565b60405180910390f35b6101a860048036038101906101a39190610fe2565b6105c9565b6040516101b591906112c7565b60405180910390f35b6101c66105e9565b6040516101d391906112c7565b60405180910390f35b6101f660048036038101906101f19190610fe2565b6105ef565b6040516102039190611285565b60405180910390f35b610214610697565b60405161022191906112c7565b60405180910390f35b610244600480360381019061023f9190610fe2565b61069d565b604051610251919061124f565b60405180910390f35b610274600480360381019061026f919061109a565b6106dd565b604051610281919061126a565b60405180910390f35b610292610771565b60405161029f919061124f565b60405180910390f35b6102c260048036038101906102bd9190610fe2565b610797565b6040516102cf91906112c7565b60405180910390f35b6102f260048036038101906102ed919061100f565b6107b7565b6040516102ff91906112c7565b60405180910390f35b610322600480360381019061031d919061100f565b610888565b60405161032f91906112c7565b60405180910390f35b610352600480360381019061034d919061109a565b610939565b60405161035f919061130b565b60405180910390f35b610382600480360381019061037d91906110da565b6109d4565b60405161038f91906112c7565b60405180910390f35b6103b260048036038101906103ad919061109a565b610c03565b6040516103bf919061130b565b60405180910390f35b6103e260048036038101906103dd9190611155565b610c9e565b6040516103ef91906112c7565b60405180910390f35b60068054610405906114ac565b80601f0160208091040260200160405190810160405280929190818152602001828054610431906114ac565b801561047e5780601f106104535761010080835404028352916020019161047e565b820191906000526020600020905b81548152906001019060200180831161046157829003601f168201915b505050505081565b60606001600083815260200190815260200160002060010180546104a9906114ac565b80601f01602080910402602001604051908101604052809291908181526020018280546104d5906114ac565b80156105225780601f106104f757610100808354040283529160200191610522565b820191906000526020600020905b81548152906001019060200180831161050557829003601f168201915b50505050509050919050565b60008161053a846105c9565b1161057a576040517f08c379a0000000000000000000000000000000000000000000000000000000008152600401610571906112a7565b60405180910390fd5b60026000848152602001908152602001600020828154811061059f5761059e6115b6565b5b90600052602060002001600001600b9054906101000a900467ffffffffffffffff16905092915050565b600060016000838152602001908152602001600020600301549050919050565b60045481565b6060600160008381526020019081526020016000206000018054610612906114ac565b80601f016020809104026020016040519081016040528092919081815260200182805461063e906114ac565b801561068b5780601f106106605761010080835404028352916020019161068b565b820191906000526020600020905b81548152906001019060200180831161066e57829003601f168201915b50505050509050919050565b60035481565b60006001600083815260200190815260200160002060040160009054906101000a900473ffffffffffffffffffffffffffffffffffffffff169050919050565b6000816106e9846105c9565b11610729576040517f08c379a0000000000000000000000000000000000000000000000000000000008152600401610720906112a7565b60405180910390fd5b60026000848152602001908152602001600020828154811061074e5761074d6115b6565b5b9060005260206000200160000160089054906101000a900460e81b905092915050565b600560009054906101000a900473ffffffffffffffffffffffffffffffffffffffff1681565b600060016000838152602001908152602001600020600201549050919050565b6000806001600060045481526020019081526020016000209050838160000190805190602001906107e9929190610e90565b5082816001019080519060200190610802929190610e90565b50848160020181905550338160040160006101000a81548173ffffffffffffffffffffffffffffffffffffffff021916908373ffffffffffffffffffffffffffffffffffffffff160217905550600360008154809291906108629061150f565b91905055506004600081548092919061087a9061150f565b919050559150509392505050565b6000806001600086815260200190815260200160002090503373ffffffffffffffffffffffffffffffffffffffff168160040160009054906101000a900473ffffffffffffffffffffffffffffffffffffffff1673ffffffffffffffffffffffffffffffffffffffff16146108fc57600080fd5b83816000019080519060200190610914929190610e90565b508281600101908051906020019061092d929190610e90565b50849150509392505050565b600081610945846105c9565b11610985576040517f08c379a000000000000000000000000000000000000000000000000000000000815260040161097c906112a7565b60405180910390fd5b6002600084815260200190815260200160002082815481106109aa576109a96115b6565b5b9060005260206000200160000160139054906101000a900467ffffffffffffffff16905092915050565b60008267ffffffffffffffff168267ffffffffffffffff1673__DateTime______________________________6370ffa43183836040518363ffffffff1660e01b8152600401610a259291906112e2565b60006040518083038186803b158015610a3d57600080fd5b505af4158015610a51573d6000803e3d6000fd5b505050506000600160008a815260200190815260200160002090506000808767ffffffffffffffff161415610a8857429050610a8c565b8690505b600060405180608001604052808b67ffffffffffffffff1681526020018a7cffffffffffffffffffffffffffffffffffffffffffffffffffffffffff191681526020018367ffffffffffffffff1681526020018867ffffffffffffffff168152509050600260008c8152602001908152602001600020819080600181540180825580915050600190039060005260206000200160009091909190915060008201518160000160006101000a81548167ffffffffffffffff021916908367ffffffffffffffff16021790555060208201518160000160086101000a81548162ffffff021916908360e81c0217905550604082015181600001600b6101000a81548167ffffffffffffffff021916908367ffffffffffffffff16021790555060608201518160000160136101000a81548167ffffffffffffffff021916908367ffffffffffffffff1602179055505050826003016000815480929190610bef9061150f565b919050559550505050505095945050505050565b600081610c0f846105c9565b11610c4f576040517f08c379a0000000000000000000000000000000000000000000000000000000008152600401610c46906112a7565b60405180910390fd5b600260008481526020019081526020016000208281548110610c7457610c736115b6565b5b9060005260206000200160000160009054906101000a900467ffffffffffffffff16905092915050565b60008267ffffffffffffffff168267ffffffffffffffff1673__DateTime______________________________6370ffa43183836040518363ffffffff1660e01b8152600401610cef9291906112e2565b60006040518083038186803b158015610d0757600080fd5b505af4158015610d1b573d6000803e3d6000fd5b50505050600060016000888152602001908152602001600020905060008160030154905060008060008967ffffffffffffffff1690505b8867ffffffffffffffff168111158015610d6b57508382105b15610e7f576000600260008d81526020019081526020016000208381548110610d9757610d966115b6565b5b90600052602060002001905080600001600b9054906101000a900467ffffffffffffffff1667ffffffffffffffff168210610e6b5760008160000160139054906101000a900467ffffffffffffffff1667ffffffffffffffff161480610e1f57508060000160139054906101000a900467ffffffffffffffff1667ffffffffffffffff168211155b15610e6a578060000160009054906101000a900467ffffffffffffffff1667ffffffffffffffff1684610e529190611398565b935060005482610e629190611398565b915050610d52565b5b8280610e769061150f565b93505050610d52565b829750505050505050509392505050565b828054610e9c906114ac565b90600052602060002090601f016020900481019282610ebe5760008555610f05565b82601f10610ed757805160ff1916838001178555610f05565b82800160010185558215610f05579182015b82811115610f04578251825591602001919060010190610ee9565b5b509050610f129190610f16565b5090565b5b80821115610f2f576000816000905550600101610f17565b5090565b6000610f46610f418461134b565b611326565b905082815260208101848484011115610f6257610f61611619565b5b610f6d84828561146a565b509392505050565b600081359050610f8481611688565b92915050565b600082601f830112610f9f57610f9e611614565b5b8135610faf848260208601610f33565b91505092915050565b600081359050610fc78161169f565b92915050565b600081359050610fdc816116b6565b92915050565b600060208284031215610ff857610ff7611623565b5b600061100684828501610fb8565b91505092915050565b60008060006060848603121561102857611027611623565b5b600061103686828701610fb8565b935050602084013567ffffffffffffffff8111156110575761105661161e565b5b61106386828701610f8a565b925050604084013567ffffffffffffffff8111156110845761108361161e565b5b61109086828701610f8a565b9150509250925092565b600080604083850312156110b1576110b0611623565b5b60006110bf85828601610fb8565b92505060206110d085828601610fb8565b9150509250929050565b600080600080600060a086880312156110f6576110f5611623565b5b600061110488828901610fb8565b955050602061111588828901610fcd565b945050604061112688828901610f75565b935050606061113788828901610fcd565b925050608061114888828901610fcd565b9150509295509295909350565b60008060006060848603121561116e5761116d611623565b5b600061117c86828701610fb8565b935050602061118d86828701610fcd565b925050604061119e86828701610fcd565b9150509250925092565b6111b1816113ee565b82525050565b6111c081611400565b82525050565b60006111d18261137c565b6111db8185611387565b93506111eb818560208601611479565b6111f481611628565b840191505092915050565b600061120c602983611387565b915061121782611639565b604082019050919050565b61122b8161144c565b82525050565b61123a8161144c565b82525050565b61124981611456565b82525050565b600060208201905061126460008301846111a8565b92915050565b600060208201905061127f60008301846111b7565b92915050565b6000602082019050818103600083015261129f81846111c6565b905092915050565b600060208201905081810360008301526112c0816111ff565b9050919050565b60006020820190506112dc6000830184611222565b92915050565b60006040820190506112f76000830185611231565b6113046020830184611231565b9392505050565b60006020820190506113206000830184611240565b92915050565b6000611330611341565b905061133c82826114de565b919050565b6000604051905090565b600067ffffffffffffffff821115611366576113656115e5565b5b61136f82611628565b9050602081019050919050565b600081519050919050565b600082825260208201905092915050565b60006113a38261144c565b91506113ae8361144c565b9250827fffffffffffffffffffffffffffffffffffffffffffffffffffffffffffffffff038211156113e3576113e2611558565b5b828201905092915050565b60006113f98261142c565b9050919050565b60007fffffff000000000000000000000000000000000000000000000000000000000082169050919050565b600073ffffffffffffffffffffffffffffffffffffffff82169050919050565b6000819050919050565b600067ffffffffffffffff82169050919050565b82818337600083830152505050565b60005b8381101561149757808201518184015260208101905061147c565b838111156114a6576000848401525b50505050565b600060028204905060018216806114c457607f821691505b602082108114156114d8576114d7611587565b5b50919050565b6114e782611628565b810181811067ffffffffffffffff82111715611506576115056115e5565b5b80604052505050565b600061151a8261144c565b91507fffffffffffffffffffffffffffffffffffffffffffffffffffffffffffffffff82141561154d5761154c611558565b5b600182019050919050565b7f4e487b7100000000000000000000000000000000000000000000000000000000600052601160045260246000fd5b7f4e487b7100000000000000000000000000000000000000000000000000000000600052602260045260246000fd5b7f4e487b7100000000000000000000000000000000000000000000000000000000600052603260045260246000fd5b7f4e487b7100000000000000000000000000000000000000000000000000000000600052604160045260246000fd5b600080fd5b600080fd5b600080fd5b600080fd5b6000601f19601f8301169050919050565b7f63616e206e6f742070617373205072696365204944206772656174657220746860008201527f656e206c656e6774680000000000000000000000000000000000000000000000602082015250565b61169181611400565b811461169c57600080fd5b50565b6116a88161144c565b81146116b357600080fd5b50565b6116bf81611456565b81146116ca57600080fd5b5056fea2646970667358221220c21065becb2fef31be81d3fb5bee3b261a6eaa7cbe9d1e35cb396ce3f4cc7ab364736f6c63430008050033",
  "immutableReferences": {},
  "source": "// SPDX-License-Identifier: UNLICENSED\npragma solidity ^0.8.0;\n\nimport './structs/PriceRule.sol';\nimport './structs/Listing.sol';\nimport \"./Manager.sol\";\n\ncontract ListingManager is Manager {\n\tmapping(uint => Listing) listings;\n\tmapping(uint => PriceRule[]) priceRules;\n\n\tuint public numOfListings = 0;\n\tuint public listingIndex = 1;\n\taddress public owner;\n\tstring public name = \"Listing Manager\";\n\n\tconstructor() {\n\t\towner = msg.sender;\n\t}\n\n\tfunction createListing(uint _propertyId, string memory _rules, string memory _guestInfo) public returns (uint) {\n\t\tListing storage newListing = listings[listingIndex];\n\t\tnewListing.rules = _rules;\n\t\tnewListing.guestInfo = _guestInfo;\n\t\tnewListing.propertyId = _propertyId;\n\t\tnewListing.owner = msg.sender;\n\n\t\tnumOfListings++;\n\n\t\treturn listingIndex++;\n\t}\n\n\tfunction editListing(uint _listingId, string memory _rules, string memory _guestInfo) public returns (uint) {\n\t\tListing storage requestedListing = listings[_listingId];\n\n\t\trequire(requestedListing.owner == msg.sender);\n\n\t\trequestedListing.rules = _rules;\n\t\trequestedListing.guestInfo = _guestInfo;\n\n\t\treturn _listingId;\n\t}\n\n\tfunction appendPrice(uint _listingId, uint64 _amountInCents, bytes3 _currency, uint64 _startEpochTime, uint64 _endEpochTime) public isAtMidnight2(_startEpochTime, _endEpochTime) returns (uint) {\n\t\tListing storage listing = listings[_listingId];\n\t\tuint64 startTime;\n\n\t\tif (_startEpochTime == 0) {\n\t\t\tstartTime = uint64(block.timestamp);\n\t\t} else {\n\t\t\tstartTime = _startEpochTime;\n\t\t}\n\n\t\tPriceRule memory price = PriceRule(_amountInCents, _currency, startTime, _endEpochTime);\n\t\tpriceRules[_listingId].push(price);\n\n\t\treturn listing.numOfPrices++;\n\t}\n\n\tfunction determinePrice(uint _listingId, uint64 _startTime, uint64 _endTime) public view isAtMidnight2(_startTime, _endTime) returns (uint) {\n\t\tListing storage listing = listings[_listingId];\n\n\t\tuint numOfPrices = listing.numOfPrices;\n\t\tuint totalPrice = 0;\n\t\tuint currentPriceIndex = 0;\n\t\tuint timeCursor = _startTime;\n\n\t\twhile (timeCursor <= _endTime && currentPriceIndex < numOfPrices) {\n\t\t\tPriceRule storage p = priceRules[_listingId][currentPriceIndex];\n\n\t\t\tif (timeCursor >= p.startEpochTime) {\n\t\t\t\tif (p.endEpochTime == 0 || timeCursor <= p.endEpochTime) { // if there is no end datetime OR cursor is before/equal to end time\n\t\t\t\t\ttotalPrice += p.amountInCents;\n\t\t\t\t\ttimeCursor += secsInDay;\n\t\t\t\t\tcontinue;\n\t\t\t\t}\n\t\t\t}\n\n\t\t\tcurrentPriceIndex++;\n\t\t}\n\n\t\treturn totalPrice;\n\t}\n\n\tfunction getListingOwner(uint _listingId) public view returns (address) {\n\t\treturn listings[_listingId].owner;\n\t}\n\n\tfunction getListingRules(uint _listingId) public view returns (string memory) {\n\t\treturn listings[_listingId].rules;\n\t}\n\n\tfunction getListingGuestInfo(uint _listingId) public view returns (string memory) {\n\t\treturn listings[_listingId].guestInfo;\n\t}\n\n\tfunction getListingPropertyId(uint _listingId) public view returns (uint) {\n\t\treturn listings[_listingId].propertyId;\n\t}\n\n\tfunction getListingNumPrices(uint _listingId) public view returns (uint) {\n\t\treturn listings[_listingId].numOfPrices;\n\t}\n\n\tfunction getListingPriceAmount(uint _listingId, uint _priceId) public view returns (uint64) {\n\t\trequire(getListingNumPrices(_listingId) > _priceId, \"can not pass Price ID greater then length\");\n\n\t\treturn priceRules[_listingId][_priceId].amountInCents;\n\t}\n\n\tfunction getListingPriceCurrency(uint _listingId, uint _priceId) public view returns (bytes3) {\n\t\trequire(getListingNumPrices(_listingId) > _priceId, \"can not pass Price ID greater then length\");\n\n\t\treturn priceRules[_listingId][_priceId].currency;\n\t}\n\n\tfunction getListingPriceStartTime(uint _listingId, uint _priceId) public view returns (uint64) {\n\t\trequire(getListingNumPrices(_listingId) > _priceId, \"can not pass Price ID greater then length\");\n\n\t\treturn priceRules[_listingId][_priceId].startEpochTime;\n\t}\n\n\tfunction getListingPriceEndTime(uint _listingId, uint _priceId) public view returns (uint64) {\n\t\trequire(getListingNumPrices(_listingId) > _priceId, \"can not pass Price ID greater then length\");\n\n\t\treturn priceRules[_listingId][_priceId].endEpochTime;\n\t}\n}\n",
  "sourcePath": "/Users/ian/Code/eth_contracts/yumebnb/yume_contracts/src/contracts/ListingManager.sol",
  "compiler": {
    "name": "solc",
    "version": "0.8.5+commit.a4f2e591.Emscripten.clang"
  },
  "schemaVersion": "3.4.1",
  "updatedAt": "2021-07-18T23:20:13.246Z",
  "devdoc": {
    "kind": "dev",
    "methods": {},
    "version": 1
  },
  "userdoc": {
    "kind": "user",
    "methods": {},
    "version": 1
  }
}