{
  "contractName": "PropertyManager",
  "abi": [
    {
      "inputs": [],
      "stateMutability": "nonpayable",
      "type": "constructor"
    },
    {
      "inputs": [],
      "name": "name",
      "outputs": [
        {
          "internalType": "string",
          "name": "",
          "type": "string"
        }
      ],
      "stateMutability": "view",
      "type": "function"
    },
    {
      "inputs": [],
      "name": "numOfProperties",
      "outputs": [
        {
          "internalType": "uint256",
          "name": "",
          "type": "uint256"
        }
      ],
      "stateMutability": "view",
      "type": "function"
    },
    {
      "inputs": [],
      "name": "owner",
      "outputs": [
        {
          "internalType": "address",
          "name": "",
          "type": "address"
        }
      ],
      "stateMutability": "view",
      "type": "function"
    },
    {
      "inputs": [],
      "name": "propertyIndex",
      "outputs": [
        {
          "internalType": "uint256",
          "name": "",
          "type": "uint256"
        }
      ],
      "stateMutability": "view",
      "type": "function"
    },
    {
      "inputs": [
        {
          "internalType": "string",
          "name": "_city",
          "type": "string"
        },
        {
          "internalType": "string",
          "name": "_state",
          "type": "string"
        },
        {
          "internalType": "uint8",
          "name": "_numOfBedrooms",
          "type": "uint8"
        },
        {
          "internalType": "uint8",
          "name": "_numOfFullBathrooms",
          "type": "uint8"
        },
        {
          "internalType": "uint8",
          "name": "_numOfHalfBathrooms",
          "type": "uint8"
        },
        {
          "internalType": "uint8",
          "name": "_numOfKingBeds",
          "type": "uint8"
        },
        {
          "internalType": "uint8",
          "name": "_numOfQueenBeds",
          "type": "uint8"
        },
        {
          "internalType": "uint8",
          "name": "_numOfFullBeds",
          "type": "uint8"
        },
        {
          "internalType": "uint8",
          "name": "_numOfTwinBeds",
          "type": "uint8"
        },
        {
          "internalType": "uint32",
          "name": "_sqFootage",
          "type": "uint32"
        },
        {
          "internalType": "uint8",
          "name": "_maxNumOfGuests",
          "type": "uint8"
        }
      ],
      "name": "createProperty",
      "outputs": [
        {
          "internalType": "uint256",
          "name": "",
          "type": "uint256"
        }
      ],
      "stateMutability": "nonpayable",
      "type": "function"
    },
    {
      "inputs": [
        {
          "internalType": "uint256",
          "name": "_propertyId",
          "type": "uint256"
        }
      ],
      "name": "getPropertyCity",
      "outputs": [
        {
          "internalType": "string",
          "name": "",
          "type": "string"
        }
      ],
      "stateMutability": "view",
      "type": "function"
    },
    {
      "inputs": [
        {
          "internalType": "uint256",
          "name": "_propertyId",
          "type": "uint256"
        }
      ],
      "name": "getPropertyState",
      "outputs": [
        {
          "internalType": "string",
          "name": "",
          "type": "string"
        }
      ],
      "stateMutability": "view",
      "type": "function"
    },
    {
      "inputs": [
        {
          "internalType": "uint256",
          "name": "_propertyId",
          "type": "uint256"
        }
      ],
      "name": "getPropertyBedrooms",
      "outputs": [
        {
          "internalType": "uint8",
          "name": "",
          "type": "uint8"
        }
      ],
      "stateMutability": "view",
      "type": "function"
    },
    {
      "inputs": [
        {
          "internalType": "uint256",
          "name": "_propertyId",
          "type": "uint256"
        }
      ],
      "name": "getPropertyFullBaths",
      "outputs": [
        {
          "internalType": "uint8",
          "name": "",
          "type": "uint8"
        }
      ],
      "stateMutability": "view",
      "type": "function"
    },
    {
      "inputs": [
        {
          "internalType": "uint256",
          "name": "_propertyId",
          "type": "uint256"
        }
      ],
      "name": "getPropertyHalfBaths",
      "outputs": [
        {
          "internalType": "uint8",
          "name": "",
          "type": "uint8"
        }
      ],
      "stateMutability": "view",
      "type": "function"
    },
    {
      "inputs": [
        {
          "internalType": "uint256",
          "name": "_propertyId",
          "type": "uint256"
        }
      ],
      "name": "getPropertyKingBeds",
      "outputs": [
        {
          "internalType": "uint8",
          "name": "",
          "type": "uint8"
        }
      ],
      "stateMutability": "view",
      "type": "function"
    },
    {
      "inputs": [
        {
          "internalType": "uint256",
          "name": "_propertyId",
          "type": "uint256"
        }
      ],
      "name": "getPropertyQueenBeds",
      "outputs": [
        {
          "internalType": "uint8",
          "name": "",
          "type": "uint8"
        }
      ],
      "stateMutability": "view",
      "type": "function"
    },
    {
      "inputs": [
        {
          "internalType": "uint256",
          "name": "_propertyId",
          "type": "uint256"
        }
      ],
      "name": "getPropertyFullBeds",
      "outputs": [
        {
          "internalType": "uint8",
          "name": "",
          "type": "uint8"
        }
      ],
      "stateMutability": "view",
      "type": "function"
    },
    {
      "inputs": [
        {
          "internalType": "uint256",
          "name": "_propertyId",
          "type": "uint256"
        }
      ],
      "name": "getPropertyTwinBeds",
      "outputs": [
        {
          "internalType": "uint8",
          "name": "",
          "type": "uint8"
        }
      ],
      "stateMutability": "view",
      "type": "function"
    },
    {
      "inputs": [
        {
          "internalType": "uint256",
          "name": "_propertyId",
          "type": "uint256"
        }
      ],
      "name": "getPropertySqFootage",
      "outputs": [
        {
          "internalType": "uint32",
          "name": "",
          "type": "uint32"
        }
      ],
      "stateMutability": "view",
      "type": "function"
    },
    {
      "inputs": [
        {
          "internalType": "uint256",
          "name": "_propertyId",
          "type": "uint256"
        }
      ],
      "name": "getPropertyMaxGuests",
      "outputs": [
        {
          "internalType": "uint8",
          "name": "",
          "type": "uint8"
        }
      ],
      "stateMutability": "view",
      "type": "function"
    }
  ],
  "bytecode": "0x6080604052600060015560016002556040518060400160405280601081526020017f50726f7065727479204d616e6167657200000000000000000000000000000000815250600490805190602001906200005b929190620000b1565b503480156200006957600080fd5b5033600360006101000a81548173ffffffffffffffffffffffffffffffffffffffff021916908373ffffffffffffffffffffffffffffffffffffffff160217905550620001c6565b828054620000bf9062000161565b90600052602060002090601f016020900481019282620000e357600085556200012f565b82601f10620000fe57805160ff19168380011785556200012f565b828001600101855582156200012f579182015b828111156200012e57825182559160200191906001019062000111565b5b5090506200013e919062000142565b5090565b5b808211156200015d57600081600090555060010162000143565b5090565b600060028204905060018216806200017a57607f821691505b6020821081141562000191576200019062000197565b5b50919050565b7f4e487b7100000000000000000000000000000000000000000000000000000000600052602260045260246000fd5b610f8580620001d66000396000f3fe608060405234801561001057600080fd5b50600436106101005760003560e01c80638da5cb5b11610097578063d14ca1c911610066578063d14ca1c91461030f578063d7d642b41461033f578063f56720b51461036f578063fd2f518c1461038d57610100565b80638da5cb5b1461026157806390afd28b1461027f57806393bb50d6146102af578063bd9578ba146102df57610100565b806346fe17ec116100d357806346fe17ec146101a15780636fe90e9c146101d157806373a7dbd01461020157806376494ba41461023157610100565b806306fdde0314610105578063190e4c771461012357806320d375a71461014157806346dc01d714610171575b600080fd5b61010d6103bd565b60405161011a9190610c2c565b60405180910390f35b61012b61044b565b6040516101389190610c4e565b60405180910390f35b61015b60048036038101906101569190610b6f565b610451565b6040516101689190610c69565b60405180910390f35b61018b60048036038101906101869190610b6f565b610480565b6040516101989190610c84565b60405180910390f35b6101bb60048036038101906101b69190610b6f565b6104ac565b6040516101c89190610c2c565b60405180910390f35b6101eb60048036038101906101e69190610a43565b610553565b6040516101f89190610c4e565b60405180910390f35b61021b60048036038101906102169190610b6f565b6106ea565b6040516102289190610c84565b60405180910390f35b61024b60048036038101906102469190610b6f565b610716565b6040516102589190610c84565b60405180910390f35b610269610742565b6040516102769190610c11565b60405180910390f35b61029960048036038101906102949190610b6f565b610768565b6040516102a69190610c2c565b60405180910390f35b6102c960048036038101906102c49190610b6f565b61080f565b6040516102d69190610c84565b60405180910390f35b6102f960048036038101906102f49190610b6f565b61083b565b6040516103069190610c84565b60405180910390f35b61032960048036038101906103249190610b6f565b610867565b6040516103369190610c84565b60405180910390f35b61035960048036038101906103549190610b6f565b610893565b6040516103669190610c84565b60405180910390f35b6103776108bf565b6040516103849190610c4e565b60405180910390f35b6103a760048036038101906103a29190610b6f565b6108c5565b6040516103b49190610c84565b60405180910390f35b600480546103ca90610dac565b80601f01602080910402602001604051908101604052809291908181526020018280546103f690610dac565b80156104435780601f1061041857610100808354040283529160200191610443565b820191906000526020600020905b81548152906001019060200180831161042657829003601f168201915b505050505081565b60015481565b600080600083815260200190815260200160002060020160079054906101000a900463ffffffff169050919050565b600080600083815260200190815260200160002060020160059054906101000a900460ff169050919050565b606060008083815260200190815260200160002060000180546104ce90610dac565b80601f01602080910402602001604051908101604052809291908181526020018280546104fa90610dac565b80156105475780601f1061051c57610100808354040283529160200191610547565b820191906000526020600020905b81548152906001019060200180831161052a57829003601f168201915b50505050509050919050565b600080600080600254815260200190815260200160002090508c8160000190805190602001906105849291906108f1565b508b81600101908051906020019061059d9291906108f1565b508a8160020160006101000a81548160ff021916908360ff160217905550898160020160016101000a81548160ff021916908360ff160217905550888160020160026101000a81548160ff021916908360ff160217905550878160020160036101000a81548160ff021916908360ff160217905550868160020160046101000a81548160ff021916908360ff160217905550858160020160056101000a81548160ff021916908360ff160217905550848160020160066101000a81548160ff021916908360ff160217905550838160020160076101000a81548163ffffffff021916908363ffffffff1602179055508281600201600b6101000a81548160ff021916908360ff160217905550600160008154809291906106bc90610e0f565b9190505550600260008154809291906106d490610e0f565b919050559150509b9a5050505050505050505050565b600080600083815260200190815260200160002060020160049054906101000a900460ff169050919050565b600080600083815260200190815260200160002060020160039054906101000a900460ff169050919050565b600360009054906101000a900473ffffffffffffffffffffffffffffffffffffffff1681565b6060600080838152602001908152602001600020600101805461078a90610dac565b80601f01602080910402602001604051908101604052809291908181526020018280546107b690610dac565b80156108035780601f106107d857610100808354040283529160200191610803565b820191906000526020600020905b8154815290600101906020018083116107e657829003601f168201915b50505050509050919050565b600080600083815260200190815260200160002060020160069054906101000a900460ff169050919050565b600080600083815260200190815260200160002060020160029054906101000a900460ff169050919050565b600080600083815260200190815260200160002060020160009054906101000a900460ff169050919050565b600080600083815260200190815260200160002060020160019054906101000a900460ff169050919050565b60025481565b6000806000838152602001908152602001600020600201600b9054906101000a900460ff169050919050565b8280546108fd90610dac565b90600052602060002090601f01602090048101928261091f5760008555610966565b82601f1061093857805160ff1916838001178555610966565b82800160010185558215610966579182015b8281111561096557825182559160200191906001019061094a565b5b5090506109739190610977565b5090565b5b80821115610990576000816000905550600101610978565b5090565b60006109a76109a284610cc4565b610c9f565b9050828152602081018484840111156109c3576109c2610eea565b5b6109ce848285610d6a565b509392505050565b600082601f8301126109eb576109ea610ee5565b5b81356109fb848260208601610994565b91505092915050565b600081359050610a1381610f0a565b92915050565b600081359050610a2881610f21565b92915050565b600081359050610a3d81610f38565b92915050565b60008060008060008060008060008060006101608c8e031215610a6957610a68610ef4565b5b60008c013567ffffffffffffffff811115610a8757610a86610eef565b5b610a938e828f016109d6565b9b505060208c013567ffffffffffffffff811115610ab457610ab3610eef565b5b610ac08e828f016109d6565b9a50506040610ad18e828f01610a2e565b9950506060610ae28e828f01610a2e565b9850506080610af38e828f01610a2e565b97505060a0610b048e828f01610a2e565b96505060c0610b158e828f01610a2e565b95505060e0610b268e828f01610a2e565b945050610100610b388e828f01610a2e565b935050610120610b4a8e828f01610a19565b925050610140610b5c8e828f01610a2e565b9150509295989b509295989b9093969950565b600060208284031215610b8557610b84610ef4565b5b6000610b9384828501610a04565b91505092915050565b610ba581610d11565b82525050565b6000610bb682610cf5565b610bc08185610d00565b9350610bd0818560208601610d79565b610bd981610ef9565b840191505092915050565b610bed81610d43565b82525050565b610bfc81610d4d565b82525050565b610c0b81610d5d565b82525050565b6000602082019050610c266000830184610b9c565b92915050565b60006020820190508181036000830152610c468184610bab565b905092915050565b6000602082019050610c636000830184610be4565b92915050565b6000602082019050610c7e6000830184610bf3565b92915050565b6000602082019050610c996000830184610c02565b92915050565b6000610ca9610cba565b9050610cb58282610dde565b919050565b6000604051905090565b600067ffffffffffffffff821115610cdf57610cde610eb6565b5b610ce882610ef9565b9050602081019050919050565b600081519050919050565b600082825260208201905092915050565b6000610d1c82610d23565b9050919050565b600073ffffffffffffffffffffffffffffffffffffffff82169050919050565b6000819050919050565b600063ffffffff82169050919050565b600060ff82169050919050565b82818337600083830152505050565b60005b83811015610d97578082015181840152602081019050610d7c565b83811115610da6576000848401525b50505050565b60006002820490506001821680610dc457607f821691505b60208210811415610dd857610dd7610e87565b5b50919050565b610de782610ef9565b810181811067ffffffffffffffff82111715610e0657610e05610eb6565b5b80604052505050565b6000610e1a82610d43565b91507fffffffffffffffffffffffffffffffffffffffffffffffffffffffffffffffff821415610e4d57610e4c610e58565b5b600182019050919050565b7f4e487b7100000000000000000000000000000000000000000000000000000000600052601160045260246000fd5b7f4e487b7100000000000000000000000000000000000000000000000000000000600052602260045260246000fd5b7f4e487b7100000000000000000000000000000000000000000000000000000000600052604160045260246000fd5b600080fd5b600080fd5b600080fd5b600080fd5b6000601f19601f8301169050919050565b610f1381610d43565b8114610f1e57600080fd5b50565b610f2a81610d4d565b8114610f3557600080fd5b50565b610f4181610d5d565b8114610f4c57600080fd5b5056fea26469706673582212208fb17d6b313886f254e99ba7f055341415ffb1d569abae13f3852420fdf91e5864736f6c63430008050033",
  "immutableReferences": {},
  "source": "// SPDX-License-Identifier: UNLICENSED\npragma solidity ^0.8.0;\n\nimport \"./structs/Property.sol\";\n\ncontract PropertyManager {\n    mapping(uint => Property) properties;\n\n    uint public numOfProperties = 0;\n    uint public propertyIndex = 1;\n    address public owner;\n    string public name = \"Property Manager\";\n\n    constructor() {\n        owner = msg.sender;\n    }\n\n    function createProperty(\n        string memory _city,\n        string memory _state,\n        uint8 _numOfBedrooms,\n        uint8 _numOfFullBathrooms,\n        uint8 _numOfHalfBathrooms,\n        uint8 _numOfKingBeds,\n        uint8 _numOfQueenBeds,\n        uint8 _numOfFullBeds,\n        uint8 _numOfTwinBeds,\n        uint32 _sqFootage,\n        uint8 _maxNumOfGuests\n    ) public returns (uint) {\n        Property storage property = properties[propertyIndex];\n        property.city = _city;\n        property.state = _state;\n        property.numOfBedrooms = _numOfBedrooms;\n        property.numOfFullBathrooms = _numOfFullBathrooms;\n        property.numOfHalfBathrooms = _numOfHalfBathrooms;\n        property.numOfKingBeds = _numOfKingBeds;\n        property.numOfQueenBeds = _numOfQueenBeds;\n        property.numOfFullBeds = _numOfFullBeds;\n        property.numOfTwinBeds = _numOfTwinBeds;\n        property.sqFootage = _sqFootage;\n        property.maxNumOfGuests = _maxNumOfGuests;\n\n        numOfProperties++;\n\n        return propertyIndex++;\n    }\n\n    function getPropertyCity(uint _propertyId) public view returns (string memory) {\n        return properties[_propertyId].city;\n    }\n\n    function getPropertyState(uint _propertyId) public view returns (string memory) {\n        return properties[_propertyId].state;\n    }\n\n    function getPropertyBedrooms(uint _propertyId) public view returns (uint8) {\n        return properties[_propertyId].numOfBedrooms;\n    }\n\n    function getPropertyFullBaths(uint _propertyId) public view returns (uint8) {\n        return properties[_propertyId].numOfFullBathrooms;\n    }\n\n    function getPropertyHalfBaths(uint _propertyId) public view returns (uint8) {\n        return properties[_propertyId].numOfHalfBathrooms;\n    }\n\n    function getPropertyKingBeds(uint _propertyId) public view returns (uint8) {\n        return properties[_propertyId].numOfKingBeds;\n    }\n\n    function getPropertyQueenBeds(uint _propertyId) public view returns (uint8) {\n        return properties[_propertyId].numOfQueenBeds;\n    }\n\n    function getPropertyFullBeds(uint _propertyId) public view returns (uint8) {\n        return properties[_propertyId].numOfFullBeds;\n    }\n\n    function getPropertyTwinBeds(uint _propertyId) public view returns (uint8) {\n        return properties[_propertyId].numOfTwinBeds;\n    }\n\n    function getPropertySqFootage(uint _propertyId) public view returns (uint32) {\n        return properties[_propertyId].sqFootage;\n    }\n\n    function getPropertyMaxGuests(uint _propertyId) public view returns (uint8) {\n        return properties[_propertyId].maxNumOfGuests;\n    }\n}\n",
  "sourcePath": "/Users/ian/Code/eth_contracts/yumebnb/yume_contracts/src/contracts/PropertyManager.sol",
  "compiler": {
    "name": "solc",
    "version": "0.8.5+commit.a4f2e591.Emscripten.clang"
  },
  "schemaVersion": "3.4.1",
  "updatedAt": "2021-07-18T23:20:13.253Z",
  "devdoc": {
    "kind": "dev",
    "methods": {},
    "version": 1
  },
  "userdoc": {
    "kind": "user",
    "methods": {},
    "version": 1
  }
}