{
  "contractName": "PropertyManager",
  "abi": [
    {
      "inputs": [],
      "stateMutability": "nonpayable",
      "type": "constructor"
    },
    {
      "inputs": [],
      "name": "name",
      "outputs": [
        {
          "internalType": "string",
          "name": "",
          "type": "string"
        }
      ],
      "stateMutability": "view",
      "type": "function"
    },
    {
      "inputs": [],
      "name": "numOfProperties",
      "outputs": [
        {
          "internalType": "uint256",
          "name": "",
          "type": "uint256"
        }
      ],
      "stateMutability": "view",
      "type": "function"
    },
    {
      "inputs": [],
      "name": "owner",
      "outputs": [
        {
          "internalType": "address",
          "name": "",
          "type": "address"
        }
      ],
      "stateMutability": "view",
      "type": "function"
    },
    {
      "inputs": [
        {
          "internalType": "string",
          "name": "_city",
          "type": "string"
        },
        {
          "internalType": "string",
          "name": "_state",
          "type": "string"
        },
        {
          "internalType": "uint8",
          "name": "_numOfBedrooms",
          "type": "uint8"
        },
        {
          "internalType": "uint8",
          "name": "_numOfFullBathrooms",
          "type": "uint8"
        },
        {
          "internalType": "uint8",
          "name": "_numOfHalfBathrooms",
          "type": "uint8"
        },
        {
          "internalType": "uint8",
          "name": "_numOfKingBeds",
          "type": "uint8"
        },
        {
          "internalType": "uint8",
          "name": "_numOfQueenBeds",
          "type": "uint8"
        },
        {
          "internalType": "uint8",
          "name": "_numOfFullBeds",
          "type": "uint8"
        },
        {
          "internalType": "uint8",
          "name": "_numOfTwinBeds",
          "type": "uint8"
        },
        {
          "internalType": "uint32",
          "name": "_sqFootage",
          "type": "uint32"
        },
        {
          "internalType": "uint8",
          "name": "_maxNumOfGuests",
          "type": "uint8"
        }
      ],
      "name": "createProperty",
      "outputs": [
        {
          "internalType": "uint256",
          "name": "",
          "type": "uint256"
        }
      ],
      "stateMutability": "nonpayable",
      "type": "function"
    },
    {
      "inputs": [
        {
          "internalType": "uint256",
          "name": "_propertyId",
          "type": "uint256"
        }
      ],
      "name": "getPropertyCity",
      "outputs": [
        {
          "internalType": "string",
          "name": "",
          "type": "string"
        }
      ],
      "stateMutability": "view",
      "type": "function"
    },
    {
      "inputs": [
        {
          "internalType": "uint256",
          "name": "_propertyId",
          "type": "uint256"
        }
      ],
      "name": "getPropertyState",
      "outputs": [
        {
          "internalType": "string",
          "name": "",
          "type": "string"
        }
      ],
      "stateMutability": "view",
      "type": "function"
    },
    {
      "inputs": [
        {
          "internalType": "uint256",
          "name": "_propertyId",
          "type": "uint256"
        }
      ],
      "name": "getPropertyBedrooms",
      "outputs": [
        {
          "internalType": "uint8",
          "name": "",
          "type": "uint8"
        }
      ],
      "stateMutability": "view",
      "type": "function"
    },
    {
      "inputs": [
        {
          "internalType": "uint256",
          "name": "_propertyId",
          "type": "uint256"
        }
      ],
      "name": "getPropertyFullBaths",
      "outputs": [
        {
          "internalType": "uint8",
          "name": "",
          "type": "uint8"
        }
      ],
      "stateMutability": "view",
      "type": "function"
    },
    {
      "inputs": [
        {
          "internalType": "uint256",
          "name": "_propertyId",
          "type": "uint256"
        }
      ],
      "name": "getPropertyHalfBaths",
      "outputs": [
        {
          "internalType": "uint8",
          "name": "",
          "type": "uint8"
        }
      ],
      "stateMutability": "view",
      "type": "function"
    },
    {
      "inputs": [
        {
          "internalType": "uint256",
          "name": "_propertyId",
          "type": "uint256"
        }
      ],
      "name": "getPropertyKingBeds",
      "outputs": [
        {
          "internalType": "uint8",
          "name": "",
          "type": "uint8"
        }
      ],
      "stateMutability": "view",
      "type": "function"
    },
    {
      "inputs": [
        {
          "internalType": "uint256",
          "name": "_propertyId",
          "type": "uint256"
        }
      ],
      "name": "getPropertyQueenBeds",
      "outputs": [
        {
          "internalType": "uint8",
          "name": "",
          "type": "uint8"
        }
      ],
      "stateMutability": "view",
      "type": "function"
    },
    {
      "inputs": [
        {
          "internalType": "uint256",
          "name": "_propertyId",
          "type": "uint256"
        }
      ],
      "name": "getPropertyFullBeds",
      "outputs": [
        {
          "internalType": "uint8",
          "name": "",
          "type": "uint8"
        }
      ],
      "stateMutability": "view",
      "type": "function"
    },
    {
      "inputs": [
        {
          "internalType": "uint256",
          "name": "_propertyId",
          "type": "uint256"
        }
      ],
      "name": "getPropertyTwinBeds",
      "outputs": [
        {
          "internalType": "uint8",
          "name": "",
          "type": "uint8"
        }
      ],
      "stateMutability": "view",
      "type": "function"
    },
    {
      "inputs": [
        {
          "internalType": "uint256",
          "name": "_propertyId",
          "type": "uint256"
        }
      ],
      "name": "getPropertySqFootage",
      "outputs": [
        {
          "internalType": "uint32",
          "name": "",
          "type": "uint32"
        }
      ],
      "stateMutability": "view",
      "type": "function"
    },
    {
      "inputs": [
        {
          "internalType": "uint256",
          "name": "_propertyId",
          "type": "uint256"
        }
      ],
      "name": "getPropertyMaxGuests",
      "outputs": [
        {
          "internalType": "uint8",
          "name": "",
          "type": "uint8"
        }
      ],
      "stateMutability": "view",
      "type": "function"
    }
  ],
  "bytecode": "0x608060405260006001556040518060400160405280601081526020017f50726f7065727479204d616e61676572000000000000000000000000000000008152506003908051906020019062000056929190620000ac565b503480156200006457600080fd5b5033600260006101000a81548173ffffffffffffffffffffffffffffffffffffffff021916908373ffffffffffffffffffffffffffffffffffffffff160217905550620001c1565b828054620000ba906200015c565b90600052602060002090601f016020900481019282620000de57600085556200012a565b82601f10620000f957805160ff19168380011785556200012a565b828001600101855582156200012a579182015b82811115620001295782518255916020019190600101906200010c565b5b5090506200013991906200013d565b5090565b5b80821115620001585760008160009055506001016200013e565b5090565b600060028204905060018216806200017557607f821691505b602082108114156200018c576200018b62000192565b5b50919050565b7f4e487b7100000000000000000000000000000000000000000000000000000000600052602260045260246000fd5b610f7d80620001d16000396000f3fe608060405234801561001057600080fd5b50600436106100f55760003560e01c806376494ba411610097578063bd9578ba11610066578063bd9578ba146102d4578063d14ca1c914610304578063d7d642b414610334578063fd2f518c14610364576100f5565b806376494ba4146102265780638da5cb5b1461025657806390afd28b1461027457806393bb50d6146102a4576100f5565b806346dc01d7116100d357806346dc01d71461016657806346fe17ec146101965780636fe90e9c146101c657806373a7dbd0146101f6576100f5565b806306fdde03146100fa578063190e4c771461011857806320d375a714610136575b600080fd5b610102610394565b60405161010f9190610bf0565b60405180910390f35b610120610422565b60405161012d9190610c12565b60405180910390f35b610150600480360381019061014b9190610b33565b610428565b60405161015d9190610c2d565b60405180910390f35b610180600480360381019061017b9190610b33565b610457565b60405161018d9190610c48565b60405180910390f35b6101b060048036038101906101ab9190610b33565b610483565b6040516101bd9190610bf0565b60405180910390f35b6101e060048036038101906101db9190610a07565b61052a565b6040516101ed9190610c12565b60405180910390f35b610210600480360381019061020b9190610b33565b6106b4565b60405161021d9190610c48565b60405180910390f35b610240600480360381019061023b9190610b33565b6106e0565b60405161024d9190610c48565b60405180910390f35b61025e61070c565b60405161026b9190610bd5565b60405180910390f35b61028e60048036038101906102899190610b33565b610732565b60405161029b9190610bf0565b60405180910390f35b6102be60048036038101906102b99190610b33565b6107d9565b6040516102cb9190610c48565b60405180910390f35b6102ee60048036038101906102e99190610b33565b610805565b6040516102fb9190610c48565b60405180910390f35b61031e60048036038101906103199190610b33565b610831565b60405161032b9190610c48565b60405180910390f35b61034e60048036038101906103499190610b33565b61085d565b60405161035b9190610c48565b60405180910390f35b61037e60048036038101906103799190610b33565b610889565b60405161038b9190610c48565b60405180910390f35b600380546103a190610da4565b80601f01602080910402602001604051908101604052809291908181526020018280546103cd90610da4565b801561041a5780601f106103ef5761010080835404028352916020019161041a565b820191906000526020600020905b8154815290600101906020018083116103fd57829003601f168201915b505050505081565b60015481565b600080600083815260200190815260200160002060020160079054906101000a900463ffffffff169050919050565b600080600083815260200190815260200160002060020160059054906101000a900460ff169050919050565b606060008083815260200190815260200160002060000180546104a590610da4565b80601f01602080910402602001604051908101604052809291908181526020018280546104d190610da4565b801561051e5780601f106104f35761010080835404028352916020019161051e565b820191906000526020600020905b81548152906001019060200180831161050157829003601f168201915b50505050509050919050565b6000806000806001600081548092919061054390610e07565b91905055815260200190815260200160002090508c81600001908051906020019061056f9291906108b5565b508b8160010190805190602001906105889291906108b5565b508a8160020160006101000a81548160ff021916908360ff160217905550898160020160016101000a81548160ff021916908360ff160217905550888160020160026101000a81548160ff021916908360ff160217905550878160020160036101000a81548160ff021916908360ff160217905550868160020160046101000a81548160ff021916908360ff160217905550858160020160056101000a81548160ff021916908360ff160217905550848160020160066101000a81548160ff021916908360ff160217905550838160020160076101000a81548163ffffffff021916908363ffffffff1602179055508281600201600b6101000a81548160ff021916908360ff160217905550600180546106a29190610cd5565b9150509b9a5050505050505050505050565b600080600083815260200190815260200160002060020160049054906101000a900460ff169050919050565b600080600083815260200190815260200160002060020160039054906101000a900460ff169050919050565b600260009054906101000a900473ffffffffffffffffffffffffffffffffffffffff1681565b6060600080838152602001908152602001600020600101805461075490610da4565b80601f016020809104026020016040519081016040528092919081815260200182805461078090610da4565b80156107cd5780601f106107a2576101008083540402835291602001916107cd565b820191906000526020600020905b8154815290600101906020018083116107b057829003601f168201915b50505050509050919050565b600080600083815260200190815260200160002060020160069054906101000a900460ff169050919050565b600080600083815260200190815260200160002060020160029054906101000a900460ff169050919050565b600080600083815260200190815260200160002060020160009054906101000a900460ff169050919050565b600080600083815260200190815260200160002060020160019054906101000a900460ff169050919050565b6000806000838152602001908152602001600020600201600b9054906101000a900460ff169050919050565b8280546108c190610da4565b90600052602060002090601f0160209004810192826108e3576000855561092a565b82601f106108fc57805160ff191683800117855561092a565b8280016001018555821561092a579182015b8281111561092957825182559160200191906001019061090e565b5b509050610937919061093b565b5090565b5b8082111561095457600081600090555060010161093c565b5090565b600061096b61096684610c88565b610c63565b90508281526020810184848401111561098757610986610ee2565b5b610992848285610d62565b509392505050565b600082601f8301126109af576109ae610edd565b5b81356109bf848260208601610958565b91505092915050565b6000813590506109d781610f02565b92915050565b6000813590506109ec81610f19565b92915050565b600081359050610a0181610f30565b92915050565b60008060008060008060008060008060006101608c8e031215610a2d57610a2c610eec565b5b60008c013567ffffffffffffffff811115610a4b57610a4a610ee7565b5b610a578e828f0161099a565b9b505060208c013567ffffffffffffffff811115610a7857610a77610ee7565b5b610a848e828f0161099a565b9a50506040610a958e828f016109f2565b9950506060610aa68e828f016109f2565b9850506080610ab78e828f016109f2565b97505060a0610ac88e828f016109f2565b96505060c0610ad98e828f016109f2565b95505060e0610aea8e828f016109f2565b945050610100610afc8e828f016109f2565b935050610120610b0e8e828f016109dd565b925050610140610b208e828f016109f2565b9150509295989b509295989b9093969950565b600060208284031215610b4957610b48610eec565b5b6000610b57848285016109c8565b91505092915050565b610b6981610d09565b82525050565b6000610b7a82610cb9565b610b848185610cc4565b9350610b94818560208601610d71565b610b9d81610ef1565b840191505092915050565b610bb181610d3b565b82525050565b610bc081610d45565b82525050565b610bcf81610d55565b82525050565b6000602082019050610bea6000830184610b60565b92915050565b60006020820190508181036000830152610c0a8184610b6f565b905092915050565b6000602082019050610c276000830184610ba8565b92915050565b6000602082019050610c426000830184610bb7565b92915050565b6000602082019050610c5d6000830184610bc6565b92915050565b6000610c6d610c7e565b9050610c798282610dd6565b919050565b6000604051905090565b600067ffffffffffffffff821115610ca357610ca2610eae565b5b610cac82610ef1565b9050602081019050919050565b600081519050919050565b600082825260208201905092915050565b6000610ce082610d3b565b9150610ceb83610d3b565b925082821015610cfe57610cfd610e50565b5b828203905092915050565b6000610d1482610d1b565b9050919050565b600073ffffffffffffffffffffffffffffffffffffffff82169050919050565b6000819050919050565b600063ffffffff82169050919050565b600060ff82169050919050565b82818337600083830152505050565b60005b83811015610d8f578082015181840152602081019050610d74565b83811115610d9e576000848401525b50505050565b60006002820490506001821680610dbc57607f821691505b60208210811415610dd057610dcf610e7f565b5b50919050565b610ddf82610ef1565b810181811067ffffffffffffffff82111715610dfe57610dfd610eae565b5b80604052505050565b6000610e1282610d3b565b91507fffffffffffffffffffffffffffffffffffffffffffffffffffffffffffffffff821415610e4557610e44610e50565b5b600182019050919050565b7f4e487b7100000000000000000000000000000000000000000000000000000000600052601160045260246000fd5b7f4e487b7100000000000000000000000000000000000000000000000000000000600052602260045260246000fd5b7f4e487b7100000000000000000000000000000000000000000000000000000000600052604160045260246000fd5b600080fd5b600080fd5b600080fd5b600080fd5b6000601f19601f8301169050919050565b610f0b81610d3b565b8114610f1657600080fd5b50565b610f2281610d45565b8114610f2d57600080fd5b50565b610f3981610d55565b8114610f4457600080fd5b5056fea2646970667358221220332e7eaa01262713241c25f01b023eee63cf4d3bc3e1f1868a710aafa92c1b9464736f6c63430008050033",
  "immutableReferences": {},
  "source": "// SPDX-License-Identifier: UNLICENSED\npragma solidity ^0.8.0;\n\nimport \"./structs/Property.sol\";\n\ncontract PropertyManager {\n    mapping(uint => Property) properties;\n\n    uint public numOfProperties = 0;\n    address public owner;\n    string public name = \"Property Manager\";\n\n    constructor() {\n        owner = msg.sender;\n    }\n\n    function createProperty(\n        string memory _city,\n        string memory _state,\n        uint8 _numOfBedrooms,\n        uint8 _numOfFullBathrooms,\n        uint8 _numOfHalfBathrooms,\n        uint8 _numOfKingBeds,\n        uint8 _numOfQueenBeds,\n        uint8 _numOfFullBeds,\n        uint8 _numOfTwinBeds,\n        uint32 _sqFootage,\n        uint8 _maxNumOfGuests\n    ) public returns (uint) {\n        Property storage property = properties[numOfProperties++];\n        property.city = _city;\n        property.state = _state;\n        property.numOfBedrooms = _numOfBedrooms;\n        property.numOfFullBathrooms = _numOfFullBathrooms;\n        property.numOfHalfBathrooms = _numOfHalfBathrooms;\n        property.numOfKingBeds = _numOfKingBeds;\n        property.numOfQueenBeds = _numOfQueenBeds;\n        property.numOfFullBeds = _numOfFullBeds;\n        property.numOfTwinBeds = _numOfTwinBeds;\n        property.sqFootage = _sqFootage;\n        property.maxNumOfGuests = _maxNumOfGuests;\n\n        return numOfProperties - 1;\n    }\n\n    function getPropertyCity(uint _propertyId) public view returns (string memory) {\n        return properties[_propertyId].city;\n    }\n\n    function getPropertyState(uint _propertyId) public view returns (string memory) {\n        return properties[_propertyId].state;\n    }\n\n    function getPropertyBedrooms(uint _propertyId) public view returns (uint8) {\n        return properties[_propertyId].numOfBedrooms;\n    }\n\n    function getPropertyFullBaths(uint _propertyId) public view returns (uint8) {\n        return properties[_propertyId].numOfFullBathrooms;\n    }\n\n    function getPropertyHalfBaths(uint _propertyId) public view returns (uint8) {\n        return properties[_propertyId].numOfHalfBathrooms;\n    }\n\n    function getPropertyKingBeds(uint _propertyId) public view returns (uint8) {\n        return properties[_propertyId].numOfKingBeds;\n    }\n\n    function getPropertyQueenBeds(uint _propertyId) public view returns (uint8) {\n        return properties[_propertyId].numOfQueenBeds;\n    }\n\n    function getPropertyFullBeds(uint _propertyId) public view returns (uint8) {\n        return properties[_propertyId].numOfFullBeds;\n    }\n\n    function getPropertyTwinBeds(uint _propertyId) public view returns (uint8) {\n        return properties[_propertyId].numOfTwinBeds;\n    }\n\n    function getPropertySqFootage(uint _propertyId) public view returns (uint32) {\n        return properties[_propertyId].sqFootage;\n    }\n\n    function getPropertyMaxGuests(uint _propertyId) public view returns (uint8) {\n        return properties[_propertyId].maxNumOfGuests;\n    }\n}\n",
  "sourcePath": "/Users/ian/Code/eth_contracts/yumebnb/yume_contracts/src/contracts/PropertyManager.sol",
  "compiler": {
    "name": "solc",
    "version": "0.8.5+commit.a4f2e591.Emscripten.clang"
  },
  "schemaVersion": "3.4.1",
  "updatedAt": "2021-07-14T04:32:45.572Z",
  "devdoc": {
    "kind": "dev",
    "methods": {},
    "version": 1
  },
  "userdoc": {
    "kind": "user",
    "methods": {},
    "version": 1
  }
}