{
  "contractName": "ReviewManager",
  "abi": [
    {
      "inputs": [
        {
          "internalType": "contract BookingManager",
          "name": "_bookingManager",
          "type": "address"
        }
      ],
      "stateMutability": "nonpayable",
      "type": "constructor"
    },
    {
      "inputs": [],
      "name": "name",
      "outputs": [
        {
          "internalType": "string",
          "name": "",
          "type": "string"
        }
      ],
      "stateMutability": "view",
      "type": "function"
    },
    {
      "inputs": [],
      "name": "numOfReviews",
      "outputs": [
        {
          "internalType": "uint256",
          "name": "",
          "type": "uint256"
        }
      ],
      "stateMutability": "view",
      "type": "function"
    },
    {
      "inputs": [],
      "name": "reviewIndex",
      "outputs": [
        {
          "internalType": "uint256",
          "name": "",
          "type": "uint256"
        }
      ],
      "stateMutability": "view",
      "type": "function"
    },
    {
      "inputs": [
        {
          "internalType": "uint256",
          "name": "_bookingId",
          "type": "uint256"
        },
        {
          "internalType": "uint8",
          "name": "_starRating",
          "type": "uint8"
        },
        {
          "internalType": "string",
          "name": "_positiveComments",
          "type": "string"
        },
        {
          "internalType": "string",
          "name": "_negativeComments",
          "type": "string"
        },
        {
          "internalType": "string",
          "name": "_otherComments",
          "type": "string"
        }
      ],
      "name": "createReview",
      "outputs": [
        {
          "internalType": "uint256",
          "name": "",
          "type": "uint256"
        }
      ],
      "stateMutability": "nonpayable",
      "type": "function"
    }
  ],
  "bytecode": "0x608060405262015180600055600060025560016003556040518060400160405280600e81526020017f526576696577204d616e616765720000000000000000000000000000000000008152506004908051906020019062000062929190620000de565b503480156200007057600080fd5b5060405162000bc338038062000bc38339818101604052810190620000969190620001a5565b80600560006101000a81548173ffffffffffffffffffffffffffffffffffffffff021916908373ffffffffffffffffffffffffffffffffffffffff16021790555050620002a3565b828054620000ec906200021f565b90600052602060002090601f0160209004810192826200011057600085556200015c565b82601f106200012b57805160ff19168380011785556200015c565b828001600101855582156200015c579182015b828111156200015b5782518255916020019190600101906200013e565b5b5090506200016b91906200016f565b5090565b5b808211156200018a57600081600090555060010162000170565b5090565b6000815190506200019f8162000289565b92915050565b600060208284031215620001be57620001bd62000284565b5b6000620001ce848285016200018e565b91505092915050565b6000620001e482620001ff565b9050919050565b6000620001f882620001d7565b9050919050565b600073ffffffffffffffffffffffffffffffffffffffff82169050919050565b600060028204905060018216806200023857607f821691505b602082108114156200024f576200024e62000255565b5b50919050565b7f4e487b7100000000000000000000000000000000000000000000000000000000600052602260045260246000fd5b600080fd5b6200029481620001eb565b8114620002a057600080fd5b50565b61091080620002b36000396000f3fe608060405234801561001057600080fd5b506004361061004c5760003560e01c806306fdde031461005157806342948e9c1461006f578063e076bd251461009f578063fce52c6b146100bd575b600080fd5b6100596100db565b60405161006691906105fd565b60405180910390f35b610089600480360381019061008491906104e6565b610169565b604051610096919061061f565b60405180910390f35b6100a761035b565b6040516100b4919061061f565b60405180910390f35b6100c5610361565b6040516100d2919061061f565b60405180910390f35b600480546100e890610737565b80601f016020809104026020016040519081016040528092919081815260200182805461011490610737565b80156101615780601f1061013657610100808354040283529160200191610161565b820191906000526020600020905b81548152906001019060200180831161014457829003601f168201915b505050505081565b6000853373ffffffffffffffffffffffffffffffffffffffff16600560009054906101000a900473ffffffffffffffffffffffffffffffffffffffff1673ffffffffffffffffffffffffffffffffffffffff1663f0865d26836040518263ffffffff1660e01b81526004016101de919061061f565b60206040518083038186803b1580156101f657600080fd5b505afa15801561020a573d6000803e3d6000fd5b505050506040513d601f19601f8201168201806040525081019061022e91906104b9565b73ffffffffffffffffffffffffffffffffffffffff161461024e57600080fd5b6000600360008154809291906102639061079a565b9190505590506000600160008381526020019081526020016000209050878160000160006101000a81548160ff021916908360ff160217905550888160010181905550338160020160006101000a81548173ffffffffffffffffffffffffffffffffffffffff021916908373ffffffffffffffffffffffffffffffffffffffff16021790555086816003019080519060200190610301929190610367565b508581600401908051906020019061031a929190610367565b5084816005019080519060200190610333929190610367565b50600260008154809291906103479061079a565b919050555081935050505095945050505050565b60025481565b60035481565b82805461037390610737565b90600052602060002090601f01602090048101928261039557600085556103dc565b82601f106103ae57805160ff19168380011785556103dc565b828001600101855582156103dc579182015b828111156103db5782518255916020019190600101906103c0565b5b5090506103e991906103ed565b5090565b5b808211156104065760008160009055506001016103ee565b5090565b600061041d6104188461065f565b61063a565b90508281526020810184848401111561043957610438610875565b5b6104448482856106f5565b509392505050565b60008151905061045b81610895565b92915050565b600082601f83011261047657610475610870565b5b813561048684826020860161040a565b91505092915050565b60008135905061049e816108ac565b92915050565b6000813590506104b3816108c3565b92915050565b6000602082840312156104cf576104ce61087f565b5b60006104dd8482850161044c565b91505092915050565b600080600080600060a086880312156105025761050161087f565b5b60006105108882890161048f565b9550506020610521888289016104a4565b945050604086013567ffffffffffffffff8111156105425761054161087a565b5b61054e88828901610461565b935050606086013567ffffffffffffffff81111561056f5761056e61087a565b5b61057b88828901610461565b925050608086013567ffffffffffffffff81111561059c5761059b61087a565b5b6105a888828901610461565b9150509295509295909350565b60006105c082610690565b6105ca818561069b565b93506105da818560208601610704565b6105e381610884565b840191505092915050565b6105f7816106de565b82525050565b6000602082019050818103600083015261061781846105b5565b905092915050565b600060208201905061063460008301846105ee565b92915050565b6000610644610655565b90506106508282610769565b919050565b6000604051905090565b600067ffffffffffffffff82111561067a57610679610841565b5b61068382610884565b9050602081019050919050565b600081519050919050565b600082825260208201905092915050565b60006106b7826106be565b9050919050565b600073ffffffffffffffffffffffffffffffffffffffff82169050919050565b6000819050919050565b600060ff82169050919050565b82818337600083830152505050565b60005b83811015610722578082015181840152602081019050610707565b83811115610731576000848401525b50505050565b6000600282049050600182168061074f57607f821691505b6020821081141561076357610762610812565b5b50919050565b61077282610884565b810181811067ffffffffffffffff8211171561079157610790610841565b5b80604052505050565b60006107a5826106de565b91507fffffffffffffffffffffffffffffffffffffffffffffffffffffffffffffffff8214156107d8576107d76107e3565b5b600182019050919050565b7f4e487b7100000000000000000000000000000000000000000000000000000000600052601160045260246000fd5b7f4e487b7100000000000000000000000000000000000000000000000000000000600052602260045260246000fd5b7f4e487b7100000000000000000000000000000000000000000000000000000000600052604160045260246000fd5b600080fd5b600080fd5b600080fd5b600080fd5b6000601f19601f8301169050919050565b61089e816106ac565b81146108a957600080fd5b50565b6108b5816106de565b81146108c057600080fd5b50565b6108cc816106e8565b81146108d757600080fd5b5056fea26469706673582212205f2a3037958750e623e04a3ee23de1116d7ac2f0c6f28d941b30e034d185891864736f6c63430008050033",
  "immutableReferences": {},
  "source": "// SPDX-License-Identifier: UNLICENSED\npragma solidity ^0.8.0;\n\nimport \"./Manager.sol\";\nimport \"./structs/Review.sol\";\nimport \"./BookingManager.sol\";\n\n/*\n  This contract is unused and not deployed. This is because I figured guests would not want to pay to post a review.\n  Instead reviews will be hosted on our own servers. However the guest will have to sign the review with their private\n  key to confirm that they were the one who created the booking being reviewed.\n*/\n\ncontract ReviewManager is Manager {\n    mapping(uint => Review) reviews;\n    uint public numOfReviews = 0;\n    uint public reviewIndex = 1;\n    string public name = \"Review Manager\";\n\n    BookingManager bookingManger;\n\n    constructor(BookingManager _bookingManager) {\n        bookingManger = _bookingManager;\n    }\n\n    modifier ownsBooking(uint bookingId) {\n        require(bookingManger.getBookingOwner(bookingId) == msg.sender);\n        _;\n    }\n\n    function createReview(\n        uint _bookingId,\n        uint8 _starRating,\n        string memory _positiveComments,\n        string memory _negativeComments,\n        string memory _otherComments\n    ) public ownsBooking(_bookingId) returns (uint) {\n        uint reviewId = reviewIndex++;\n\n        Review storage newReview = reviews[reviewId];\n        newReview.starRating = _starRating;\n        newReview.bookingId = _bookingId;\n        newReview.guestId = msg.sender;\n        newReview.positiveComments = _positiveComments;\n        newReview.negativeComments = _negativeComments;\n        newReview.otherComments = _otherComments;\n\n        numOfReviews++;\n\n        return reviewId;\n    }\n}\n",
  "sourcePath": "/Users/ian/Code/eth_contracts/yumebnb/yume_contracts/src/contracts/ReviewManager.sol",
  "compiler": {
    "name": "solc",
    "version": "0.8.5+commit.a4f2e591.Emscripten.clang"
  },
  "schemaVersion": "3.4.1",
  "updatedAt": "2021-07-20T05:05:02.657Z",
  "devdoc": {
    "kind": "dev",
    "methods": {},
    "version": 1
  },
  "userdoc": {
    "kind": "user",
    "methods": {},
    "version": 1
  }
}